{
  "contractName": "TokenSaleContract",
  "abi": [
    {
      "inputs": [],
      "stateMutability": "nonpayable",
      "type": "constructor"
    },
    {
      "anonymous": false,
      "inputs": [
        {
          "indexed": true,
          "internalType": "address",
          "name": "updater",
          "type": "address"
        },
        {
          "indexed": false,
          "internalType": "string",
          "name": "tokenName",
          "type": "string"
        },
        {
          "indexed": false,
          "internalType": "string",
          "name": "newFundedInt",
          "type": "string"
        },
        {
          "indexed": false,
          "internalType": "bytes32",
          "name": "hashedAwardID",
          "type": "bytes32"
        }
      ],
      "name": "FundedIntUpdated",
      "type": "event"
    },
    {
      "anonymous": false,
      "inputs": [
        {
          "indexed": true,
          "internalType": "address",
          "name": "owner",
          "type": "address"
        },
        {
          "indexed": false,
          "internalType": "string",
          "name": "tokenName",
          "type": "string"
        },
        {
          "indexed": false,
          "internalType": "uint256",
          "name": "amount",
          "type": "uint256"
        },
        {
          "indexed": false,
          "internalType": "string",
          "name": "awardID",
          "type": "string"
        },
        {
          "indexed": false,
          "internalType": "string",
          "name": "buyerID",
          "type": "string"
        },
        {
          "indexed": false,
          "internalType": "string",
          "name": "supplierID",
          "type": "string"
        },
        {
          "indexed": false,
          "internalType": "uint256",
          "name": "awardAmount",
          "type": "uint256"
        },
        {
          "indexed": false,
          "internalType": "string",
          "name": "award_Doc_Hash",
          "type": "string"
        },
        {
          "indexed": false,
          "internalType": "string",
          "name": "financerID",
          "type": "string"
        },
        {
          "indexed": false,
          "internalType": "string",
          "name": "funded_int",
          "type": "string"
        }
      ],
      "name": "TokensBurned",
      "type": "event"
    },
    {
      "anonymous": false,
      "inputs": [
        {
          "indexed": true,
          "internalType": "address",
          "name": "owner",
          "type": "address"
        },
        {
          "indexed": false,
          "internalType": "string",
          "name": "tokenName",
          "type": "string"
        },
        {
          "indexed": false,
          "internalType": "uint256",
          "name": "amount",
          "type": "uint256"
        }
      ],
      "name": "TokensMinted",
      "type": "event"
    },
    {
      "anonymous": false,
      "inputs": [
        {
          "indexed": true,
          "internalType": "address",
          "name": "buyer",
          "type": "address"
        },
        {
          "indexed": false,
          "internalType": "string",
          "name": "tokenName",
          "type": "string"
        },
        {
          "indexed": false,
          "internalType": "uint256",
          "name": "amount",
          "type": "uint256"
        }
      ],
      "name": "TokensPurchased",
      "type": "event"
    },
    {
      "inputs": [
        {
          "internalType": "string",
          "name": "",
          "type": "string"
        },
        {
          "internalType": "string",
          "name": "",
          "type": "string"
        }
      ],
      "name": "awardAmounts",
      "outputs": [
        {
          "internalType": "uint256",
          "name": "",
          "type": "uint256"
        }
      ],
      "stateMutability": "view",
      "type": "function"
    },
    {
      "inputs": [
        {
          "internalType": "string",
          "name": "",
          "type": "string"
        },
        {
          "internalType": "string",
          "name": "",
          "type": "string"
        }
      ],
      "name": "awardDocHashes",
      "outputs": [
        {
          "internalType": "string",
          "name": "",
          "type": "string"
        }
      ],
      "stateMutability": "view",
      "type": "function"
    },
    {
      "inputs": [
        {
          "internalType": "string",
          "name": "",
          "type": "string"
        }
      ],
      "name": "awardIDByTokenName",
      "outputs": [
        {
          "internalType": "bytes32",
          "name": "",
          "type": "bytes32"
        }
      ],
      "stateMutability": "view",
      "type": "function"
    },
    {
      "inputs": [
        {
          "internalType": "address",
          "name": "",
          "type": "address"
        },
        {
          "internalType": "string",
          "name": "",
          "type": "string"
        }
      ],
      "name": "balances",
      "outputs": [
        {
          "internalType": "uint256",
          "name": "",
          "type": "uint256"
        }
      ],
      "stateMutability": "view",
      "type": "function"
    },
    {
      "inputs": [
        {
          "internalType": "string",
          "name": "",
          "type": "string"
        },
        {
          "internalType": "string",
          "name": "",
          "type": "string"
        }
      ],
      "name": "buyerIDs",
      "outputs": [
        {
          "internalType": "string",
          "name": "",
          "type": "string"
        }
      ],
      "stateMutability": "view",
      "type": "function"
    },
    {
      "inputs": [
        {
          "internalType": "string",
          "name": "",
          "type": "string"
        },
        {
          "internalType": "string",
          "name": "",
          "type": "string"
        }
      ],
      "name": "financerIDs",
      "outputs": [
        {
          "internalType": "string",
          "name": "",
          "type": "string"
        }
      ],
      "stateMutability": "view",
      "type": "function"
    },
    {
      "inputs": [
        {
          "internalType": "bytes32",
          "name": "",
          "type": "bytes32"
        },
        {
          "internalType": "string",
          "name": "",
          "type": "string"
        }
      ],
      "name": "fundedInt",
      "outputs": [
        {
          "internalType": "string",
          "name": "",
          "type": "string"
        }
      ],
      "stateMutability": "view",
      "type": "function"
    },
    {
      "inputs": [],
      "name": "owner",
      "outputs": [
        {
          "internalType": "address",
          "name": "",
          "type": "address"
        }
      ],
      "stateMutability": "view",
      "type": "function"
    },
    {
      "inputs": [
        {
          "internalType": "string",
          "name": "",
          "type": "string"
        }
      ],
      "name": "ownersByTokenName",
      "outputs": [
        {
          "internalType": "address",
          "name": "",
          "type": "address"
        }
      ],
      "stateMutability": "view",
      "type": "function"
    },
    {
      "inputs": [
        {
          "internalType": "string",
          "name": "",
          "type": "string"
        },
        {
          "internalType": "string",
          "name": "",
          "type": "string"
        }
      ],
      "name": "supplierIDs",
      "outputs": [
        {
          "internalType": "string",
          "name": "",
          "type": "string"
        }
      ],
      "stateMutability": "view",
      "type": "function"
    },
    {
      "inputs": [
        {
          "internalType": "bytes32",
          "name": "",
          "type": "bytes32"
        }
      ],
      "name": "thirdPersonByAwardID",
      "outputs": [
        {
          "internalType": "address",
          "name": "",
          "type": "address"
        }
      ],
      "stateMutability": "view",
      "type": "function"
    },
    {
      "inputs": [],
      "name": "tokensAvailable",
      "outputs": [
        {
          "internalType": "uint256",
          "name": "",
          "type": "uint256"
        }
      ],
      "stateMutability": "view",
      "type": "function"
    },
    {
      "inputs": [],
      "name": "totalSupply",
      "outputs": [
        {
          "internalType": "uint256",
          "name": "",
          "type": "uint256"
        }
      ],
      "stateMutability": "view",
      "type": "function"
    },
    {
      "inputs": [
        {
          "internalType": "string",
          "name": "tokenName",
          "type": "string"
        },
        {
          "internalType": "uint256",
          "name": "amount",
          "type": "uint256"
        }
      ],
      "name": "mint",
      "outputs": [],
      "stateMutability": "nonpayable",
      "type": "function"
    },
    {
      "inputs": [
        {
          "internalType": "string",
          "name": "tokenName",
          "type": "string"
        },
        {
          "internalType": "uint256",
          "name": "amount",
          "type": "uint256"
        }
      ],
      "name": "purchase",
      "outputs": [],
      "stateMutability": "payable",
      "type": "function"
    },
    {
      "inputs": [
        {
          "internalType": "string",
          "name": "tokenName",
          "type": "string"
        },
        {
          "internalType": "uint256",
          "name": "amount",
          "type": "uint256"
        },
        {
          "internalType": "string",
          "name": "awardID",
          "type": "string"
        },
        {
          "internalType": "string",
          "name": "buyerID",
          "type": "string"
        },
        {
          "internalType": "string",
          "name": "supplierID",
          "type": "string"
        },
        {
          "internalType": "uint256",
          "name": "awardAmount",
          "type": "uint256"
        },
        {
          "internalType": "string",
          "name": "award_Doc_Hash",
          "type": "string"
        },
        {
          "internalType": "string",
          "name": "financerID",
          "type": "string"
        },
        {
          "internalType": "string",
          "name": "funded_int",
          "type": "string"
        }
      ],
      "name": "WriteData",
      "outputs": [],
      "stateMutability": "nonpayable",
      "type": "function"
    },
    {
      "inputs": [
        {
          "internalType": "string",
          "name": "tokenName",
          "type": "string"
        },
        {
          "internalType": "string",
          "name": "awardID",
          "type": "string"
        }
      ],
      "name": "getData",
      "outputs": [
        {
          "internalType": "uint256",
          "name": "amount",
          "type": "uint256"
        },
        {
          "internalType": "string",
          "name": "supplierID",
          "type": "string"
        },
        {
          "internalType": "uint256",
          "name": "awardAmount",
          "type": "uint256"
        },
        {
          "internalType": "string",
          "name": "award_Doc_Hash",
          "type": "string"
        },
        {
          "internalType": "string",
          "name": "financerID",
          "type": "string"
        },
        {
          "internalType": "string",
          "name": "funded_int",
          "type": "string"
        }
      ],
      "stateMutability": "view",
      "type": "function"
    },
    {
      "inputs": [
        {
          "internalType": "address",
          "name": "account",
          "type": "address"
        },
        {
          "internalType": "string",
          "name": "tokenName",
          "type": "string"
        }
      ],
      "name": "getBalance",
      "outputs": [
        {
          "internalType": "uint256",
          "name": "",
          "type": "uint256"
        }
      ],
      "stateMutability": "view",
      "type": "function"
    },
    {
      "inputs": [
        {
          "internalType": "string",
          "name": "tokenName",
          "type": "string"
        },
        {
          "internalType": "string",
          "name": "awardID",
          "type": "string"
        },
        {
          "internalType": "string",
          "name": "newFundedInt",
          "type": "string"
        },
        {
          "internalType": "string",
          "name": "newFinancerID",
          "type": "string"
        }
      ],
      "name": "updateFundedInt",
      "outputs": [],
      "stateMutability": "nonpayable",
      "type": "function"
    },
    {
      "inputs": [
        {
          "internalType": "string",
          "name": "awardID",
          "type": "string"
        },
        {
          "internalType": "address",
          "name": "thirdPerson",
          "type": "address"
        }
      ],
      "name": "designateThirdPerson",
      "outputs": [],
      "stateMutability": "nonpayable",
      "type": "function"
    }
  ],
  "bytecode": "0x608060405234801562000010575f80fd5b50335f806101000a81548173ffffffffffffffffffffffffffffffffffffffff021916908373ffffffffffffffffffffffffffffffffffffffff160217905550620f42406001819055506001546002819055505f8054906101000a900473ffffffffffffffffffffffffffffffffffffffff1660046040516200009390620001bc565b90815260200160405180910390205f6101000a81548173ffffffffffffffffffffffffffffffffffffffff021916908373ffffffffffffffffffffffffffffffffffffffff16021790555060015460035f805f9054906101000a900473ffffffffffffffffffffffffffffffffffffffff1673ffffffffffffffffffffffffffffffffffffffff1673ffffffffffffffffffffffffffffffffffffffff1681526020019081526020015f206040516200014c90620001bc565b908152602001604051809103902081905550620001d2565b5f81905092915050565b7f64656661756c74000000000000000000000000000000000000000000000000005f82015250565b5f620001a460078362000164565b9150620001b1826200016e565b600782019050919050565b5f620001c88262000196565b9150819050919050565b61317280620001e05f395ff3fe60806040526004361061011e575f3560e01c8063596ba5bb1161009f57806391402e281161006357806391402e28146104395780639976af69146104755780639ef00bd31461049d578063aa38e38c146104d9578063bef26920146104f55761011e565b8063596ba5bb1461032c57806360659a921461036d57806366f857f4146103975780636f86ad39146103d35780638da5cb5b1461040f5761011e565b806318160ddd116100e657806318160ddd14610212578063190271df1461023c578063195b8743146102785780631dd7cecf146102b45780634286d01e146102f05761011e565b8063056b01ce1461012257806305d01f501461014a5780630f3f74d7146101865780631335afbf146101c25780631397732c146101ea575b5f80fd5b34801561012d575f80fd5b5061014860048036038101906101439190611d9d565b610531565b005b348015610155575f80fd5b50610170600480360381019061016b9190611f8c565b610851565b60405161017d9190611ff5565b60405180910390f35b348015610191575f80fd5b506101ac60048036038101906101a7919061200e565b610889565b6040516101b991906120fe565b60405180910390f35b3480156101cd575f80fd5b506101e860048036038101906101e3919061211e565b61095f565b005b3480156101f5575f80fd5b50610210600480360381019061020b919061217b565b610afa565b005b34801561021d575f80fd5b50610226610e5e565b6040516102339190611ff5565b60405180910390f35b348015610247575f80fd5b50610262600480360381019061025d9190612308565b610e64565b60405161026f919061235e565b60405180910390f35b348015610283575f80fd5b5061029e6004803603810190610299919061200e565b610eac565b6040516102ab91906120fe565b60405180910390f35b3480156102bf575f80fd5b506102da60048036038101906102d59190612377565b610f82565b6040516102e79190611ff5565b60405180910390f35b3480156102fb575f80fd5b506103166004803603810190610311919061200e565b610fe8565b6040516103239190611ff5565b60405180910390f35b348015610337575f80fd5b50610352600480360381019061034d91906123d4565b611038565b60405161036496959493929190612452565b60405180910390f35b348015610378575f80fd5b50610381611427565b60405161038e9190611ff5565b60405180910390f35b3480156103a2575f80fd5b506103bd60048036038101906103b89190612500565b61142d565b6040516103ca91906120fe565b60405180910390f35b3480156103de575f80fd5b506103f960048036038101906103f4919061255a565b6114eb565b604051610406919061235e565b60405180910390f35b34801561041a575f80fd5b5061042361151b565b604051610430919061235e565b60405180910390f35b348015610444575f80fd5b5061045f600480360381019061045a919061200e565b61153e565b60405161046c91906120fe565b60405180910390f35b348015610480575f80fd5b5061049b60048036038101906104969190612585565b611614565b005b3480156104a8575f80fd5b506104c360048036038101906104be9190612308565b611841565b6040516104d09190612678565b60405180910390f35b6104f360048036038101906104ee9190611d9d565b61186e565b005b348015610500575f80fd5b5061051b6004803603810190610516919061200e565b611c22565b60405161052891906120fe565b60405180910390f35b5f8054906101000a900473ffffffffffffffffffffffffffffffffffffffff1673ffffffffffffffffffffffffffffffffffffffff163373ffffffffffffffffffffffffffffffffffffffff16146105be576040517f08c379a00000000000000000000000000000000000000000000000000000000081526004016105b590612701565b60405180910390fd5b806002541015610603576040517f08c379a00000000000000000000000000000000000000000000000000000000081526004016105fa9061278f565b60405180910390fd5b5f73ffffffffffffffffffffffffffffffffffffffff166004848460405161062c9291906127db565b90815260200160405180910390205f9054906101000a900473ffffffffffffffffffffffffffffffffffffffff1673ffffffffffffffffffffffffffffffffffffffff16036106f3575f8054906101000a900473ffffffffffffffffffffffffffffffffffffffff16600484846040516106a79291906127db565b90815260200160405180910390205f6101000a81548173ffffffffffffffffffffffffffffffffffffffff021916908373ffffffffffffffffffffffffffffffffffffffff1602179055505b8060035f600486866040516107099291906127db565b90815260200160405180910390205f9054906101000a900473ffffffffffffffffffffffffffffffffffffffff1673ffffffffffffffffffffffffffffffffffffffff1673ffffffffffffffffffffffffffffffffffffffff1681526020019081526020015f2084846040516107809291906127db565b90815260200160405180910390205f82825461079c9190612820565b925050819055508060025f8282546107b49190612853565b92505081905550600483836040516107cd9291906127db565b90815260200160405180910390205f9054906101000a900473ffffffffffffffffffffffffffffffffffffffff1673ffffffffffffffffffffffffffffffffffffffff167fb1b87c085f38f5c59007e65f6928950029cea43f05db762297f7eab488d5418c848484604051610844939291906128b2565b60405180910390a2505050565b6003602052815f5260405f20818051602081018201805184825260208301602085012081835280955050505050505f91509150505481565b600682805160208101820180518482526020830160208501208183528095505050505050818051602081018201805184825260208301602085012081835280955050505050505f915091505080546108e09061290f565b80601f016020809104026020016040519081016040528092919081815260200182805461090c9061290f565b80156109575780601f1061092e57610100808354040283529160200191610957565b820191905f5260205f20905b81548152906001019060200180831161093a57829003601f168201915b505050505081565b5f8054906101000a900473ffffffffffffffffffffffffffffffffffffffff1673ffffffffffffffffffffffffffffffffffffffff163373ffffffffffffffffffffffffffffffffffffffff16146109ec576040517f08c379a00000000000000000000000000000000000000000000000000000000081526004016109e390612701565b60405180910390fd5b5f8383604051602001610a009291906127db565b6040516020818303038152906040528051906020012090505f8054906101000a900473ffffffffffffffffffffffffffffffffffffffff1673ffffffffffffffffffffffffffffffffffffffff163373ffffffffffffffffffffffffffffffffffffffff1614610aa5576040517f08c379a0000000000000000000000000000000000000000000000000000000008152600401610a9c906129af565b60405180910390fd5b81600c5f8381526020019081526020015f205f6101000a81548173ffffffffffffffffffffffffffffffffffffffff021916908373ffffffffffffffffffffffffffffffffffffffff16021790555050505050565b5f87604051602001610b0c91906129fd565b6040516020818303038152906040528051906020012090508660068c8c604051610b379291906127db565b908152602001604051809103902089604051610b5391906129fd565b90815260200160405180910390209081610b6d9190612bb0565b508560078c8c604051610b819291906127db565b908152602001604051809103902089604051610b9d91906129fd565b90815260200160405180910390209081610bb79190612bb0565b508460088c8c604051610bcb9291906127db565b908152602001604051809103902089604051610be791906129fd565b9081526020016040518091039020819055508360098c8c604051610c0c9291906127db565b908152602001604051809103902089604051610c2891906129fd565b90815260200160405180910390209081610c429190612bb0565b5082600a8c8c604051610c569291906127db565b908152602001604051809103902089604051610c7291906129fd565b90815260200160405180910390209081610c8c9190612bb0565b5081600b5f8381526020019081526020015f208c8c604051610caf9291906127db565b90815260200160405180910390209081610cc99190612bb0565b508860035f3373ffffffffffffffffffffffffffffffffffffffff1673ffffffffffffffffffffffffffffffffffffffff1681526020019081526020015f208c8c604051610d189291906127db565b9081526020016040518091039020541015610d68576040517f08c379a0000000000000000000000000000000000000000000000000000000008152600401610d5f90612cc9565b60405180910390fd5b8860035f3373ffffffffffffffffffffffffffffffffffffffff1673ffffffffffffffffffffffffffffffffffffffff1681526020019081526020015f208c8c604051610db69291906127db565b90815260200160405180910390205f828254610dd29190612853565b925050819055508860025f828254610dea9190612820565b925050819055503373ffffffffffffffffffffffffffffffffffffffff167f861dd676a488bb77281c20f00f0eca665263ad11a2ec446c83bd9abba14f89648c8c8c8c8c8c8c8c8c8c604051610e499a99989796959493929190612ce7565b60405180910390a25050505050505050505050565b60015481565b6004818051602081018201805184825260208301602085012081835280955050505050505f915054906101000a900473ffffffffffffffffffffffffffffffffffffffff1681565b600982805160208101820180518482526020830160208501208183528095505050505050818051602081018201805184825260208301602085012081835280955050505050505f91509150508054610f039061290f565b80601f0160208091040260200160405190810160405280929190818152602001828054610f2f9061290f565b8015610f7a5780601f10610f5157610100808354040283529160200191610f7a565b820191905f5260205f20905b815481529060010190602001808311610f5d57829003601f168201915b505050505081565b5f60035f8573ffffffffffffffffffffffffffffffffffffffff1673ffffffffffffffffffffffffffffffffffffffff1681526020019081526020015f208383604051610fd09291906127db565b90815260200160405180910390205490509392505050565b600882805160208101820180518482526020830160208501208183528095505050505050818051602081018201805184825260208301602085012081835280955050505050505f91509150505481565b5f60605f60608060605f88886040516020016110559291906127db565b60405160208183030381529060405280519060200120905060035f3373ffffffffffffffffffffffffffffffffffffffff1673ffffffffffffffffffffffffffffffffffffffff1681526020019081526020015f208b8b6040516110ba9291906127db565b908152602001604051809103902054965060078b8b6040516110dd9291906127db565b908152602001604051809103902089896040516110fb9291906127db565b908152602001604051809103902080546111149061290f565b80601f01602080910402602001604051908101604052809291908181526020018280546111409061290f565b801561118b5780601f106111625761010080835404028352916020019161118b565b820191905f5260205f20905b81548152906001019060200180831161116e57829003601f168201915b5050505050955060088b8b6040516111a49291906127db565b908152602001604051809103902089896040516111c29291906127db565b908152602001604051809103902054945060098b8b6040516111e59291906127db565b908152602001604051809103902089896040516112039291906127db565b9081526020016040518091039020805461121c9061290f565b80601f01602080910402602001604051908101604052809291908181526020018280546112489061290f565b80156112935780601f1061126a57610100808354040283529160200191611293565b820191905f5260205f20905b81548152906001019060200180831161127657829003601f168201915b50505050509350600a8b8b6040516112ac9291906127db565b908152602001604051809103902089896040516112ca9291906127db565b908152602001604051809103902080546112e39061290f565b80601f016020809104026020016040519081016040528092919081815260200182805461130f9061290f565b801561135a5780601f106113315761010080835404028352916020019161135a565b820191905f5260205f20905b81548152906001019060200180831161133d57829003601f168201915b50505050509250600b5f8281526020019081526020015f208b8b6040516113829291906127db565b9081526020016040518091039020805461139b9061290f565b80601f01602080910402602001604051908101604052809291908181526020018280546113c79061290f565b80156114125780601f106113e957610100808354040283529160200191611412565b820191905f5260205f20905b8154815290600101906020018083116113f557829003601f168201915b50505050509150509499939850945094509450565b60025481565b600b602052815f5260405f20818051602081018201805184825260208301602085012081835280955050505050505f9150915050805461146c9061290f565b80601f01602080910402602001604051908101604052809291908181526020018280546114989061290f565b80156114e35780601f106114ba576101008083540402835291602001916114e3565b820191905f5260205f20905b8154815290600101906020018083116114c657829003601f168201915b505050505081565b600c602052805f5260405f205f915054906101000a900473ffffffffffffffffffffffffffffffffffffffff1681565b5f8054906101000a900473ffffffffffffffffffffffffffffffffffffffff1681565b600782805160208101820180518482526020830160208501208183528095505050505050818051602081018201805184825260208301602085012081835280955050505050505f915091505080546115959061290f565b80601f01602080910402602001604051908101604052809291908181526020018280546115c19061290f565b801561160c5780601f106115e35761010080835404028352916020019161160c565b820191905f5260205f20905b8154815290600101906020018083116115ef57829003601f168201915b505050505081565b5f86866040516020016116289291906127db565b604051602081830303815290604052805190602001209050600489896040516116529291906127db565b90815260200160405180910390205f9054906101000a900473ffffffffffffffffffffffffffffffffffffffff1673ffffffffffffffffffffffffffffffffffffffff163373ffffffffffffffffffffffffffffffffffffffff1614806117145750600c5f8281526020019081526020015f205f9054906101000a900473ffffffffffffffffffffffffffffffffffffffff1673ffffffffffffffffffffffffffffffffffffffff163373ffffffffffffffffffffffffffffffffffffffff16145b611753576040517f08c379a000000000000000000000000000000000000000000000000000000000815260040161174a90612e3b565b60405180910390fd5b8484600b5f8481526020019081526020015f208b8b6040516117769291906127db565b90815260200160405180910390209182611791929190612e63565b508282600a8b8b6040516117a69291906127db565b908152602001604051809103902089896040516117c49291906127db565b908152602001604051809103902091826117df929190612e63565b503373ffffffffffffffffffffffffffffffffffffffff167fbc831ceec47dcb2f99f9c6b3e604ed4e347428bf57fa40bc3ebbc3bd9ff729108a8a88888660405161182e959493929190612f30565b60405180910390a2505050505050505050565b6005818051602081018201805184825260208301602085012081835280955050505050505f915090505481565b5f81116118b0576040517f08c379a00000000000000000000000000000000000000000000000000000000081526004016118a790612fe7565b60405180910390fd5b8060035f600486866040516118c69291906127db565b90815260200160405180910390205f9054906101000a900473ffffffffffffffffffffffffffffffffffffffff1673ffffffffffffffffffffffffffffffffffffffff1673ffffffffffffffffffffffffffffffffffffffff1681526020019081526020015f20848460405161193d9291906127db565b908152602001604051809103902054101561198d576040517f08c379a000000000000000000000000000000000000000000000000000000000815260040161198490613075565b60405180910390fd5b670de0b6b3a7640000816119a19190613093565b34146119e2576040517f08c379a00000000000000000000000000000000000000000000000000000000081526004016119d99061311e565b60405180910390fd5b806002541015611a27576040517f08c379a0000000000000000000000000000000000000000000000000000000008152600401611a1e90613075565b60405180910390fd5b8060035f60048686604051611a3d9291906127db565b90815260200160405180910390205f9054906101000a900473ffffffffffffffffffffffffffffffffffffffff1673ffffffffffffffffffffffffffffffffffffffff1673ffffffffffffffffffffffffffffffffffffffff1681526020019081526020015f208484604051611ab49291906127db565b90815260200160405180910390205f828254611ad09190612853565b925050819055508060035f3373ffffffffffffffffffffffffffffffffffffffff1673ffffffffffffffffffffffffffffffffffffffff1681526020019081526020015f208484604051611b259291906127db565b90815260200160405180910390205f828254611b419190612820565b9250508190555060048383604051611b5a9291906127db565b90815260200160405180910390205f9054906101000a900473ffffffffffffffffffffffffffffffffffffffff1673ffffffffffffffffffffffffffffffffffffffff166108fc3490811502906040515f60405180830381858888f19350505050158015611bca573d5f803e3d5ffd5b503373ffffffffffffffffffffffffffffffffffffffff167f25748cfd0e365be64ddc23a17740b66c3c84e41a3f32027f9edbddde67cc6720848484604051611c15939291906128b2565b60405180910390a2505050565b600a82805160208101820180518482526020830160208501208183528095505050505050818051602081018201805184825260208301602085012081835280955050505050505f91509150508054611c799061290f565b80601f0160208091040260200160405190810160405280929190818152602001828054611ca59061290f565b8015611cf05780601f10611cc757610100808354040283529160200191611cf0565b820191905f5260205f20905b815481529060010190602001808311611cd357829003601f168201915b505050505081565b5f604051905090565b5f80fd5b5f80fd5b5f80fd5b5f80fd5b5f80fd5b5f8083601f840112611d2a57611d29611d09565b5b8235905067ffffffffffffffff811115611d4757611d46611d0d565b5b602083019150836001820283011115611d6357611d62611d11565b5b9250929050565b5f819050919050565b611d7c81611d6a565b8114611d86575f80fd5b50565b5f81359050611d9781611d73565b92915050565b5f805f60408486031215611db457611db3611d01565b5b5f84013567ffffffffffffffff811115611dd157611dd0611d05565b5b611ddd86828701611d15565b93509350506020611df086828701611d89565b9150509250925092565b5f73ffffffffffffffffffffffffffffffffffffffff82169050919050565b5f611e2382611dfa565b9050919050565b611e3381611e19565b8114611e3d575f80fd5b50565b5f81359050611e4e81611e2a565b92915050565b5f80fd5b5f601f19601f8301169050919050565b7f4e487b71000000000000000000000000000000000000000000000000000000005f52604160045260245ffd5b611e9e82611e58565b810181811067ffffffffffffffff82111715611ebd57611ebc611e68565b5b80604052505050565b5f611ecf611cf8565b9050611edb8282611e95565b919050565b5f67ffffffffffffffff821115611efa57611ef9611e68565b5b611f0382611e58565b9050602081019050919050565b828183375f83830152505050565b5f611f30611f2b84611ee0565b611ec6565b905082815260208101848484011115611f4c57611f4b611e54565b5b611f57848285611f10565b509392505050565b5f82601f830112611f7357611f72611d09565b5b8135611f83848260208601611f1e565b91505092915050565b5f8060408385031215611fa257611fa1611d01565b5b5f611faf85828601611e40565b925050602083013567ffffffffffffffff811115611fd057611fcf611d05565b5b611fdc85828601611f5f565b9150509250929050565b611fef81611d6a565b82525050565b5f6020820190506120085f830184611fe6565b92915050565b5f806040838503121561202457612023611d01565b5b5f83013567ffffffffffffffff81111561204157612040611d05565b5b61204d85828601611f5f565b925050602083013567ffffffffffffffff81111561206e5761206d611d05565b5b61207a85828601611f5f565b9150509250929050565b5f81519050919050565b5f82825260208201905092915050565b5f5b838110156120bb5780820151818401526020810190506120a0565b5f8484015250505050565b5f6120d082612084565b6120da818561208e565b93506120ea81856020860161209e565b6120f381611e58565b840191505092915050565b5f6020820190508181035f83015261211681846120c6565b905092915050565b5f805f6040848603121561213557612134611d01565b5b5f84013567ffffffffffffffff81111561215257612151611d05565b5b61215e86828701611d15565b9350935050602061217186828701611e40565b9150509250925092565b5f805f805f805f805f806101208b8d03121561219a57612199611d01565b5b5f8b013567ffffffffffffffff8111156121b7576121b6611d05565b5b6121c38d828e01611d15565b9a509a505060206121d68d828e01611d89565b98505060408b013567ffffffffffffffff8111156121f7576121f6611d05565b5b6122038d828e01611f5f565b97505060608b013567ffffffffffffffff81111561222457612223611d05565b5b6122308d828e01611f5f565b96505060808b013567ffffffffffffffff81111561225157612250611d05565b5b61225d8d828e01611f5f565b95505060a061226e8d828e01611d89565b94505060c08b013567ffffffffffffffff81111561228f5761228e611d05565b5b61229b8d828e01611f5f565b93505060e08b013567ffffffffffffffff8111156122bc576122bb611d05565b5b6122c88d828e01611f5f565b9250506101008b013567ffffffffffffffff8111156122ea576122e9611d05565b5b6122f68d828e01611f5f565b9150509295989b9194979a5092959850565b5f6020828403121561231d5761231c611d01565b5b5f82013567ffffffffffffffff81111561233a57612339611d05565b5b61234684828501611f5f565b91505092915050565b61235881611e19565b82525050565b5f6020820190506123715f83018461234f565b92915050565b5f805f6040848603121561238e5761238d611d01565b5b5f61239b86828701611e40565b935050602084013567ffffffffffffffff8111156123bc576123bb611d05565b5b6123c886828701611d15565b92509250509250925092565b5f805f80604085870312156123ec576123eb611d01565b5b5f85013567ffffffffffffffff81111561240957612408611d05565b5b61241587828801611d15565b9450945050602085013567ffffffffffffffff81111561243857612437611d05565b5b61244487828801611d15565b925092505092959194509250565b5f60c0820190506124655f830189611fe6565b818103602083015261247781886120c6565b90506124866040830187611fe6565b818103606083015261249881866120c6565b905081810360808301526124ac81856120c6565b905081810360a08301526124c081846120c6565b9050979650505050505050565b5f819050919050565b6124df816124cd565b81146124e9575f80fd5b50565b5f813590506124fa816124d6565b92915050565b5f806040838503121561251657612515611d01565b5b5f612523858286016124ec565b925050602083013567ffffffffffffffff81111561254457612543611d05565b5b61255085828601611f5f565b9150509250929050565b5f6020828403121561256f5761256e611d01565b5b5f61257c848285016124ec565b91505092915050565b5f805f805f805f806080898b0312156125a1576125a0611d01565b5b5f89013567ffffffffffffffff8111156125be576125bd611d05565b5b6125ca8b828c01611d15565b9850985050602089013567ffffffffffffffff8111156125ed576125ec611d05565b5b6125f98b828c01611d15565b9650965050604089013567ffffffffffffffff81111561261c5761261b611d05565b5b6126288b828c01611d15565b9450945050606089013567ffffffffffffffff81111561264b5761264a611d05565b5b6126578b828c01611d15565b92509250509295985092959890939650565b612672816124cd565b82525050565b5f60208201905061268b5f830184612669565b92915050565b7f4f6e6c7920746865206f776e65722063616e2063616c6c20746869732066756e5f8201527f6374696f6e000000000000000000000000000000000000000000000000000000602082015250565b5f6126eb60258361208e565b91506126f682612691565b604082019050919050565b5f6020820190508181035f830152612718816126df565b9050919050565b7f4e6f7420656e6f75676820746f6b656e7320617661696c61626c6520666f72205f8201527f6d696e74696e6700000000000000000000000000000000000000000000000000602082015250565b5f61277960278361208e565b91506127848261271f565b604082019050919050565b5f6020820190508181035f8301526127a68161276d565b9050919050565b5f81905092915050565b5f6127c283856127ad565b93506127cf838584611f10565b82840190509392505050565b5f6127e78284866127b7565b91508190509392505050565b7f4e487b71000000000000000000000000000000000000000000000000000000005f52601160045260245ffd5b5f61282a82611d6a565b915061283583611d6a565b925082820190508082111561284d5761284c6127f3565b5b92915050565b5f61285d82611d6a565b915061286883611d6a565b92508282039050818111156128805761287f6127f3565b5b92915050565b5f612891838561208e565b935061289e838584611f10565b6128a783611e58565b840190509392505050565b5f6040820190508181035f8301526128cb818587612886565b90506128da6020830184611fe6565b949350505050565b7f4e487b71000000000000000000000000000000000000000000000000000000005f52602260045260245ffd5b5f600282049050600182168061292657607f821691505b602082108103612939576129386128e2565b5b50919050565b7f4f6e6c792074686520636f6e7472616374206f776e65722063616e20646573695f8201527f676e617465206120746869726420706572736f6e000000000000000000000000602082015250565b5f61299960348361208e565b91506129a48261293f565b604082019050919050565b5f6020820190508181035f8301526129c68161298d565b9050919050565b5f6129d782612084565b6129e181856127ad565b93506129f181856020860161209e565b80840191505092915050565b5f612a0882846129cd565b915081905092915050565b5f819050815f5260205f209050919050565b5f6020601f8301049050919050565b5f82821b905092915050565b5f60088302612a6f7fffffffffffffffffffffffffffffffffffffffffffffffffffffffffffffffff82612a34565b612a798683612a34565b95508019841693508086168417925050509392505050565b5f819050919050565b5f612ab4612aaf612aaa84611d6a565b612a91565b611d6a565b9050919050565b5f819050919050565b612acd83612a9a565b612ae1612ad982612abb565b848454612a40565b825550505050565b5f90565b612af5612ae9565b612b00818484612ac4565b505050565b5b81811015612b2357612b185f82612aed565b600181019050612b06565b5050565b601f821115612b6857612b3981612a13565b612b4284612a25565b81016020851015612b51578190505b612b65612b5d85612a25565b830182612b05565b50505b505050565b5f82821c905092915050565b5f612b885f1984600802612b6d565b1980831691505092915050565b5f612ba08383612b79565b9150826002028217905092915050565b612bb982612084565b67ffffffffffffffff811115612bd257612bd1611e68565b5b612bdc825461290f565b612be7828285612b27565b5f60209050601f831160018114612c18575f8415612c06578287015190505b612c108582612b95565b865550612c77565b601f198416612c2686612a13565b5f5b82811015612c4d57848901518255600182019150602085019450602081019050612c28565b86831015612c6a5784890151612c66601f891682612b79565b8355505b6001600288020188555050505b505050505050565b7f4e6f7420656e6f75676820746f6b656e7320746f206275726e000000000000005f82015250565b5f612cb360198361208e565b9150612cbe82612c7f565b602082019050919050565b5f6020820190508181035f830152612ce081612ca7565b9050919050565b5f610120820190508181035f830152612d01818c8e612886565b9050612d10602083018b611fe6565b8181036040830152612d22818a6120c6565b90508181036060830152612d3681896120c6565b90508181036080830152612d4a81886120c6565b9050612d5960a0830187611fe6565b81810360c0830152612d6b81866120c6565b905081810360e0830152612d7f81856120c6565b9050818103610100830152612d9481846120c6565b90509b9a5050505050505050505050565b7f4f6e6c792074686520746f6b656e206f776e6572206f722064657369676e61745f8201527f656420746869726420706572736f6e2063616e207570646174652066756e646560208201527f645f696e74000000000000000000000000000000000000000000000000000000604082015250565b5f612e2560458361208e565b9150612e3082612da5565b606082019050919050565b5f6020820190508181035f830152612e5281612e19565b9050919050565b5f82905092915050565b612e6d8383612e59565b67ffffffffffffffff811115612e8657612e85611e68565b5b612e90825461290f565b612e9b828285612b27565b5f601f831160018114612ec8575f8415612eb6578287013590505b612ec08582612b95565b865550612f27565b601f198416612ed686612a13565b5f5b82811015612efd57848901358255600182019150602085019450602081019050612ed8565b86831015612f1a5784890135612f16601f891682612b79565b8355505b6001600288020188555050505b50505050505050565b5f6060820190508181035f830152612f49818789612886565b90508181036020830152612f5e818587612886565b9050612f6d6040830184612669565b9695505050505050565b7f507572636861736520616d6f756e74206d7573742062652067726561746572205f8201527f7468616e20300000000000000000000000000000000000000000000000000000602082015250565b5f612fd160268361208e565b9150612fdc82612f77565b604082019050919050565b5f6020820190508181035f830152612ffe81612fc5565b9050919050565b7f4e6f7420656e6f75676820746f6b656e7320617661696c61626c6520666f72205f8201527f7075726368617365000000000000000000000000000000000000000000000000602082015250565b5f61305f60288361208e565b915061306a82613005565b604082019050919050565b5f6020820190508181035f83015261308c81613053565b9050919050565b5f61309d82611d6a565b91506130a883611d6a565b92508282026130b681611d6a565b915082820484148315176130cd576130cc6127f3565b5b5092915050565b7f496e636f727265637420457468657220616d6f756e742073656e7400000000005f82015250565b5f613108601b8361208e565b9150613113826130d4565b602082019050919050565b5f6020820190508181035f830152613135816130fc565b905091905056fea264697066735822122019b90b26cb6479c86a2433d2cd7b2f32f8d1dcdcf4648d89b86f7f065850581864736f6c63430008180033",
  "immutableReferences": {},
  "source": "// SPDX-License-Identifier: MIT\r\npragma solidity ^0.8.0;\r\n\r\ncontract TokenSaleContract {\r\n    address public owner;\r\n    uint256 public totalSupply;\r\n    uint256 public tokensAvailable;\r\n\r\n    mapping(address => mapping(string => uint256)) public balances;\r\n    mapping(string => address) public ownersByTokenName;\r\n    mapping(string => bytes32) public awardIDByTokenName;\r\n    \r\n\r\n    event TokensMinted(address indexed owner, string tokenName, uint256 amount);\r\n    event TokensPurchased(address indexed buyer, string tokenName, uint256 amount);\r\n    event TokensBurned(address indexed owner, string tokenName, uint256 amount, string awardID, string buyerID,string supplierID,uint256 awardAmount,string award_Doc_Hash,string financerID,string funded_int);\r\n    \r\n    // Assume you have additional mappings to store buyerID, supplierID, awardAmount, awardDocHash, financerID, and fundedInt\r\n    mapping(string => mapping(string => string)) public buyerIDs;\r\n    mapping(string => mapping(string => string)) public supplierIDs;\r\n    mapping(string => mapping(string => uint256)) public awardAmounts;\r\n    mapping(string => mapping(string => string)) public awardDocHashes;\r\n    mapping(string => mapping(string => string)) public financerIDs;\r\n    mapping(bytes32 => mapping(string => string)) public fundedInt;\r\n\r\n    modifier onlyOwner() {\r\n        require(msg.sender == owner, \"Only the owner can call this function\");\r\n        _;\r\n    }\r\n\r\n    constructor() {\r\n        owner = msg.sender;\r\n        totalSupply = 1000000;\r\n        tokensAvailable = totalSupply;\r\n        ownersByTokenName[\"default\"] = owner;\r\n        balances[owner][\"default\"] = totalSupply;\r\n    }\r\n\r\n\r\n    function mint(string calldata tokenName, uint256 amount) external onlyOwner {\r\n        require(tokensAvailable >= amount, \"Not enough tokens available for minting\");\r\n        \r\n        // If the token name is not registered, associate it with the owner\r\n        if (ownersByTokenName[tokenName] == address(0)) {\r\n            ownersByTokenName[tokenName] = owner;\r\n        }\r\n\r\n        // Mint tokens to the specified owner and token name\r\n        balances[ownersByTokenName[tokenName]][tokenName] += amount;\r\n        tokensAvailable -= amount;\r\n\r\n        emit TokensMinted(ownersByTokenName[tokenName], tokenName, amount);\r\n    }\r\n\r\n\r\n    function purchase(string calldata tokenName, uint256 amount) external payable {\r\n        require(amount > 0, \"Purchase amount must be greater than 0\");\r\n        require(balances[ownersByTokenName[tokenName]][tokenName] >= amount, \"Not enough tokens available for purchase\");\r\n        require(msg.value == amount * 1 ether, \"Incorrect Ether amount sent\");\r\n        require(tokensAvailable >= amount, \"Not enough tokens available for purchase\");\r\n\r\n\r\n        // Transfer tokens from owner to buyer\r\n        balances[ownersByTokenName[tokenName]][tokenName] -= amount;\r\n        balances[msg.sender][tokenName] += amount;\r\n\r\n        // Transfer Ether to owner\r\n        payable(ownersByTokenName[tokenName]).transfer(msg.value);\r\n\r\n        emit TokensPurchased(msg.sender, tokenName, amount);\r\n    }\r\n\r\n    // New function to burn tokens and write data to the blockchain\r\n    function WriteData(string calldata tokenName, uint256 amount, string memory awardID, string memory buyerID,string memory supplierID,uint256 awardAmount,string memory award_Doc_Hash,string memory financerID,string memory funded_int) external {\r\n        // Hash awardID to bytes32\r\n        bytes32 hashedAwardID = keccak256(abi.encodePacked(awardID));\r\n\r\n        buyerIDs[tokenName][awardID] = buyerID;\r\n        supplierIDs[tokenName][awardID] = supplierID;\r\n        awardAmounts[tokenName][awardID] = awardAmount;\r\n        awardDocHashes[tokenName][awardID] = award_Doc_Hash;\r\n        financerIDs[tokenName][awardID] = financerID;\r\n        fundedInt[hashedAwardID][tokenName] = funded_int;\r\n        \r\n        require(balances[msg.sender][tokenName] >= amount, \"Not enough tokens to burn\");\r\n\r\n        // Burn tokens\r\n        balances[msg.sender][tokenName] -= amount;\r\n        tokensAvailable += amount;\r\n\r\n        // Emit event for the burned tokens\r\n        emit TokensBurned(msg.sender, tokenName, amount, awardID, buyerID,supplierID,awardAmount,award_Doc_Hash,financerID,funded_int);\r\n    }\r\n\r\n    function getData(string calldata tokenName, string calldata awardID) external view returns (\r\n    uint256 amount,\r\n    string memory supplierID,\r\n    uint256 awardAmount,\r\n    string memory award_Doc_Hash,\r\n    string memory financerID,\r\n    string memory funded_int\r\n    ) {\r\n    //hash awardID to bytes32\r\n    bytes32 hashedAwardID = keccak256(abi.encodePacked(awardID));\r\n\r\n    // Retrieve data based on tokenName and awardID\r\n    amount = balances[msg.sender][tokenName];\r\n    // buyerID = buyerIDs[tokenName][awardID];\r\n    supplierID = supplierIDs[tokenName][awardID];\r\n    awardAmount = awardAmounts[tokenName][awardID];\r\n    award_Doc_Hash = awardDocHashes[tokenName][awardID];\r\n    financerID = financerIDs[tokenName][awardID];\r\n    funded_int = fundedInt[hashedAwardID][tokenName];\r\n    }\r\n    \r\n    function getBalance(address account, string calldata tokenName) external view returns (uint256) {\r\n        return balances[account][tokenName];\r\n    }\r\n\r\n    \r\n\r\n\r\n    function updateFundedInt(string calldata tokenName, string calldata awardID, string calldata newFundedInt,string calldata newFinancerID) external {\r\n    bytes32 hashedAwardID = keccak256(abi.encodePacked(awardID));\r\n\r\n    require(\r\n        msg.sender == ownersByTokenName[tokenName] || \r\n        msg.sender == thirdPersonByAwardID[hashedAwardID], \r\n        \"Only the token owner or designated third person can update funded_int\" \r\n    );\r\n    \r\n    fundedInt[hashedAwardID][tokenName] = newFundedInt;\r\n    //update financerID with new value\r\n    financerIDs[tokenName][awardID] = newFinancerID;\r\n\r\n    emit FundedIntUpdated(msg.sender, tokenName, newFundedInt, hashedAwardID);\r\n    }\r\n\r\n    mapping(bytes32 => address) public thirdPersonByAwardID;\r\n\r\n    event FundedIntUpdated(address indexed updater, string tokenName, string newFundedInt, bytes32 hashedAwardID);\r\n    \r\n    function designateThirdPerson(string calldata awardID, address thirdPerson) external onlyOwner {\r\n    bytes32 hashedAwardID = keccak256(abi.encodePacked(awardID));\r\n\r\n    \r\n    require(msg.sender == owner, \"Only the contract owner can designate a third person\");\r\n    \r\n    thirdPersonByAwardID[hashedAwardID] = thirdPerson;\r\n    }\r\n    \r\n}",
  "sourcePath": "C:\\Users\\ACER\\Documents\\GitHub\\TokenExchange\\project\\Truffle\\contracts\\DBXContracts.sol",
  "compiler": {
    "name": "solc",
    "version": "0.8.24+commit.e11b9ed9.Emscripten.clang"
  },
  "schemaVersion": "3.4.16",
  "updatedAt": "2024-03-13T16:41:54.335Z",
  "devdoc": {
    "kind": "dev",
    "methods": {},
    "version": 1
  },
  "userdoc": {
    "kind": "user",
    "methods": {},
    "version": 1
  }
}