{
  "contractName": "TokenSaleContract",
  "abi": [
    {
      "inputs": [],
      "stateMutability": "nonpayable",
      "type": "constructor"
    },
    {
      "anonymous": false,
      "inputs": [
        {
          "indexed": true,
          "internalType": "address",
          "name": "owner",
          "type": "address"
        },
        {
          "indexed": false,
          "internalType": "string",
          "name": "tokenName",
          "type": "string"
        },
        {
          "indexed": false,
          "internalType": "uint256",
          "name": "amount",
          "type": "uint256"
        },
        {
          "indexed": false,
          "internalType": "string",
          "name": "awardID",
          "type": "string"
        },
        {
          "indexed": false,
          "internalType": "string",
          "name": "buyerID",
          "type": "string"
        },
        {
          "indexed": false,
          "internalType": "string",
          "name": "supplierID",
          "type": "string"
        },
        {
          "indexed": false,
          "internalType": "uint256",
          "name": "awardAmount",
          "type": "uint256"
        },
        {
          "indexed": false,
          "internalType": "string",
          "name": "award_Doc_Hash",
          "type": "string"
        },
        {
          "indexed": false,
          "internalType": "string",
          "name": "tenderNo",
          "type": "string"
        },
        {
          "indexed": false,
          "internalType": "string",
          "name": "tenderDate",
          "type": "string"
        }
      ],
      "name": "TokensBurned",
      "type": "event"
    },
    {
      "anonymous": false,
      "inputs": [
        {
          "indexed": true,
          "internalType": "address",
          "name": "owner",
          "type": "address"
        },
        {
          "indexed": false,
          "internalType": "string",
          "name": "tokenName",
          "type": "string"
        },
        {
          "indexed": false,
          "internalType": "uint256",
          "name": "amount",
          "type": "uint256"
        }
      ],
      "name": "TokensMinted",
      "type": "event"
    },
    {
      "anonymous": false,
      "inputs": [
        {
          "indexed": true,
          "internalType": "address",
          "name": "buyer",
          "type": "address"
        },
        {
          "indexed": false,
          "internalType": "string",
          "name": "tokenName",
          "type": "string"
        },
        {
          "indexed": false,
          "internalType": "uint256",
          "name": "amount",
          "type": "uint256"
        }
      ],
      "name": "TokensPurchased",
      "type": "event"
    },
    {
      "inputs": [
        {
          "internalType": "string",
          "name": "",
          "type": "string"
        },
        {
          "internalType": "string",
          "name": "",
          "type": "string"
        }
      ],
      "name": "awardAmounts",
      "outputs": [
        {
          "internalType": "uint256",
          "name": "",
          "type": "uint256"
        }
      ],
      "stateMutability": "view",
      "type": "function"
    },
    {
      "inputs": [
        {
          "internalType": "string",
          "name": "",
          "type": "string"
        },
        {
          "internalType": "string",
          "name": "",
          "type": "string"
        }
      ],
      "name": "awardDocHashes",
      "outputs": [
        {
          "internalType": "string",
          "name": "",
          "type": "string"
        }
      ],
      "stateMutability": "view",
      "type": "function"
    },
    {
      "inputs": [
        {
          "internalType": "string",
          "name": "",
          "type": "string"
        },
        {
          "internalType": "string",
          "name": "",
          "type": "string"
        }
      ],
      "name": "awardDocIPFSURLs",
      "outputs": [
        {
          "internalType": "string",
          "name": "",
          "type": "string"
        }
      ],
      "stateMutability": "view",
      "type": "function"
    },
    {
      "inputs": [
        {
          "internalType": "string",
          "name": "",
          "type": "string"
        }
      ],
      "name": "awardIDByTokenName",
      "outputs": [
        {
          "internalType": "bytes32",
          "name": "",
          "type": "bytes32"
        }
      ],
      "stateMutability": "view",
      "type": "function"
    },
    {
      "inputs": [
        {
          "internalType": "address",
          "name": "",
          "type": "address"
        },
        {
          "internalType": "string",
          "name": "",
          "type": "string"
        }
      ],
      "name": "balances",
      "outputs": [
        {
          "internalType": "uint256",
          "name": "",
          "type": "uint256"
        }
      ],
      "stateMutability": "view",
      "type": "function"
    },
    {
      "inputs": [
        {
          "internalType": "string",
          "name": "",
          "type": "string"
        },
        {
          "internalType": "string",
          "name": "",
          "type": "string"
        }
      ],
      "name": "buyerIDs",
      "outputs": [
        {
          "internalType": "string",
          "name": "",
          "type": "string"
        }
      ],
      "stateMutability": "view",
      "type": "function"
    },
    {
      "inputs": [
        {
          "internalType": "string",
          "name": "",
          "type": "string"
        },
        {
          "internalType": "string",
          "name": "",
          "type": "string"
        }
      ],
      "name": "buyerNames",
      "outputs": [
        {
          "internalType": "string",
          "name": "",
          "type": "string"
        }
      ],
      "stateMutability": "view",
      "type": "function"
    },
    {
      "inputs": [
        {
          "internalType": "string",
          "name": "",
          "type": "string"
        },
        {
          "internalType": "string",
          "name": "",
          "type": "string"
        }
      ],
      "name": "financerIDs",
      "outputs": [
        {
          "internalType": "string",
          "name": "",
          "type": "string"
        }
      ],
      "stateMutability": "view",
      "type": "function"
    },
    {
      "inputs": [
        {
          "internalType": "bytes32",
          "name": "",
          "type": "bytes32"
        },
        {
          "internalType": "string",
          "name": "",
          "type": "string"
        }
      ],
      "name": "fundedInt",
      "outputs": [
        {
          "internalType": "string",
          "name": "",
          "type": "string"
        }
      ],
      "stateMutability": "view",
      "type": "function"
    },
    {
      "inputs": [],
      "name": "owner",
      "outputs": [
        {
          "internalType": "address",
          "name": "",
          "type": "address"
        }
      ],
      "stateMutability": "view",
      "type": "function"
    },
    {
      "inputs": [
        {
          "internalType": "string",
          "name": "",
          "type": "string"
        }
      ],
      "name": "ownersByTokenName",
      "outputs": [
        {
          "internalType": "address",
          "name": "",
          "type": "address"
        }
      ],
      "stateMutability": "view",
      "type": "function"
    },
    {
      "inputs": [
        {
          "internalType": "string",
          "name": "",
          "type": "string"
        },
        {
          "internalType": "string",
          "name": "",
          "type": "string"
        }
      ],
      "name": "supplierIDs",
      "outputs": [
        {
          "internalType": "string",
          "name": "",
          "type": "string"
        }
      ],
      "stateMutability": "view",
      "type": "function"
    },
    {
      "inputs": [
        {
          "internalType": "string",
          "name": "",
          "type": "string"
        },
        {
          "internalType": "string",
          "name": "",
          "type": "string"
        }
      ],
      "name": "supplierNames",
      "outputs": [
        {
          "internalType": "string",
          "name": "",
          "type": "string"
        }
      ],
      "stateMutability": "view",
      "type": "function"
    },
    {
      "inputs": [
        {
          "internalType": "string",
          "name": "",
          "type": "string"
        },
        {
          "internalType": "string",
          "name": "",
          "type": "string"
        }
      ],
      "name": "tenderDates",
      "outputs": [
        {
          "internalType": "string",
          "name": "",
          "type": "string"
        }
      ],
      "stateMutability": "view",
      "type": "function"
    },
    {
      "inputs": [
        {
          "internalType": "string",
          "name": "",
          "type": "string"
        },
        {
          "internalType": "string",
          "name": "",
          "type": "string"
        }
      ],
      "name": "tenderNos",
      "outputs": [
        {
          "internalType": "string",
          "name": "",
          "type": "string"
        }
      ],
      "stateMutability": "view",
      "type": "function"
    },
    {
      "inputs": [],
      "name": "tokensAvailable",
      "outputs": [
        {
          "internalType": "uint256",
          "name": "",
          "type": "uint256"
        }
      ],
      "stateMutability": "view",
      "type": "function"
    },
    {
      "inputs": [],
      "name": "totalSupply",
      "outputs": [
        {
          "internalType": "uint256",
          "name": "",
          "type": "uint256"
        }
      ],
      "stateMutability": "view",
      "type": "function"
    },
    {
      "inputs": [
        {
          "internalType": "string",
          "name": "tokenName",
          "type": "string"
        },
        {
          "internalType": "uint256",
          "name": "amount",
          "type": "uint256"
        }
      ],
      "name": "mint",
      "outputs": [],
      "stateMutability": "nonpayable",
      "type": "function"
    },
    {
      "inputs": [
        {
          "internalType": "string",
          "name": "tokenName",
          "type": "string"
        },
        {
          "internalType": "uint256",
          "name": "amount",
          "type": "uint256"
        }
      ],
      "name": "purchase",
      "outputs": [],
      "stateMutability": "payable",
      "type": "function"
    },
    {
      "inputs": [
        {
          "internalType": "string",
          "name": "awardID",
          "type": "string"
        },
        {
          "internalType": "string",
          "name": "buyerID",
          "type": "string"
        },
        {
          "internalType": "string",
          "name": "supplierID",
          "type": "string"
        },
        {
          "internalType": "uint256",
          "name": "awardAmount",
          "type": "uint256"
        },
        {
          "internalType": "string",
          "name": "award_Doc_IPFS_URL",
          "type": "string"
        },
        {
          "internalType": "string",
          "name": "award_Doc_Hash",
          "type": "string"
        },
        {
          "internalType": "string",
          "name": "tenderNo",
          "type": "string"
        },
        {
          "internalType": "string",
          "name": "tenderDate",
          "type": "string"
        },
        {
          "internalType": "string",
          "name": "buyerName",
          "type": "string"
        },
        {
          "internalType": "string",
          "name": "supplierName",
          "type": "string"
        }
      ],
      "name": "WriteData",
      "outputs": [],
      "stateMutability": "nonpayable",
      "type": "function"
    },
    {
      "inputs": [
        {
          "internalType": "string",
          "name": "awardID",
          "type": "string"
        }
      ],
      "name": "getData",
      "outputs": [
        {
          "internalType": "uint256",
          "name": "amount",
          "type": "uint256"
        },
        {
          "internalType": "string",
          "name": "supplierID",
          "type": "string"
        },
        {
          "internalType": "uint256",
          "name": "awardAmount",
          "type": "uint256"
        },
        {
          "internalType": "string",
          "name": "award_Doc_Hash",
          "type": "string"
        },
        {
          "internalType": "string",
          "name": "financerID",
          "type": "string"
        },
        {
          "internalType": "string",
          "name": "funded_int",
          "type": "string"
        }
      ],
      "stateMutability": "view",
      "type": "function"
    },
    {
      "inputs": [
        {
          "internalType": "address",
          "name": "account",
          "type": "address"
        },
        {
          "internalType": "string",
          "name": "tokenName",
          "type": "string"
        }
      ],
      "name": "getBalance",
      "outputs": [
        {
          "internalType": "uint256",
          "name": "",
          "type": "uint256"
        }
      ],
      "stateMutability": "view",
      "type": "function"
    }
  ],
  "bytecode": "0x608060405234801561001057600080fd5b50600080546001600160a01b031916339081179091556103e8600181905560025560405166191959985d5b1d60ca1b8152600490600701908152604080516020928190038301812080546001600160a01b0319166001600160a01b039586161790556001546000805490951685526003909352922066191959985d5b1d60ca1b8352909160070190815260405190819003602001902055611cf2806100b66000396000f3fe6080604052600436106101355760003560e01c806366f857f4116100ab5780639ef00bd31161006f5780639ef00bd3146103df578063a49353d214610417578063aa38e38c14610437578063ae55c8881461044a578063b0118a611461047c578063bef269201461049c57600080fd5b806366f857f41461033f5780636b11fbbb1461035f57806387de20ca1461037f5780638da5cb5b1461039f57806391402e28146103bf57600080fd5b8063190271df116100fd578063190271df1461021b578063195b8743146102745780631dd7cecf146102945780631e87ba05146102b45780634286d01e146102d457806360659a921461032957600080fd5b8063056b01ce1461013a57806305d01f501461015c5780630f3f74d7146101b8578063146cfca4146101e557806318160ddd14610205575b600080fd5b34801561014657600080fd5b5061015a610155366004611782565b6104bc565b005b34801561016857600080fd5b506101a56101773660046116c1565b6003602090815260009283526040909220815180830184018051928152908401929093019190912091525481565b6040519081526020015b60405180910390f35b3480156101c457600080fd5b506101d86101d336600461180b565b61070e565b6040516101af9190611a66565b3480156101f157600080fd5b5061015a610200366004611865565b6107d0565b34801561021157600080fd5b506101a560015481565b34801561022757600080fd5b5061025c6102363660046117ce565b80516020818301810180516004825292820191909301209152546001600160a01b031681565b6040516001600160a01b0390911681526020016101af565b34801561028057600080fd5b506101d861028f36600461180b565b610be8565b3480156102a057600080fd5b506101a56102af36600461166e565b610c29565b3480156102c057600080fd5b506101d86102cf36600461180b565b610c69565b3480156102e057600080fd5b506101a56102ef36600461180b565b8151602081840181018051600b82529282019482019490942091909352815180830184018051928152908401929093019190912091525481565b34801561033557600080fd5b506101a560025481565b34801561034b57600080fd5b506101d861035a36600461170f565b610caa565b34801561036b57600080fd5b506101d861037a36600461180b565b610cdf565b34801561038b57600080fd5b506101d861039a36600461180b565b610d20565b3480156103ab57600080fd5b5060005461025c906001600160a01b031681565b3480156103cb57600080fd5b506101d86103da36600461180b565b610d61565b3480156103eb57600080fd5b506101a56103fa3660046117ce565b805160208183018101805160058252928201919093012091525481565b34801561042357600080fd5b506101d861043236600461180b565b610da2565b61015a610445366004611782565b610de3565b34801561045657600080fd5b5061046a610465366004611740565b611081565b6040516101af96959493929190611b71565b34801561048857600080fd5b506101d861049736600461180b565b611461565b3480156104a857600080fd5b506101d86104b736600461180b565b6114a2565b6000546001600160a01b031633146105295760405162461bcd60e51b815260206004820152602560248201527f4f6e6c7920746865206f776e65722063616e2063616c6c20746869732066756e60448201526431ba34b7b760d91b60648201526084015b60405180910390fd5b80600254101561058b5760405162461bcd60e51b815260206004820152602760248201527f4e6f7420656e6f75676820746f6b656e7320617661696c61626c6520666f72206044820152666d696e74696e6760c81b6064820152608401610520565b60006001600160a01b0316600484846040516105a8929190611a01565b908152604051908190036020019020546001600160a01b03161415610619576000546040516001600160a01b03909116906004906105e99086908690611a01565b90815260405190819003602001902080546001600160a01b03929092166001600160a01b03199092169190911790555b806003600060048686604051610630929190611a01565b9081526040805160209281900383019020546001600160a01b0316835290820192909252810160002090516106689086908690611a01565b908152602001604051809103902060008282546106859190611bd7565b92505081905550806002600082825461069e9190611c0e565b90915550506040516004906106b69085908590611a01565b908152604051908190036020018120546001600160a01b0316907fb1b87c085f38f5c59007e65f6928950029cea43f05db762297f7eab488d5418c9061070190869086908690611a2d565b60405180910390a2505050565b815160208184018101805160098252928201948201949094209190935281518083018401805192815290840192909301919091209152805461074f90611c55565b80601f016020809104026020016040519081016040528092919081815260200182805461077b90611c55565b80156107c85780601f1061079d576101008083540402835291602001916107c8565b820191906000526020600020905b8154815290600101906020018083116107ab57829003601f168201915b505050505081565b60408051808201825260038082526208884b60eb1b60208084019190915233600090815291905282812092519192909161080b908490611a11565b908152602001604051809103902054116108725760405162461bcd60e51b815260206004820152602260248201527f596f7520646f206e6f74206861766520616e7920746f6b656e7320746f206275604482015261393760f11b6064820152608401610520565b3360009081526003602052604090819020905160019190610894908490611a11565b908152602001604051809103902060008282546108b19190611c0e565b925050819055506001600260008282546108cb9190611bd7565b92505081905550896009826040516108e39190611a11565b90815260200160405180910390208c6040516108ff9190611a11565b908152602001604051809103902090805190602001906109209291906114e3565b5088600a826040516109329190611a11565b90815260200160405180910390208c60405161094e9190611a11565b9081526020016040518091039020908051906020019061096f9291906114e3565b5087600b826040516109819190611a11565b90815260200160405180910390208c60405161099d9190611a11565b908152602001604051809103902081905550866008826040516109c09190611a11565b90815260200160405180910390208c6040516109dc9190611a11565b908152602001604051809103902090805190602001906109fd9291906114e3565b5085600c82604051610a0f9190611a11565b90815260200160405180910390208c604051610a2b9190611a11565b90815260200160405180910390209080519060200190610a4c9291906114e3565b5084600682604051610a5e9190611a11565b90815260200160405180910390208c604051610a7a9190611a11565b90815260200160405180910390209080519060200190610a9b9291906114e3565b5083600782604051610aad9190611a11565b90815260200160405180910390208c604051610ac99190611a11565b90815260200160405180910390209080519060200190610aea9291906114e3565b5082600f82604051610afc9190611a11565b90815260200160405180910390208c604051610b189190611a11565b90815260200160405180910390209080519060200190610b399291906114e3565b5081601082604051610b4b9190611a11565b90815260200160405180910390208c604051610b679190611a11565b90815260200160405180910390209080519060200190610b889291906114e3565b50336001600160a01b03167f861dd676a488bb77281c20f00f0eca665263ad11a2ec446c83bd9abba14f89648260018e8e8e8e8d8d8d604051610bd399989796959493929190611a80565b60405180910390a25050505050505050505050565b8151602081840181018051600c8252928201948201949094209190935281518083018401805192815290840192909301919091209152805461074f90611c55565b6001600160a01b0383166000908152600360205260408082209051610c519085908590611a01565b90815260200160405180910390205490509392505050565b815160208184018101805160088252928201948201949094209190935281518083018401805192815290840192909301919091209152805461074f90611c55565b600e60209081526000928352604090922081518083018401805192815290840192909301919091209152805461074f90611c55565b815160208184018101805160078252928201948201949094209190935281518083018401805192815290840192909301919091209152805461074f90611c55565b815160208184018101805160068252928201948201949094209190935281518083018401805192815290840192909301919091209152805461074f90611c55565b8151602081840181018051600a8252928201948201949094209190935281518083018401805192815290840192909301919091209152805461074f90611c55565b815160208184018101805160108252928201948201949094209190935281518083018401805192815290840192909301919091209152805461074f90611c55565b60008111610e425760405162461bcd60e51b815260206004820152602660248201527f507572636861736520616d6f756e74206d75737420626520677265617465722060448201526507468616e20360d41b6064820152608401610520565b806003600060048686604051610e59929190611a01565b9081526040805160209281900383019020546001600160a01b031683529082019290925281016000209051610e919086908690611a01565b9081526020016040518091039020541015610ebe5760405162461bcd60e51b815260040161052090611b29565b610ec9816000611bef565b3414610f175760405162461bcd60e51b815260206004820152601b60248201527f496e636f727265637420457468657220616d6f756e742073656e7400000000006044820152606401610520565b806002541015610f395760405162461bcd60e51b815260040161052090611b29565b806003600060048686604051610f50929190611a01565b9081526040805160209281900383019020546001600160a01b031683529082019290925281016000209051610f889086908690611a01565b90815260200160405180910390206000828254610fa59190611c0e565b909155505033600090815260036020526040908190209051829190610fcd9086908690611a01565b90815260200160405180910390206000828254610fea9190611bd7565b90915550506040516004906110029085908590611a01565b908152604051908190036020018120546001600160a01b0316903480156108fc02916000818181858888f19350505050158015611043573d6000803e3d6000fd5b50336001600160a01b03167f25748cfd0e365be64ddc23a17740b66c3c84e41a3f32027f9edbddde67cc672084848460405161070193929190611a2d565b600060606000606080606060006040518060400160405280600381526020016208884b60eb1b8152509050600089896040516020016110c1929190611a01565b60408051601f1981840301815282825280516020918201203360009081526003909252919020909250906110f6908490611a11565b9081526020016040518091039020549750600a826040516111179190611a11565b90815260200160405180910390208a8a604051611135929190611a01565b9081526020016040518091039020805461114e90611c55565b80601f016020809104026020016040519081016040528092919081815260200182805461117a90611c55565b80156111c75780601f1061119c576101008083540402835291602001916111c7565b820191906000526020600020905b8154815290600101906020018083116111aa57829003601f168201915b50505050509650600b826040516111de9190611a11565b90815260200160405180910390208a8a6040516111fc929190611a01565b9081526020016040518091039020549550600c8260405161121d9190611a11565b90815260200160405180910390208a8a60405161123b929190611a01565b9081526020016040518091039020805461125490611c55565b80601f016020809104026020016040519081016040528092919081815260200182805461128090611c55565b80156112cd5780601f106112a2576101008083540402835291602001916112cd565b820191906000526020600020905b8154815290600101906020018083116112b057829003601f168201915b50505050509450600d826040516112e49190611a11565b90815260200160405180910390208a8a604051611302929190611a01565b9081526020016040518091039020805461131b90611c55565b80601f016020809104026020016040519081016040528092919081815260200182805461134790611c55565b80156113945780601f1061136957610100808354040283529160200191611394565b820191906000526020600020905b81548152906001019060200180831161137757829003601f168201915b50505050509350600e6000828152602001908152602001600020826040516113bc9190611a11565b908152602001604051809103902080546113d590611c55565b80601f016020809104026020016040519081016040528092919081815260200182805461140190611c55565b801561144e5780601f106114235761010080835404028352916020019161144e565b820191906000526020600020905b81548152906001019060200180831161143157829003601f168201915b5050505050925050509295509295509295565b8151602081840181018051600f8252928201948201949094209190935281518083018401805192815290840192909301919091209152805461074f90611c55565b8151602081840181018051600d8252928201948201949094209190935281518083018401805192815290840192909301919091209152805461074f90611c55565b8280546114ef90611c55565b90600052602060002090601f0160209004810192826115115760008555611557565b82601f1061152a57805160ff1916838001178555611557565b82800160010185558215611557579182015b8281111561155757825182559160200191906001019061153c565b50611563929150611567565b5090565b5b808211156115635760008155600101611568565b80356001600160a01b038116811461159357600080fd5b919050565b60008083601f8401126115aa57600080fd5b50813567ffffffffffffffff8111156115c257600080fd5b6020830191508360208285010111156115da57600080fd5b9250929050565b600082601f8301126115f257600080fd5b813567ffffffffffffffff8082111561160d5761160d611ca6565b604051601f8301601f19908116603f0116810190828211818310171561163557611635611ca6565b8160405283815286602085880101111561164e57600080fd5b836020870160208301376000602085830101528094505050505092915050565b60008060006040848603121561168357600080fd5b61168c8461157c565b9250602084013567ffffffffffffffff8111156116a857600080fd5b6116b486828701611598565b9497909650939450505050565b600080604083850312156116d457600080fd5b6116dd8361157c565b9150602083013567ffffffffffffffff8111156116f957600080fd5b611705858286016115e1565b9150509250929050565b6000806040838503121561172257600080fd5b82359150602083013567ffffffffffffffff8111156116f957600080fd5b6000806020838503121561175357600080fd5b823567ffffffffffffffff81111561176a57600080fd5b61177685828601611598565b90969095509350505050565b60008060006040848603121561179757600080fd5b833567ffffffffffffffff8111156117ae57600080fd5b6117ba86828701611598565b909790965060209590950135949350505050565b6000602082840312156117e057600080fd5b813567ffffffffffffffff8111156117f757600080fd5b611803848285016115e1565b949350505050565b6000806040838503121561181e57600080fd5b823567ffffffffffffffff8082111561183657600080fd5b611842868387016115e1565b9350602085013591508082111561185857600080fd5b50611705858286016115e1565b6000806000806000806000806000806101408b8d03121561188557600080fd5b8a3567ffffffffffffffff8082111561189d57600080fd5b6118a98e838f016115e1565b9b5060208d01359150808211156118bf57600080fd5b6118cb8e838f016115e1565b9a5060408d01359150808211156118e157600080fd5b6118ed8e838f016115e1565b995060608d0135985060808d013591508082111561190a57600080fd5b6119168e838f016115e1565b975060a08d013591508082111561192c57600080fd5b6119388e838f016115e1565b965060c08d013591508082111561194e57600080fd5b61195a8e838f016115e1565b955060e08d013591508082111561197057600080fd5b61197c8e838f016115e1565b94506101008d013591508082111561199357600080fd5b61199f8e838f016115e1565b93506101208d01359150808211156119b657600080fd5b506119c38d828e016115e1565b9150509295989b9194979a5092959850565b600081518084526119ed816020860160208601611c25565b601f01601f19169290920160200192915050565b8183823760009101908152919050565b60008251611a23818460208701611c25565b9190910192915050565b604081528260408201528284606083013760006060848301015260006060601f19601f8601168301019050826020830152949350505050565b602081526000611a7960208301846119d5565b9392505050565b6000610120808352611a948184018d6119d5565b90508a60208401528281036040840152611aae818b6119d5565b90508281036060840152611ac2818a6119d5565b90508281036080840152611ad681896119d5565b90508660a084015282810360c0840152611af081876119d5565b905082810360e0840152611b0481866119d5565b9050828103610100840152611b1981856119d5565b9c9b505050505050505050505050565b60208082526028908201527f4e6f7420656e6f75676820746f6b656e7320617661696c61626c6520666f7220604082015267707572636861736560c01b606082015260800190565b86815260c060208201526000611b8a60c08301886119d5565b8660408401528281036060840152611ba281876119d5565b90508281036080840152611bb681866119d5565b905082810360a0840152611bca81856119d5565b9998505050505050505050565b60008219821115611bea57611bea611c90565b500190565b6000816000190483118215151615611c0957611c09611c90565b500290565b600082821015611c2057611c20611c90565b500390565b60005b83811015611c40578181015183820152602001611c28565b83811115611c4f576000848401525b50505050565b600181811c90821680611c6957607f821691505b60208210811415611c8a57634e487b7160e01b600052602260045260246000fd5b50919050565b634e487b7160e01b600052601160045260246000fd5b634e487b7160e01b600052604160045260246000fdfea2646970667358221220d685f4719c2f0130e4faa11800bea9c9c18631cedb67ba611beac6e3ee3120ef64736f6c63430008050033",
  "immutableReferences": {},
  "source": "// SPDX-License-Identifier: MIT\r\npragma solidity ^0.8.0;\r\n\r\ncontract TokenSaleContract {\r\n    address public owner;\r\n    uint256 public totalSupply;\r\n    uint256 public tokensAvailable;\r\n\r\n    mapping(address => mapping(string => uint256)) public balances;\r\n    mapping(string => address) public ownersByTokenName;\r\n    mapping(string => bytes32) public awardIDByTokenName;\r\n    \r\n    // Additional mappings for TenderNo and TenderDate\r\n    mapping(string => mapping(string => string)) public tenderNos;\r\n    mapping(string => mapping(string => string)) public tenderDates;\r\n    mapping(string => mapping(string => string)) public awardDocIPFSURLs;\r\n\r\n    event TokensMinted(address indexed owner, string tokenName, uint256 amount);\r\n    event TokensPurchased(address indexed buyer, string tokenName, uint256 amount);\r\n    event TokensBurned(address indexed owner, string tokenName, uint256 amount, string awardID, string buyerID, string supplierID, uint256 awardAmount, string award_Doc_Hash, string tenderNo, string tenderDate);\r\n    \r\n    // Assume you have additional mappings to store buyerID, supplierID, awardAmount, awardDocHash, financerID, and fundedInt\r\n    mapping(string => mapping(string => string)) public buyerIDs;\r\n    mapping(string => mapping(string => string)) public supplierIDs;\r\n    mapping(string => mapping(string => uint256)) public awardAmounts;\r\n    mapping(string => mapping(string => string)) public awardDocHashes;\r\n    mapping(string => mapping(string => string)) public financerIDs;\r\n    mapping(bytes32 => mapping(string => string)) public fundedInt;\r\n    mapping(string => mapping(string => string)) public buyerNames;\r\n    mapping(string => mapping(string => string)) public supplierNames;\r\n\r\n    modifier onlyOwner() {\r\n        require(msg.sender == owner, \"Only the owner can call this function\");\r\n        _;\r\n    }\r\n\r\n    constructor() {\r\n        owner = msg.sender;\r\n        totalSupply = 1000;\r\n        tokensAvailable = totalSupply;\r\n        ownersByTokenName[\"default\"] = owner;\r\n        balances[owner][\"default\"] = totalSupply;\r\n    }\r\n\r\n    function mint(string calldata tokenName, uint256 amount) external onlyOwner {\r\n        require(tokensAvailable >= amount, \"Not enough tokens available for minting\");\r\n        \r\n        // If the token name is not registered, associate it with the owner\r\n        if (ownersByTokenName[tokenName] == address(0)) {\r\n            ownersByTokenName[tokenName] = owner;\r\n        }\r\n\r\n        // Mint tokens to the specified owner and token name\r\n        balances[ownersByTokenName[tokenName]][tokenName] += amount;\r\n        tokensAvailable -= amount;\r\n\r\n        emit TokensMinted(ownersByTokenName[tokenName], tokenName, amount);\r\n    }\r\n\r\n    function purchase(string calldata tokenName, uint256 amount) external payable {\r\n        require(amount > 0, \"Purchase amount must be greater than 0\");\r\n        require(balances[ownersByTokenName[tokenName]][tokenName] >= amount, \"Not enough tokens available for purchase\");\r\n        require(msg.value == amount * 0 ether, \"Incorrect Ether amount sent\");\r\n        require(tokensAvailable >= amount, \"Not enough tokens available for purchase\");\r\n\r\n        // Transfer tokens from owner to buyer\r\n        balances[ownersByTokenName[tokenName]][tokenName] -= amount;\r\n        balances[msg.sender][tokenName] += amount;\r\n\r\n        // Transfer Ether to owner\r\n        payable(ownersByTokenName[tokenName]).transfer(msg.value);\r\n\r\n        emit TokensPurchased(msg.sender, tokenName, amount);\r\n    }\r\n\r\n    // New function to burn tokens and write data to the blockchain\r\n    function WriteData(\r\n        string memory awardID,\r\n        string memory buyerID,\r\n        string memory supplierID,\r\n        uint256 awardAmount,\r\n        string memory award_Doc_IPFS_URL,\r\n        string memory award_Doc_Hash,\r\n        string memory tenderNo,\r\n        string memory tenderDate,\r\n        string memory buyerName,\r\n        string memory supplierName\r\n    ) external {\r\n        string memory tokenName = \"DBX\"; // Default token name\r\n\r\n        // Ensure the caller has at least one token to burn\r\n        require(balances[msg.sender][tokenName] > 0, \"You do not have any tokens to burn\");\r\n\r\n        // Burn one token\r\n        balances[msg.sender][tokenName] -= 1;\r\n        tokensAvailable += 1;\r\n\r\n        // Store data including TenderNo and TenderDate\r\n        buyerIDs[tokenName][awardID] = buyerID;\r\n        supplierIDs[tokenName][awardID] = supplierID;\r\n        awardAmounts[tokenName][awardID] = awardAmount;\r\n        awardDocIPFSURLs[tokenName][awardID] = award_Doc_IPFS_URL;\r\n        awardDocHashes[tokenName][awardID] = award_Doc_Hash;\r\n        tenderNos[tokenName][awardID] = tenderNo;\r\n        tenderDates[tokenName][awardID] = tenderDate;\r\n        buyerNames[tokenName][awardID] = buyerName;\r\n        supplierNames[tokenName][awardID] = supplierName;\r\n\r\n        // Emit event for the burned token\r\n        emit TokensBurned(msg.sender, tokenName, 1, awardID, buyerID, supplierID, awardAmount, award_Doc_Hash, tenderNo, tenderDate);\r\n    }\r\n\r\n    function getData(string calldata awardID) external view returns (\r\n        uint256 amount,\r\n        string memory supplierID,\r\n        uint256 awardAmount,\r\n        string memory award_Doc_Hash,\r\n        string memory financerID,\r\n        string memory funded_int\r\n    ) {\r\n        string memory tokenName = \"DBX\"; // Default token name\r\n        bytes32 hashedAwardID = keccak256(abi.encodePacked(awardID));\r\n\r\n        // Retrieve data based on tokenName and awardID\r\n        amount = balances[msg.sender][tokenName];\r\n        supplierID = supplierIDs[tokenName][awardID];\r\n        awardAmount = awardAmounts[tokenName][awardID];\r\n        award_Doc_Hash = awardDocHashes[tokenName][awardID];\r\n        financerID = financerIDs[tokenName][awardID];\r\n        funded_int = fundedInt[hashedAwardID][tokenName];\r\n    }\r\n    \r\n    function getBalance(address account, string calldata tokenName) external view returns (uint256) {\r\n        return balances[account][tokenName];\r\n    }\r\n}\r\n",
  "sourcePath": "C:\\Users\\ACER\\Documents\\GitHub\\TokenExchange\\Truffle\\contracts\\DBXContracts.sol",
  "compiler": {
    "name": "solc",
    "version": "0.8.5+commit.a4f2e591.Emscripten.clang"
  },
  "schemaVersion": "3.4.16",
  "updatedAt": "2024-05-08T08:04:24.888Z",
  "devdoc": {
    "kind": "dev",
    "methods": {},
    "version": 1
  },
  "userdoc": {
    "kind": "user",
    "methods": {},
    "version": 1
  }
}