{"contracts/PurchaseContract.sol":{"TokenSaleContract":{"abi":[{"inputs":[],"stateMutability":"nonpayable","type":"constructor"},{"anonymous":false,"inputs":[{"indexed":true,"internalType":"address","name":"updater","type":"address"},{"indexed":false,"internalType":"string","name":"tokenName","type":"string"},{"indexed":false,"internalType":"uint256","name":"newFundedInt","type":"uint256"},{"indexed":false,"internalType":"bytes32","name":"hashedAwardID","type":"bytes32"}],"name":"FundedIntUpdated","type":"event"},{"anonymous":false,"inputs":[{"indexed":true,"internalType":"address","name":"owner","type":"address"},{"indexed":false,"internalType":"string","name":"tokenName","type":"string"},{"indexed":false,"internalType":"uint256","name":"amount","type":"uint256"},{"indexed":false,"internalType":"string","name":"awardID","type":"string"},{"indexed":false,"internalType":"string","name":"buyerID","type":"string"},{"indexed":false,"internalType":"string","name":"supplierID","type":"string"},{"indexed":false,"internalType":"uint256","name":"awardAmount","type":"uint256"},{"indexed":false,"internalType":"uint256","name":"award_Doc_Hash","type":"uint256"},{"indexed":false,"internalType":"string","name":"financerID","type":"string"},{"indexed":false,"internalType":"uint256","name":"funded_int","type":"uint256"}],"name":"TokensBurned","type":"event"},{"anonymous":false,"inputs":[{"indexed":true,"internalType":"address","name":"owner","type":"address"},{"indexed":false,"internalType":"string","name":"tokenName","type":"string"},{"indexed":false,"internalType":"uint256","name":"amount","type":"uint256"}],"name":"TokensMinted","type":"event"},{"anonymous":false,"inputs":[{"indexed":true,"internalType":"address","name":"buyer","type":"address"},{"indexed":false,"internalType":"string","name":"tokenName","type":"string"},{"indexed":false,"internalType":"uint256","name":"amount","type":"uint256"}],"name":"TokensPurchased","type":"event"},{"inputs":[{"internalType":"string","name":"tokenName","type":"string"},{"internalType":"uint256","name":"amount","type":"uint256"},{"internalType":"string","name":"awardID","type":"string"},{"internalType":"string","name":"buyerID","type":"string"},{"internalType":"string","name":"supplierID","type":"string"},{"internalType":"uint256","name":"awardAmount","type":"uint256"},{"internalType":"uint256","name":"award_Doc_Hash","type":"uint256"},{"internalType":"string","name":"financerID","type":"string"},{"internalType":"uint256","name":"funded_int","type":"uint256"}],"name":"WriteData","outputs":[],"stateMutability":"nonpayable","type":"function"},{"inputs":[{"internalType":"string","name":"","type":"string"},{"internalType":"string","name":"","type":"string"}],"name":"awardAmounts","outputs":[{"internalType":"uint256","name":"","type":"uint256"}],"stateMutability":"view","type":"function"},{"inputs":[{"internalType":"string","name":"","type":"string"},{"internalType":"string","name":"","type":"string"}],"name":"awardDocHashes","outputs":[{"internalType":"uint256","name":"","type":"uint256"}],"stateMutability":"view","type":"function"},{"inputs":[{"internalType":"string","name":"","type":"string"}],"name":"awardIDByTokenName","outputs":[{"internalType":"bytes32","name":"","type":"bytes32"}],"stateMutability":"view","type":"function"},{"inputs":[{"internalType":"address","name":"","type":"address"},{"internalType":"string","name":"","type":"string"}],"name":"balances","outputs":[{"internalType":"uint256","name":"","type":"uint256"}],"stateMutability":"view","type":"function"},{"inputs":[{"internalType":"string","name":"","type":"string"},{"internalType":"string","name":"","type":"string"}],"name":"buyerIDs","outputs":[{"internalType":"string","name":"","type":"string"}],"stateMutability":"view","type":"function"},{"inputs":[],"name":"callFunction","outputs":[{"internalType":"string","name":"","type":"string"},{"internalType":"uint256","name":"","type":"uint256"}],"stateMutability":"view","type":"function"},{"inputs":[{"internalType":"string","name":"awardID","type":"string"},{"internalType":"address","name":"thirdPerson","type":"address"}],"name":"designateThirdPerson","outputs":[],"stateMutability":"nonpayable","type":"function"},{"inputs":[{"internalType":"string","name":"","type":"string"},{"internalType":"string","name":"","type":"string"}],"name":"financerIDs","outputs":[{"internalType":"string","name":"","type":"string"}],"stateMutability":"view","type":"function"},{"inputs":[{"internalType":"bytes32","name":"","type":"bytes32"},{"internalType":"string","name":"","type":"string"}],"name":"fundedInt","outputs":[{"internalType":"uint256","name":"","type":"uint256"}],"stateMutability":"view","type":"function"},{"inputs":[{"internalType":"address","name":"account","type":"address"},{"internalType":"string","name":"tokenName","type":"string"}],"name":"getBalance","outputs":[{"internalType":"uint256","name":"","type":"uint256"}],"stateMutability":"view","type":"function"},{"inputs":[{"internalType":"string","name":"tokenName","type":"string"},{"internalType":"string","name":"awardID","type":"string"}],"name":"getData","outputs":[{"internalType":"uint256","name":"amount","type":"uint256"},{"internalType":"string","name":"buyerID","type":"string"},{"internalType":"string","name":"supplierID","type":"string"},{"internalType":"uint256","name":"awardAmount","type":"uint256"},{"internalType":"uint256","name":"award_Doc_Hash","type":"uint256"},{"internalType":"string","name":"financerID","type":"string"},{"internalType":"uint256","name":"funded_int","type":"uint256"}],"stateMutability":"view","type":"function"},{"inputs":[],"name":"getNumber","outputs":[{"internalType":"uint256","name":"","type":"uint256"}],"stateMutability":"pure","type":"function"},{"inputs":[{"internalType":"string","name":"tokenName","type":"string"}],"name":"getOwnerByTokenName","outputs":[{"internalType":"address","name":"","type":"address"}],"stateMutability":"view","type":"function"},{"inputs":[],"name":"getTotalSupply","outputs":[{"internalType":"uint256","name":"","type":"uint256"}],"stateMutability":"view","type":"function"},{"inputs":[{"internalType":"string","name":"tokenName","type":"string"},{"internalType":"uint256","name":"amount","type":"uint256"}],"name":"mint","outputs":[],"stateMutability":"nonpayable","type":"function"},{"inputs":[],"name":"myFunction","outputs":[{"internalType":"uint256","name":"","type":"uint256"},{"internalType":"string","name":"","type":"string"}],"stateMutability":"view","type":"function"},{"inputs":[],"name":"owner","outputs":[{"internalType":"address","name":"","type":"address"}],"stateMutability":"view","type":"function"},{"inputs":[{"internalType":"string","name":"","type":"string"}],"name":"ownersByTokenName","outputs":[{"internalType":"address","name":"","type":"address"}],"stateMutability":"view","type":"function"},{"inputs":[{"internalType":"string","name":"tokenName","type":"string"},{"internalType":"uint256","name":"amount","type":"uint256"}],"name":"purchase","outputs":[],"stateMutability":"payable","type":"function"},{"inputs":[{"internalType":"string","name":"","type":"string"},{"internalType":"string","name":"","type":"string"}],"name":"supplierIDs","outputs":[{"internalType":"string","name":"","type":"string"}],"stateMutability":"view","type":"function"},{"inputs":[{"internalType":"bytes32","name":"","type":"bytes32"}],"name":"thirdPersonByAwardID","outputs":[{"internalType":"address","name":"","type":"address"}],"stateMutability":"view","type":"function"},{"inputs":[],"name":"tokensAvailable","outputs":[{"internalType":"uint256","name":"","type":"uint256"}],"stateMutability":"view","type":"function"},{"inputs":[],"name":"totalSupply","outputs":[{"internalType":"uint256","name":"","type":"uint256"}],"stateMutability":"view","type":"function"},{"inputs":[{"internalType":"string","name":"tokenName","type":"string"},{"internalType":"string","name":"awardID","type":"string"},{"internalType":"uint256","name":"newFundedInt","type":"uint256"}],"name":"updateFundedInt","outputs":[],"stateMutability":"nonpayable","type":"function"}],"evm":{"bytecode":{"linkReferences":{},"object":"60806040523480156200001157600080fd5b50336000806101000a81548173ffffffffffffffffffffffffffffffffffffffff021916908373ffffffffffffffffffffffffffffffffffffffff160217905550620f424060018190555060015460028190555060008054906101000a900473ffffffffffffffffffffffffffffffffffffffff1660046040516200009690620001c6565b908152602001604051809103902060006101000a81548173ffffffffffffffffffffffffffffffffffffffff021916908373ffffffffffffffffffffffffffffffffffffffff160217905550600154600360008060009054906101000a900473ffffffffffffffffffffffffffffffffffffffff1673ffffffffffffffffffffffffffffffffffffffff1673ffffffffffffffffffffffffffffffffffffffff1681526020019081526020016000206040516200015390620001c6565b908152602001604051809103902081905550620001dd565b600081905092915050565b7f64656661756c7400000000000000000000000000000000000000000000000000600082015250565b6000620001ae6007836200016b565b9150620001bb8262000176565b600782019050919050565b6000620001d3826200019f565b9150819050919050565b6131dd80620001ed6000396000f3fe6080604052600436106101665760003560e01c80636f86ad39116100d1578063aa38e38c1161008a578063c3780a3a11610064578063c3780a3a146105ce578063c4e41b22146105fa578063f2c9ecd814610625578063f6706a5c1461065057610166565b8063aa38e38c14610549578063bedfc5a114610565578063bef269201461059157610166565b80636f86ad3914610401578063716474691461043e5780638da5cb5b1461047b57806391402e28146104a65780639e1e0b6e146104e35780639ef00bd31461050c57610166565b8063195b874311610123578063195b87431461029f5780631dd7cecf146102dc5780634286d01e14610319578063596ba5bb1461035657806360659a921461039957806366f857f4146103c457610166565b8063056b01ce1461016b57806305d01f50146101945780630f3f74d7146101d15780631335afbf1461020e57806318160ddd14610237578063190271df14610262575b600080fd5b34801561017757600080fd5b50610192600480360381019061018d9190611e48565b610679565b005b3480156101a057600080fd5b506101bb60048036038101906101b69190612047565b6109a4565b6040516101c891906120b2565b60405180910390f35b3480156101dd57600080fd5b506101f860048036038101906101f391906120cd565b6109df565b60405161020591906121c4565b60405180910390f35b34801561021a57600080fd5b50610235600480360381019061023091906121e6565b610ab8565b005b34801561024357600080fd5b5061024c610c59565b60405161025991906120b2565b60405180910390f35b34801561026e57600080fd5b5061028960048036038101906102849190612246565b610c5f565b604051610296919061229e565b60405180910390f35b3480156102ab57600080fd5b506102c660048036038101906102c191906120cd565b610ca8565b6040516102d391906120b2565b60405180910390f35b3480156102e857600080fd5b5061030360048036038101906102fe91906122b9565b610cf9565b60405161031091906120b2565b60405180910390f35b34801561032557600080fd5b50610340600480360381019061033b91906120cd565b610d62565b60405161034d91906120b2565b60405180910390f35b34801561036257600080fd5b5061037d60048036038101906103789190612319565b610db3565b604051610390979695949392919061239a565b60405180910390f35b3480156103a557600080fd5b506103ae61116b565b6040516103bb91906120b2565b60405180910390f35b3480156103d057600080fd5b506103eb60048036038101906103e69190612454565b611171565b6040516103f891906120b2565b60405180910390f35b34801561040d57600080fd5b50610428600480360381019061042391906124b0565b6111ac565b604051610435919061229e565b60405180910390f35b34801561044a57600080fd5b50610465600480360381019061046091906124dd565b6111df565b604051610472919061229e565b60405180910390f35b34801561048757600080fd5b5061049061122a565b60405161049d919061229e565b60405180910390f35b3480156104b257600080fd5b506104cd60048036038101906104c891906120cd565b61124e565b6040516104da91906121c4565b60405180910390f35b3480156104ef57600080fd5b5061050a6004803603810190610505919061252a565b611327565b005b34801561051857600080fd5b50610533600480360381019061052e9190612246565b6114fd565b60405161054091906125ce565b60405180910390f35b610563600480360381019061055e9190611e48565b61152b565b005b34801561057157600080fd5b5061057a6118ee565b6040516105889291906125e9565b60405180910390f35b34801561059d57600080fd5b506105b860048036038101906105b391906120cd565b61190d565b6040516105c591906121c4565b60405180910390f35b3480156105da57600080fd5b506105e36119e6565b6040516105f1929190612619565b60405180910390f35b34801561060657600080fd5b5061060f611a2b565b60405161061c91906120b2565b60405180910390f35b34801561063157600080fd5b5061063a611a35565b60405161064791906120b2565b60405180910390f35b34801561065c57600080fd5b5061067760048036038101906106729190612649565b611a3e565b005b60008054906101000a900473ffffffffffffffffffffffffffffffffffffffff1673ffffffffffffffffffffffffffffffffffffffff163373ffffffffffffffffffffffffffffffffffffffff1614610707576040517f08c379a00000000000000000000000000000000000000000000000000000000081526004016106fe90612816565b60405180910390fd5b80600254101561074c576040517f08c379a0000000000000000000000000000000000000000000000000000000008152600401610743906128a8565b60405180910390fd5b600073ffffffffffffffffffffffffffffffffffffffff16600484846040516107769291906128f8565b908152602001604051809103902060009054906101000a900473ffffffffffffffffffffffffffffffffffffffff1673ffffffffffffffffffffffffffffffffffffffff16036108405760008054906101000a900473ffffffffffffffffffffffffffffffffffffffff16600484846040516107f39291906128f8565b908152602001604051809103902060006101000a81548173ffffffffffffffffffffffffffffffffffffffff021916908373ffffffffffffffffffffffffffffffffffffffff1602179055505b8060036000600486866040516108579291906128f8565b908152602001604051809103902060009054906101000a900473ffffffffffffffffffffffffffffffffffffffff1673ffffffffffffffffffffffffffffffffffffffff1673ffffffffffffffffffffffffffffffffffffffff16815260200190815260200160002084846040516108d09291906128f8565b908152602001604051809103902060008282546108ed9190612940565b9250508190555080600260008282546109069190612974565b925050819055506004838360405161091f9291906128f8565b908152602001604051809103902060009054906101000a900473ffffffffffffffffffffffffffffffffffffffff1673ffffffffffffffffffffffffffffffffffffffff167fb1b87c085f38f5c59007e65f6928950029cea43f05db762297f7eab488d5418c848484604051610997939291906129d5565b60405180910390a2505050565b600360205281600052604060002081805160208101820180518482526020830160208501208183528095505050505050600091509150505481565b60068280516020810182018051848252602083016020850120818352809550505050505081805160208101820180518482526020830160208501208183528095505050505050600091509150508054610a3790612a36565b80601f0160208091040260200160405190810160405280929190818152602001828054610a6390612a36565b8015610ab05780601f10610a8557610100808354040283529160200191610ab0565b820191906000526020600020905b815481529060010190602001808311610a9357829003601f168201915b505050505081565b60008054906101000a900473ffffffffffffffffffffffffffffffffffffffff1673ffffffffffffffffffffffffffffffffffffffff163373ffffffffffffffffffffffffffffffffffffffff1614610b46576040517f08c379a0000000000000000000000000000000000000000000000000000000008152600401610b3d90612816565b60405180910390fd5b60008383604051602001610b5b9291906128f8565b60405160208183030381529060405280519060200120905060008054906101000a900473ffffffffffffffffffffffffffffffffffffffff1673ffffffffffffffffffffffffffffffffffffffff163373ffffffffffffffffffffffffffffffffffffffff1614610c01576040517f08c379a0000000000000000000000000000000000000000000000000000000008152600401610bf890612ad9565b60405180910390fd5b81600c600083815260200190815260200160002060006101000a81548173ffffffffffffffffffffffffffffffffffffffff021916908373ffffffffffffffffffffffffffffffffffffffff16021790555050505050565b60015481565b6004818051602081018201805184825260208301602085012081835280955050505050506000915054906101000a900473ffffffffffffffffffffffffffffffffffffffff1681565b60098280516020810182018051848252602083016020850120818352809550505050505081805160208101820180518482526020830160208501208183528095505050505050600091509150505481565b6000600360008573ffffffffffffffffffffffffffffffffffffffff1673ffffffffffffffffffffffffffffffffffffffff1681526020019081526020016000208383604051610d4a9291906128f8565b90815260200160405180910390205490509392505050565b60088280516020810182018051848252602083016020850120818352809550505050505081805160208101820180518482526020830160208501208183528095505050505050600091509150505481565b600060608060008060606000808989604051602001610dd39291906128f8565b604051602081830303815290604052805190602001209050600360003373ffffffffffffffffffffffffffffffffffffffff1673ffffffffffffffffffffffffffffffffffffffff1681526020019081526020016000208c8c604051610e3a9291906128f8565b908152602001604051809103902054975060068c8c604051610e5d9291906128f8565b90815260200160405180910390208a8a604051610e7b9291906128f8565b90815260200160405180910390208054610e9490612a36565b80601f0160208091040260200160405190810160405280929190818152602001828054610ec090612a36565b8015610f0d5780601f10610ee257610100808354040283529160200191610f0d565b820191906000526020600020905b815481529060010190602001808311610ef057829003601f168201915b5050505050965060078c8c604051610f269291906128f8565b90815260200160405180910390208a8a604051610f449291906128f8565b90815260200160405180910390208054610f5d90612a36565b80601f0160208091040260200160405190810160405280929190818152602001828054610f8990612a36565b8015610fd65780601f10610fab57610100808354040283529160200191610fd6565b820191906000526020600020905b815481529060010190602001808311610fb957829003601f168201915b5050505050955060088c8c604051610fef9291906128f8565b90815260200160405180910390208a8a60405161100d9291906128f8565b908152602001604051809103902054945060098c8c6040516110309291906128f8565b90815260200160405180910390208a8a60405161104e9291906128f8565b9081526020016040518091039020549350600a8c8c6040516110719291906128f8565b90815260200160405180910390208a8a60405161108f9291906128f8565b908152602001604051809103902080546110a890612a36565b80601f01602080910402602001604051908101604052809291908181526020018280546110d490612a36565b80156111215780601f106110f657610100808354040283529160200191611121565b820191906000526020600020905b81548152906001019060200180831161110457829003601f168201915b50505050509250600b60008281526020019081526020016000208c8c60405161114b9291906128f8565b908152602001604051809103902054915050949950949992975094509450565b60025481565b600b60205281600052604060002081805160208101820180518482526020830160208501208183528095505050505050600091509150505481565b600c6020528060005260406000206000915054906101000a900473ffffffffffffffffffffffffffffffffffffffff1681565b6000600483836040516111f39291906128f8565b908152602001604051809103902060009054906101000a900473ffffffffffffffffffffffffffffffffffffffff16905092915050565b60008054906101000a900473ffffffffffffffffffffffffffffffffffffffff1681565b600782805160208101820180518482526020830160208501208183528095505050505050818051602081018201805184825260208301602085012081835280955050505050506000915091505080546112a690612a36565b80601f01602080910402602001604051908101604052809291908181526020018280546112d290612a36565b801561131f5780601f106112f45761010080835404028352916020019161131f565b820191906000526020600020905b81548152906001019060200180831161130257829003601f168201915b505050505081565b6000838360405160200161133c9291906128f8565b604051602081830303815290604052805190602001209050600486866040516113669291906128f8565b908152602001604051809103902060009054906101000a900473ffffffffffffffffffffffffffffffffffffffff1673ffffffffffffffffffffffffffffffffffffffff163373ffffffffffffffffffffffffffffffffffffffff16148061142c5750600c600082815260200190815260200160002060009054906101000a900473ffffffffffffffffffffffffffffffffffffffff1673ffffffffffffffffffffffffffffffffffffffff163373ffffffffffffffffffffffffffffffffffffffff16145b61146b576040517f08c379a000000000000000000000000000000000000000000000000000000000815260040161146290612b91565b60405180910390fd5b81600b6000838152602001908152602001600020878760405161148f9291906128f8565b9081526020016040518091039020819055503373ffffffffffffffffffffffffffffffffffffffff167fc51cf810ce57759a3dfbe6983fc21737b77700b9d1cd768773eb30a3c76a14f4878785856040516114ed9493929190612bb1565b60405180910390a2505050505050565b6005818051602081018201805184825260208301602085012081835280955050505050506000915090505481565b6000811161156e576040517f08c379a000000000000000000000000000000000000000000000000000000000815260040161156590612c63565b60405180910390fd5b8060036000600486866040516115859291906128f8565b908152602001604051809103902060009054906101000a900473ffffffffffffffffffffffffffffffffffffffff1673ffffffffffffffffffffffffffffffffffffffff1673ffffffffffffffffffffffffffffffffffffffff16815260200190815260200160002084846040516115fe9291906128f8565b908152602001604051809103902054101561164e576040517f08c379a000000000000000000000000000000000000000000000000000000000815260040161164590612cf5565b60405180910390fd5b670de0b6b3a7640000816116629190612d15565b34146116a3576040517f08c379a000000000000000000000000000000000000000000000000000000000815260040161169a90612da3565b60405180910390fd5b8060025410156116e8576040517f08c379a00000000000000000000000000000000000000000000000000000000081526004016116df90612cf5565b60405180910390fd5b8060036000600486866040516116ff9291906128f8565b908152602001604051809103902060009054906101000a900473ffffffffffffffffffffffffffffffffffffffff1673ffffffffffffffffffffffffffffffffffffffff1673ffffffffffffffffffffffffffffffffffffffff16815260200190815260200160002084846040516117789291906128f8565b908152602001604051809103902060008282546117959190612974565b9250508190555080600360003373ffffffffffffffffffffffffffffffffffffffff1673ffffffffffffffffffffffffffffffffffffffff16815260200190815260200160002084846040516117ec9291906128f8565b908152602001604051809103902060008282546118099190612940565b92505081905550600483836040516118229291906128f8565b908152602001604051809103902060009054906101000a900473ffffffffffffffffffffffffffffffffffffffff1673ffffffffffffffffffffffffffffffffffffffff166108fc349081150290604051600060405180830381858888f19350505050158015611896573d6000803e3d6000fd5b503373ffffffffffffffffffffffffffffffffffffffff167f25748cfd0e365be64ddc23a17740b66c3c84e41a3f32027f9edbddde67cc67208484846040516118e1939291906129d5565b60405180910390a2505050565b606060008060006118fd6119e6565b9150915080829350935050509091565b600a828051602081018201805184825260208301602085012081835280955050505050508180516020810182018051848252602083016020850120818352809550505050505060009150915050805461196590612a36565b80601f016020809104026020016040519081016040528092919081815260200182805461199190612a36565b80156119de5780601f106119b3576101008083540402835291602001916119de565b820191906000526020600020905b8154815290600101906020018083116119c157829003601f168201915b505050505081565b600060606001546040518060400160405280600381526020017f4b44580000000000000000000000000000000000000000000000000000000000815250915091509091565b6000600154905090565b60006001905090565b600087604051602001611a519190612df4565b6040516020818303038152906040528051906020012090508660068c8c604051611a7c9291906128f8565b908152602001604051809103902089604051611a989190612df4565b90815260200160405180910390209081611ab29190612fb7565b508560078c8c604051611ac69291906128f8565b908152602001604051809103902089604051611ae29190612df4565b90815260200160405180910390209081611afc9190612fb7565b508460088c8c604051611b109291906128f8565b908152602001604051809103902089604051611b2c9190612df4565b9081526020016040518091039020819055508360098c8c604051611b519291906128f8565b908152602001604051809103902089604051611b6d9190612df4565b90815260200160405180910390208190555082600a8c8c604051611b929291906128f8565b908152602001604051809103902089604051611bae9190612df4565b90815260200160405180910390209081611bc89190612fb7565b5081600b60008381526020019081526020016000208c8c604051611bed9291906128f8565b90815260200160405180910390208190555088600360003373ffffffffffffffffffffffffffffffffffffffff1673ffffffffffffffffffffffffffffffffffffffff1681526020019081526020016000208c8c604051611c4f9291906128f8565b9081526020016040518091039020541015611c9f576040517f08c379a0000000000000000000000000000000000000000000000000000000008152600401611c96906130d5565b60405180910390fd5b88600360003373ffffffffffffffffffffffffffffffffffffffff1673ffffffffffffffffffffffffffffffffffffffff1681526020019081526020016000208c8c604051611cef9291906128f8565b90815260200160405180910390206000828254611d0c9190612974565b925050819055508860026000828254611d259190612940565b925050819055503373ffffffffffffffffffffffffffffffffffffffff167fcb6ac3da5dd3db4506cf83b614e24af21203c0a6f64b0ac343df18ec0967b61d8c8c8c8c8c8c8c8c8c8c604051611d849a999897969594939291906130f5565b60405180910390a25050505050505050505050565b6000604051905090565b600080fd5b600080fd5b600080fd5b600080fd5b600080fd5b60008083601f840112611dd257611dd1611dad565b5b8235905067ffffffffffffffff811115611def57611dee611db2565b5b602083019150836001820283011115611e0b57611e0a611db7565b5b9250929050565b6000819050919050565b611e2581611e12565b8114611e3057600080fd5b50565b600081359050611e4281611e1c565b92915050565b600080600060408486031215611e6157611e60611da3565b5b600084013567ffffffffffffffff811115611e7f57611e7e611da8565b5b611e8b86828701611dbc565b93509350506020611e9e86828701611e33565b9150509250925092565b600073ffffffffffffffffffffffffffffffffffffffff82169050919050565b6000611ed382611ea8565b9050919050565b611ee381611ec8565b8114611eee57600080fd5b50565b600081359050611f0081611eda565b92915050565b600080fd5b6000601f19601f8301169050919050565b7f4e487b7100000000000000000000000000000000000000000000000000000000600052604160045260246000fd5b611f5482611f0b565b810181811067ffffffffffffffff82111715611f7357611f72611f1c565b5b80604052505050565b6000611f86611d99565b9050611f928282611f4b565b919050565b600067ffffffffffffffff821115611fb257611fb1611f1c565b5b611fbb82611f0b565b9050602081019050919050565b82818337600083830152505050565b6000611fea611fe584611f97565b611f7c565b90508281526020810184848401111561200657612005611f06565b5b612011848285611fc8565b509392505050565b600082601f83011261202e5761202d611dad565b5b813561203e848260208601611fd7565b91505092915050565b6000806040838503121561205e5761205d611da3565b5b600061206c85828601611ef1565b925050602083013567ffffffffffffffff81111561208d5761208c611da8565b5b61209985828601612019565b9150509250929050565b6120ac81611e12565b82525050565b60006020820190506120c760008301846120a3565b92915050565b600080604083850312156120e4576120e3611da3565b5b600083013567ffffffffffffffff81111561210257612101611da8565b5b61210e85828601612019565b925050602083013567ffffffffffffffff81111561212f5761212e611da8565b5b61213b85828601612019565b9150509250929050565b600081519050919050565b600082825260208201905092915050565b60005b8381101561217f578082015181840152602081019050612164565b60008484015250505050565b600061219682612145565b6121a08185612150565b93506121b0818560208601612161565b6121b981611f0b565b840191505092915050565b600060208201905081810360008301526121de818461218b565b905092915050565b6000806000604084860312156121ff576121fe611da3565b5b600084013567ffffffffffffffff81111561221d5761221c611da8565b5b61222986828701611dbc565b9350935050602061223c86828701611ef1565b9150509250925092565b60006020828403121561225c5761225b611da3565b5b600082013567ffffffffffffffff81111561227a57612279611da8565b5b61228684828501612019565b91505092915050565b61229881611ec8565b82525050565b60006020820190506122b3600083018461228f565b92915050565b6000806000604084860312156122d2576122d1611da3565b5b60006122e086828701611ef1565b935050602084013567ffffffffffffffff81111561230157612300611da8565b5b61230d86828701611dbc565b92509250509250925092565b6000806000806040858703121561233357612332611da3565b5b600085013567ffffffffffffffff81111561235157612350611da8565b5b61235d87828801611dbc565b9450945050602085013567ffffffffffffffff8111156123805761237f611da8565b5b61238c87828801611dbc565b925092505092959194509250565b600060e0820190506123af600083018a6120a3565b81810360208301526123c1818961218b565b905081810360408301526123d5818861218b565b90506123e460608301876120a3565b6123f160808301866120a3565b81810360a0830152612403818561218b565b905061241260c08301846120a3565b98975050505050505050565b6000819050919050565b6124318161241e565b811461243c57600080fd5b50565b60008135905061244e81612428565b92915050565b6000806040838503121561246b5761246a611da3565b5b60006124798582860161243f565b925050602083013567ffffffffffffffff81111561249a57612499611da8565b5b6124a685828601612019565b9150509250929050565b6000602082840312156124c6576124c5611da3565b5b60006124d48482850161243f565b91505092915050565b600080602083850312156124f4576124f3611da3565b5b600083013567ffffffffffffffff81111561251257612511611da8565b5b61251e85828601611dbc565b92509250509250929050565b60008060008060006060868803121561254657612545611da3565b5b600086013567ffffffffffffffff81111561256457612563611da8565b5b61257088828901611dbc565b9550955050602086013567ffffffffffffffff81111561259357612592611da8565b5b61259f88828901611dbc565b935093505060406125b288828901611e33565b9150509295509295909350565b6125c88161241e565b82525050565b60006020820190506125e360008301846125bf565b92915050565b60006040820190508181036000830152612603818561218b565b905061261260208301846120a3565b9392505050565b600060408201905061262e60008301856120a3565b8181036020830152612640818461218b565b90509392505050565b6000806000806000806000806000806101208b8d03121561266d5761266c611da3565b5b60008b013567ffffffffffffffff81111561268b5761268a611da8565b5b6126978d828e01611dbc565b9a509a505060206126aa8d828e01611e33565b98505060408b013567ffffffffffffffff8111156126cb576126ca611da8565b5b6126d78d828e01612019565b97505060608b013567ffffffffffffffff8111156126f8576126f7611da8565b5b6127048d828e01612019565b96505060808b013567ffffffffffffffff81111561272557612724611da8565b5b6127318d828e01612019565b95505060a06127428d828e01611e33565b94505060c06127538d828e01611e33565b93505060e08b013567ffffffffffffffff81111561277457612773611da8565b5b6127808d828e01612019565b9250506101006127928d828e01611e33565b9150509295989b9194979a5092959850565b7f4f6e6c7920746865206f776e65722063616e2063616c6c20746869732066756e60008201527f6374696f6e000000000000000000000000000000000000000000000000000000602082015250565b6000612800602583612150565b915061280b826127a4565b604082019050919050565b6000602082019050818103600083015261282f816127f3565b9050919050565b7f4e6f7420656e6f75676820746f6b656e7320617661696c61626c6520666f722060008201527f6d696e74696e6700000000000000000000000000000000000000000000000000602082015250565b6000612892602783612150565b915061289d82612836565b604082019050919050565b600060208201905081810360008301526128c181612885565b9050919050565b600081905092915050565b60006128df83856128c8565b93506128ec838584611fc8565b82840190509392505050565b60006129058284866128d3565b91508190509392505050565b7f4e487b7100000000000000000000000000000000000000000000000000000000600052601160045260246000fd5b600061294b82611e12565b915061295683611e12565b925082820190508082111561296e5761296d612911565b5b92915050565b600061297f82611e12565b915061298a83611e12565b92508282039050818111156129a2576129a1612911565b5b92915050565b60006129b48385612150565b93506129c1838584611fc8565b6129ca83611f0b565b840190509392505050565b600060408201905081810360008301526129f08185876129a8565b90506129ff60208301846120a3565b949350505050565b7f4e487b7100000000000000000000000000000000000000000000000000000000600052602260045260246000fd5b60006002820490506001821680612a4e57607f821691505b602082108103612a6157612a60612a07565b5b50919050565b7f4f6e6c792074686520636f6e7472616374206f776e65722063616e206465736960008201527f676e617465206120746869726420706572736f6e000000000000000000000000602082015250565b6000612ac3603483612150565b9150612ace82612a67565b604082019050919050565b60006020820190508181036000830152612af281612ab6565b9050919050565b7f4f6e6c792074686520746f6b656e206f776e6572206f722064657369676e617460008201527f656420746869726420706572736f6e2063616e207570646174652066756e646560208201527f645f696e74000000000000000000000000000000000000000000000000000000604082015250565b6000612b7b604583612150565b9150612b8682612af9565b606082019050919050565b60006020820190508181036000830152612baa81612b6e565b9050919050565b60006060820190508181036000830152612bcc8186886129a8565b9050612bdb60208301856120a3565b612be860408301846125bf565b95945050505050565b7f507572636861736520616d6f756e74206d75737420626520677265617465722060008201527f7468616e20300000000000000000000000000000000000000000000000000000602082015250565b6000612c4d602683612150565b9150612c5882612bf1565b604082019050919050565b60006020820190508181036000830152612c7c81612c40565b9050919050565b7f4e6f7420656e6f75676820746f6b656e7320617661696c61626c6520666f722060008201527f7075726368617365000000000000000000000000000000000000000000000000602082015250565b6000612cdf602883612150565b9150612cea82612c83565b604082019050919050565b60006020820190508181036000830152612d0e81612cd2565b9050919050565b6000612d2082611e12565b9150612d2b83611e12565b9250828202612d3981611e12565b91508282048414831517612d5057612d4f612911565b5b5092915050565b7f496e636f727265637420457468657220616d6f756e742073656e740000000000600082015250565b6000612d8d601b83612150565b9150612d9882612d57565b602082019050919050565b60006020820190508181036000830152612dbc81612d80565b9050919050565b6000612dce82612145565b612dd881856128c8565b9350612de8818560208601612161565b80840191505092915050565b6000612e008284612dc3565b915081905092915050565b60008190508160005260206000209050919050565b60006020601f8301049050919050565b600082821b905092915050565b600060088302612e6d7fffffffffffffffffffffffffffffffffffffffffffffffffffffffffffffffff82612e30565b612e778683612e30565b95508019841693508086168417925050509392505050565b6000819050919050565b6000612eb4612eaf612eaa84611e12565b612e8f565b611e12565b9050919050565b6000819050919050565b612ece83612e99565b612ee2612eda82612ebb565b848454612e3d565b825550505050565b600090565b612ef7612eea565b612f02818484612ec5565b505050565b5b81811015612f2657612f1b600082612eef565b600181019050612f08565b5050565b601f821115612f6b57612f3c81612e0b565b612f4584612e20565b81016020851015612f54578190505b612f68612f6085612e20565b830182612f07565b50505b505050565b600082821c905092915050565b6000612f8e60001984600802612f70565b1980831691505092915050565b6000612fa78383612f7d565b9150826002028217905092915050565b612fc082612145565b67ffffffffffffffff811115612fd957612fd8611f1c565b5b612fe38254612a36565b612fee828285612f2a565b600060209050601f831160018114613021576000841561300f578287015190505b6130198582612f9b565b865550613081565b601f19841661302f86612e0b565b60005b8281101561305757848901518255600182019150602085019450602081019050613032565b868310156130745784890151613070601f891682612f7d565b8355505b6001600288020188555050505b505050505050565b7f4e6f7420656e6f75676820746f6b656e7320746f206275726e00000000000000600082015250565b60006130bf601983612150565b91506130ca82613089565b602082019050919050565b600060208201905081810360008301526130ee816130b2565b9050919050565b6000610120820190508181036000830152613111818c8e6129a8565b9050613120602083018b6120a3565b8181036040830152613132818a61218b565b90508181036060830152613146818961218b565b9050818103608083015261315a818861218b565b905061316960a08301876120a3565b61317660c08301866120a3565b81810360e0830152613188818561218b565b90506131986101008301846120a3565b9b9a505050505050505050505056fea26469706673582212207f97dcf6f13d4d1ef2cd2d5e5d34ab3140f86d50550688f4ab83d71c4026e2ac64736f6c63430008180033","opcodes":"PUSH1 0x80 PUSH1 0x40 MSTORE CALLVALUE DUP1 ISZERO PUSH3 0x11 JUMPI PUSH1 0x0 DUP1 REVERT JUMPDEST POP CALLER PUSH1 0x0 DUP1 PUSH2 0x100 EXP DUP2 SLOAD DUP2 PUSH20 0xFFFFFFFFFFFFFFFFFFFFFFFFFFFFFFFFFFFFFFFF MUL NOT AND SWAP1 DUP4 PUSH20 0xFFFFFFFFFFFFFFFFFFFFFFFFFFFFFFFFFFFFFFFF AND MUL OR SWAP1 SSTORE POP PUSH3 0xF4240 PUSH1 0x1 DUP2 SWAP1 SSTORE POP PUSH1 0x1 SLOAD PUSH1 0x2 DUP2 SWAP1 SSTORE POP PUSH1 0x0 DUP1 SLOAD SWAP1 PUSH2 0x100 EXP SWAP1 DIV PUSH20 0xFFFFFFFFFFFFFFFFFFFFFFFFFFFFFFFFFFFFFFFF AND PUSH1 0x4 PUSH1 0x40 MLOAD PUSH3 0x96 SWAP1 PUSH3 0x1C6 JUMP JUMPDEST SWAP1 DUP2 MSTORE PUSH1 0x20 ADD PUSH1 0x40 MLOAD DUP1 SWAP2 SUB SWAP1 KECCAK256 PUSH1 0x0 PUSH2 0x100 EXP DUP2 SLOAD DUP2 PUSH20 0xFFFFFFFFFFFFFFFFFFFFFFFFFFFFFFFFFFFFFFFF MUL NOT AND SWAP1 DUP4 PUSH20 0xFFFFFFFFFFFFFFFFFFFFFFFFFFFFFFFFFFFFFFFF AND MUL OR SWAP1 SSTORE POP PUSH1 0x1 SLOAD PUSH1 0x3 PUSH1 0x0 DUP1 PUSH1 0x0 SWAP1 SLOAD SWAP1 PUSH2 0x100 EXP SWAP1 DIV PUSH20 0xFFFFFFFFFFFFFFFFFFFFFFFFFFFFFFFFFFFFFFFF AND PUSH20 0xFFFFFFFFFFFFFFFFFFFFFFFFFFFFFFFFFFFFFFFF AND PUSH20 0xFFFFFFFFFFFFFFFFFFFFFFFFFFFFFFFFFFFFFFFF AND DUP2 MSTORE PUSH1 0x20 ADD SWAP1 DUP2 MSTORE PUSH1 0x20 ADD PUSH1 0x0 KECCAK256 PUSH1 0x40 MLOAD PUSH3 0x153 SWAP1 PUSH3 0x1C6 JUMP JUMPDEST SWAP1 DUP2 MSTORE PUSH1 0x20 ADD PUSH1 0x40 MLOAD DUP1 SWAP2 SUB SWAP1 KECCAK256 DUP2 SWAP1 SSTORE POP PUSH3 0x1DD JUMP JUMPDEST PUSH1 0x0 DUP2 SWAP1 POP SWAP3 SWAP2 POP POP JUMP JUMPDEST PUSH32 0x64656661756C7400000000000000000000000000000000000000000000000000 PUSH1 0x0 DUP3 ADD MSTORE POP JUMP JUMPDEST PUSH1 0x0 PUSH3 0x1AE PUSH1 0x7 DUP4 PUSH3 0x16B JUMP JUMPDEST SWAP2 POP PUSH3 0x1BB DUP3 PUSH3 0x176 JUMP JUMPDEST PUSH1 0x7 DUP3 ADD SWAP1 POP SWAP2 SWAP1 POP JUMP JUMPDEST PUSH1 0x0 PUSH3 0x1D3 DUP3 PUSH3 0x19F JUMP JUMPDEST SWAP2 POP DUP2 SWAP1 POP SWAP2 SWAP1 POP JUMP JUMPDEST PUSH2 0x31DD DUP1 PUSH3 0x1ED PUSH1 0x0 CODECOPY PUSH1 0x0 RETURN INVALID PUSH1 0x80 PUSH1 0x40 MSTORE PUSH1 0x4 CALLDATASIZE LT PUSH2 0x166 JUMPI PUSH1 0x0 CALLDATALOAD PUSH1 0xE0 SHR DUP1 PUSH4 0x6F86AD39 GT PUSH2 0xD1 JUMPI DUP1 PUSH4 0xAA38E38C GT PUSH2 0x8A JUMPI DUP1 PUSH4 0xC3780A3A GT PUSH2 0x64 JUMPI DUP1 PUSH4 0xC3780A3A EQ PUSH2 0x5CE JUMPI DUP1 PUSH4 0xC4E41B22 EQ PUSH2 0x5FA JUMPI DUP1 PUSH4 0xF2C9ECD8 EQ PUSH2 0x625 JUMPI DUP1 PUSH4 0xF6706A5C EQ PUSH2 0x650 JUMPI PUSH2 0x166 JUMP JUMPDEST DUP1 PUSH4 0xAA38E38C EQ PUSH2 0x549 JUMPI DUP1 PUSH4 0xBEDFC5A1 EQ PUSH2 0x565 JUMPI DUP1 PUSH4 0xBEF26920 EQ PUSH2 0x591 JUMPI PUSH2 0x166 JUMP JUMPDEST DUP1 PUSH4 0x6F86AD39 EQ PUSH2 0x401 JUMPI DUP1 PUSH4 0x71647469 EQ PUSH2 0x43E JUMPI DUP1 PUSH4 0x8DA5CB5B EQ PUSH2 0x47B JUMPI DUP1 PUSH4 0x91402E28 EQ PUSH2 0x4A6 JUMPI DUP1 PUSH4 0x9E1E0B6E EQ PUSH2 0x4E3 JUMPI DUP1 PUSH4 0x9EF00BD3 EQ PUSH2 0x50C JUMPI PUSH2 0x166 JUMP JUMPDEST DUP1 PUSH4 0x195B8743 GT PUSH2 0x123 JUMPI DUP1 PUSH4 0x195B8743 EQ PUSH2 0x29F JUMPI DUP1 PUSH4 0x1DD7CECF EQ PUSH2 0x2DC JUMPI DUP1 PUSH4 0x4286D01E EQ PUSH2 0x319 JUMPI DUP1 PUSH4 0x596BA5BB EQ PUSH2 0x356 JUMPI DUP1 PUSH4 0x60659A92 EQ PUSH2 0x399 JUMPI DUP1 PUSH4 0x66F857F4 EQ PUSH2 0x3C4 JUMPI PUSH2 0x166 JUMP JUMPDEST DUP1 PUSH4 0x56B01CE EQ PUSH2 0x16B JUMPI DUP1 PUSH4 0x5D01F50 EQ PUSH2 0x194 JUMPI DUP1 PUSH4 0xF3F74D7 EQ PUSH2 0x1D1 JUMPI DUP1 PUSH4 0x1335AFBF EQ PUSH2 0x20E JUMPI DUP1 PUSH4 0x18160DDD EQ PUSH2 0x237 JUMPI DUP1 PUSH4 0x190271DF EQ PUSH2 0x262 JUMPI JUMPDEST PUSH1 0x0 DUP1 REVERT JUMPDEST CALLVALUE DUP1 ISZERO PUSH2 0x177 JUMPI PUSH1 0x0 DUP1 REVERT JUMPDEST POP PUSH2 0x192 PUSH1 0x4 DUP1 CALLDATASIZE SUB DUP2 ADD SWAP1 PUSH2 0x18D SWAP2 SWAP1 PUSH2 0x1E48 JUMP JUMPDEST PUSH2 0x679 JUMP JUMPDEST STOP JUMPDEST CALLVALUE DUP1 ISZERO PUSH2 0x1A0 JUMPI PUSH1 0x0 DUP1 REVERT JUMPDEST POP PUSH2 0x1BB PUSH1 0x4 DUP1 CALLDATASIZE SUB DUP2 ADD SWAP1 PUSH2 0x1B6 SWAP2 SWAP1 PUSH2 0x2047 JUMP JUMPDEST PUSH2 0x9A4 JUMP JUMPDEST PUSH1 0x40 MLOAD PUSH2 0x1C8 SWAP2 SWAP1 PUSH2 0x20B2 JUMP JUMPDEST PUSH1 0x40 MLOAD DUP1 SWAP2 SUB SWAP1 RETURN JUMPDEST CALLVALUE DUP1 ISZERO PUSH2 0x1DD JUMPI PUSH1 0x0 DUP1 REVERT JUMPDEST POP PUSH2 0x1F8 PUSH1 0x4 DUP1 CALLDATASIZE SUB DUP2 ADD SWAP1 PUSH2 0x1F3 SWAP2 SWAP1 PUSH2 0x20CD JUMP JUMPDEST PUSH2 0x9DF JUMP JUMPDEST PUSH1 0x40 MLOAD PUSH2 0x205 SWAP2 SWAP1 PUSH2 0x21C4 JUMP JUMPDEST PUSH1 0x40 MLOAD DUP1 SWAP2 SUB SWAP1 RETURN JUMPDEST CALLVALUE DUP1 ISZERO PUSH2 0x21A JUMPI PUSH1 0x0 DUP1 REVERT JUMPDEST POP PUSH2 0x235 PUSH1 0x4 DUP1 CALLDATASIZE SUB DUP2 ADD SWAP1 PUSH2 0x230 SWAP2 SWAP1 PUSH2 0x21E6 JUMP JUMPDEST PUSH2 0xAB8 JUMP JUMPDEST STOP JUMPDEST CALLVALUE DUP1 ISZERO PUSH2 0x243 JUMPI PUSH1 0x0 DUP1 REVERT JUMPDEST POP PUSH2 0x24C PUSH2 0xC59 JUMP JUMPDEST PUSH1 0x40 MLOAD PUSH2 0x259 SWAP2 SWAP1 PUSH2 0x20B2 JUMP JUMPDEST PUSH1 0x40 MLOAD DUP1 SWAP2 SUB SWAP1 RETURN JUMPDEST CALLVALUE DUP1 ISZERO PUSH2 0x26E JUMPI PUSH1 0x0 DUP1 REVERT JUMPDEST POP PUSH2 0x289 PUSH1 0x4 DUP1 CALLDATASIZE SUB DUP2 ADD SWAP1 PUSH2 0x284 SWAP2 SWAP1 PUSH2 0x2246 JUMP JUMPDEST PUSH2 0xC5F JUMP JUMPDEST PUSH1 0x40 MLOAD PUSH2 0x296 SWAP2 SWAP1 PUSH2 0x229E JUMP JUMPDEST PUSH1 0x40 MLOAD DUP1 SWAP2 SUB SWAP1 RETURN JUMPDEST CALLVALUE DUP1 ISZERO PUSH2 0x2AB JUMPI PUSH1 0x0 DUP1 REVERT JUMPDEST POP PUSH2 0x2C6 PUSH1 0x4 DUP1 CALLDATASIZE SUB DUP2 ADD SWAP1 PUSH2 0x2C1 SWAP2 SWAP1 PUSH2 0x20CD JUMP JUMPDEST PUSH2 0xCA8 JUMP JUMPDEST PUSH1 0x40 MLOAD PUSH2 0x2D3 SWAP2 SWAP1 PUSH2 0x20B2 JUMP JUMPDEST PUSH1 0x40 MLOAD DUP1 SWAP2 SUB SWAP1 RETURN JUMPDEST CALLVALUE DUP1 ISZERO PUSH2 0x2E8 JUMPI PUSH1 0x0 DUP1 REVERT JUMPDEST POP PUSH2 0x303 PUSH1 0x4 DUP1 CALLDATASIZE SUB DUP2 ADD SWAP1 PUSH2 0x2FE SWAP2 SWAP1 PUSH2 0x22B9 JUMP JUMPDEST PUSH2 0xCF9 JUMP JUMPDEST PUSH1 0x40 MLOAD PUSH2 0x310 SWAP2 SWAP1 PUSH2 0x20B2 JUMP JUMPDEST PUSH1 0x40 MLOAD DUP1 SWAP2 SUB SWAP1 RETURN JUMPDEST CALLVALUE DUP1 ISZERO PUSH2 0x325 JUMPI PUSH1 0x0 DUP1 REVERT JUMPDEST POP PUSH2 0x340 PUSH1 0x4 DUP1 CALLDATASIZE SUB DUP2 ADD SWAP1 PUSH2 0x33B SWAP2 SWAP1 PUSH2 0x20CD JUMP JUMPDEST PUSH2 0xD62 JUMP JUMPDEST PUSH1 0x40 MLOAD PUSH2 0x34D SWAP2 SWAP1 PUSH2 0x20B2 JUMP JUMPDEST PUSH1 0x40 MLOAD DUP1 SWAP2 SUB SWAP1 RETURN JUMPDEST CALLVALUE DUP1 ISZERO PUSH2 0x362 JUMPI PUSH1 0x0 DUP1 REVERT JUMPDEST POP PUSH2 0x37D PUSH1 0x4 DUP1 CALLDATASIZE SUB DUP2 ADD SWAP1 PUSH2 0x378 SWAP2 SWAP1 PUSH2 0x2319 JUMP JUMPDEST PUSH2 0xDB3 JUMP JUMPDEST PUSH1 0x40 MLOAD PUSH2 0x390 SWAP8 SWAP7 SWAP6 SWAP5 SWAP4 SWAP3 SWAP2 SWAP1 PUSH2 0x239A JUMP JUMPDEST PUSH1 0x40 MLOAD DUP1 SWAP2 SUB SWAP1 RETURN JUMPDEST CALLVALUE DUP1 ISZERO PUSH2 0x3A5 JUMPI PUSH1 0x0 DUP1 REVERT JUMPDEST POP PUSH2 0x3AE PUSH2 0x116B JUMP JUMPDEST PUSH1 0x40 MLOAD PUSH2 0x3BB SWAP2 SWAP1 PUSH2 0x20B2 JUMP JUMPDEST PUSH1 0x40 MLOAD DUP1 SWAP2 SUB SWAP1 RETURN JUMPDEST CALLVALUE DUP1 ISZERO PUSH2 0x3D0 JUMPI PUSH1 0x0 DUP1 REVERT JUMPDEST POP PUSH2 0x3EB PUSH1 0x4 DUP1 CALLDATASIZE SUB DUP2 ADD SWAP1 PUSH2 0x3E6 SWAP2 SWAP1 PUSH2 0x2454 JUMP JUMPDEST PUSH2 0x1171 JUMP JUMPDEST PUSH1 0x40 MLOAD PUSH2 0x3F8 SWAP2 SWAP1 PUSH2 0x20B2 JUMP JUMPDEST PUSH1 0x40 MLOAD DUP1 SWAP2 SUB SWAP1 RETURN JUMPDEST CALLVALUE DUP1 ISZERO PUSH2 0x40D JUMPI PUSH1 0x0 DUP1 REVERT JUMPDEST POP PUSH2 0x428 PUSH1 0x4 DUP1 CALLDATASIZE SUB DUP2 ADD SWAP1 PUSH2 0x423 SWAP2 SWAP1 PUSH2 0x24B0 JUMP JUMPDEST PUSH2 0x11AC JUMP JUMPDEST PUSH1 0x40 MLOAD PUSH2 0x435 SWAP2 SWAP1 PUSH2 0x229E JUMP JUMPDEST PUSH1 0x40 MLOAD DUP1 SWAP2 SUB SWAP1 RETURN JUMPDEST CALLVALUE DUP1 ISZERO PUSH2 0x44A JUMPI PUSH1 0x0 DUP1 REVERT JUMPDEST POP PUSH2 0x465 PUSH1 0x4 DUP1 CALLDATASIZE SUB DUP2 ADD SWAP1 PUSH2 0x460 SWAP2 SWAP1 PUSH2 0x24DD JUMP JUMPDEST PUSH2 0x11DF JUMP JUMPDEST PUSH1 0x40 MLOAD PUSH2 0x472 SWAP2 SWAP1 PUSH2 0x229E JUMP JUMPDEST PUSH1 0x40 MLOAD DUP1 SWAP2 SUB SWAP1 RETURN JUMPDEST CALLVALUE DUP1 ISZERO PUSH2 0x487 JUMPI PUSH1 0x0 DUP1 REVERT JUMPDEST POP PUSH2 0x490 PUSH2 0x122A JUMP JUMPDEST PUSH1 0x40 MLOAD PUSH2 0x49D SWAP2 SWAP1 PUSH2 0x229E JUMP JUMPDEST PUSH1 0x40 MLOAD DUP1 SWAP2 SUB SWAP1 RETURN JUMPDEST CALLVALUE DUP1 ISZERO PUSH2 0x4B2 JUMPI PUSH1 0x0 DUP1 REVERT JUMPDEST POP PUSH2 0x4CD PUSH1 0x4 DUP1 CALLDATASIZE SUB DUP2 ADD SWAP1 PUSH2 0x4C8 SWAP2 SWAP1 PUSH2 0x20CD JUMP JUMPDEST PUSH2 0x124E JUMP JUMPDEST PUSH1 0x40 MLOAD PUSH2 0x4DA SWAP2 SWAP1 PUSH2 0x21C4 JUMP JUMPDEST PUSH1 0x40 MLOAD DUP1 SWAP2 SUB SWAP1 RETURN JUMPDEST CALLVALUE DUP1 ISZERO PUSH2 0x4EF JUMPI PUSH1 0x0 DUP1 REVERT JUMPDEST POP PUSH2 0x50A PUSH1 0x4 DUP1 CALLDATASIZE SUB DUP2 ADD SWAP1 PUSH2 0x505 SWAP2 SWAP1 PUSH2 0x252A JUMP JUMPDEST PUSH2 0x1327 JUMP JUMPDEST STOP JUMPDEST CALLVALUE DUP1 ISZERO PUSH2 0x518 JUMPI PUSH1 0x0 DUP1 REVERT JUMPDEST POP PUSH2 0x533 PUSH1 0x4 DUP1 CALLDATASIZE SUB DUP2 ADD SWAP1 PUSH2 0x52E SWAP2 SWAP1 PUSH2 0x2246 JUMP JUMPDEST PUSH2 0x14FD JUMP JUMPDEST PUSH1 0x40 MLOAD PUSH2 0x540 SWAP2 SWAP1 PUSH2 0x25CE JUMP JUMPDEST PUSH1 0x40 MLOAD DUP1 SWAP2 SUB SWAP1 RETURN JUMPDEST PUSH2 0x563 PUSH1 0x4 DUP1 CALLDATASIZE SUB DUP2 ADD SWAP1 PUSH2 0x55E SWAP2 SWAP1 PUSH2 0x1E48 JUMP JUMPDEST PUSH2 0x152B JUMP JUMPDEST STOP JUMPDEST CALLVALUE DUP1 ISZERO PUSH2 0x571 JUMPI PUSH1 0x0 DUP1 REVERT JUMPDEST POP PUSH2 0x57A PUSH2 0x18EE JUMP JUMPDEST PUSH1 0x40 MLOAD PUSH2 0x588 SWAP3 SWAP2 SWAP1 PUSH2 0x25E9 JUMP JUMPDEST PUSH1 0x40 MLOAD DUP1 SWAP2 SUB SWAP1 RETURN JUMPDEST CALLVALUE DUP1 ISZERO PUSH2 0x59D JUMPI PUSH1 0x0 DUP1 REVERT JUMPDEST POP PUSH2 0x5B8 PUSH1 0x4 DUP1 CALLDATASIZE SUB DUP2 ADD SWAP1 PUSH2 0x5B3 SWAP2 SWAP1 PUSH2 0x20CD JUMP JUMPDEST PUSH2 0x190D JUMP JUMPDEST PUSH1 0x40 MLOAD PUSH2 0x5C5 SWAP2 SWAP1 PUSH2 0x21C4 JUMP JUMPDEST PUSH1 0x40 MLOAD DUP1 SWAP2 SUB SWAP1 RETURN JUMPDEST CALLVALUE DUP1 ISZERO PUSH2 0x5DA JUMPI PUSH1 0x0 DUP1 REVERT JUMPDEST POP PUSH2 0x5E3 PUSH2 0x19E6 JUMP JUMPDEST PUSH1 0x40 MLOAD PUSH2 0x5F1 SWAP3 SWAP2 SWAP1 PUSH2 0x2619 JUMP JUMPDEST PUSH1 0x40 MLOAD DUP1 SWAP2 SUB SWAP1 RETURN JUMPDEST CALLVALUE DUP1 ISZERO PUSH2 0x606 JUMPI PUSH1 0x0 DUP1 REVERT JUMPDEST POP PUSH2 0x60F PUSH2 0x1A2B JUMP JUMPDEST PUSH1 0x40 MLOAD PUSH2 0x61C SWAP2 SWAP1 PUSH2 0x20B2 JUMP JUMPDEST PUSH1 0x40 MLOAD DUP1 SWAP2 SUB SWAP1 RETURN JUMPDEST CALLVALUE DUP1 ISZERO PUSH2 0x631 JUMPI PUSH1 0x0 DUP1 REVERT JUMPDEST POP PUSH2 0x63A PUSH2 0x1A35 JUMP JUMPDEST PUSH1 0x40 MLOAD PUSH2 0x647 SWAP2 SWAP1 PUSH2 0x20B2 JUMP JUMPDEST PUSH1 0x40 MLOAD DUP1 SWAP2 SUB SWAP1 RETURN JUMPDEST CALLVALUE DUP1 ISZERO PUSH2 0x65C JUMPI PUSH1 0x0 DUP1 REVERT JUMPDEST POP PUSH2 0x677 PUSH1 0x4 DUP1 CALLDATASIZE SUB DUP2 ADD SWAP1 PUSH2 0x672 SWAP2 SWAP1 PUSH2 0x2649 JUMP JUMPDEST PUSH2 0x1A3E JUMP JUMPDEST STOP JUMPDEST PUSH1 0x0 DUP1 SLOAD SWAP1 PUSH2 0x100 EXP SWAP1 DIV PUSH20 0xFFFFFFFFFFFFFFFFFFFFFFFFFFFFFFFFFFFFFFFF AND PUSH20 0xFFFFFFFFFFFFFFFFFFFFFFFFFFFFFFFFFFFFFFFF AND CALLER PUSH20 0xFFFFFFFFFFFFFFFFFFFFFFFFFFFFFFFFFFFFFFFF AND EQ PUSH2 0x707 JUMPI PUSH1 0x40 MLOAD PUSH32 0x8C379A000000000000000000000000000000000000000000000000000000000 DUP2 MSTORE PUSH1 0x4 ADD PUSH2 0x6FE SWAP1 PUSH2 0x2816 JUMP JUMPDEST PUSH1 0x40 MLOAD DUP1 SWAP2 SUB SWAP1 REVERT JUMPDEST DUP1 PUSH1 0x2 SLOAD LT ISZERO PUSH2 0x74C JUMPI PUSH1 0x40 MLOAD PUSH32 0x8C379A000000000000000000000000000000000000000000000000000000000 DUP2 MSTORE PUSH1 0x4 ADD PUSH2 0x743 SWAP1 PUSH2 0x28A8 JUMP JUMPDEST PUSH1 0x40 MLOAD DUP1 SWAP2 SUB SWAP1 REVERT JUMPDEST PUSH1 0x0 PUSH20 0xFFFFFFFFFFFFFFFFFFFFFFFFFFFFFFFFFFFFFFFF AND PUSH1 0x4 DUP5 DUP5 PUSH1 0x40 MLOAD PUSH2 0x776 SWAP3 SWAP2 SWAP1 PUSH2 0x28F8 JUMP JUMPDEST SWAP1 DUP2 MSTORE PUSH1 0x20 ADD PUSH1 0x40 MLOAD DUP1 SWAP2 SUB SWAP1 KECCAK256 PUSH1 0x0 SWAP1 SLOAD SWAP1 PUSH2 0x100 EXP SWAP1 DIV PUSH20 0xFFFFFFFFFFFFFFFFFFFFFFFFFFFFFFFFFFFFFFFF AND PUSH20 0xFFFFFFFFFFFFFFFFFFFFFFFFFFFFFFFFFFFFFFFF AND SUB PUSH2 0x840 JUMPI PUSH1 0x0 DUP1 SLOAD SWAP1 PUSH2 0x100 EXP SWAP1 DIV PUSH20 0xFFFFFFFFFFFFFFFFFFFFFFFFFFFFFFFFFFFFFFFF AND PUSH1 0x4 DUP5 DUP5 PUSH1 0x40 MLOAD PUSH2 0x7F3 SWAP3 SWAP2 SWAP1 PUSH2 0x28F8 JUMP JUMPDEST SWAP1 DUP2 MSTORE PUSH1 0x20 ADD PUSH1 0x40 MLOAD DUP1 SWAP2 SUB SWAP1 KECCAK256 PUSH1 0x0 PUSH2 0x100 EXP DUP2 SLOAD DUP2 PUSH20 0xFFFFFFFFFFFFFFFFFFFFFFFFFFFFFFFFFFFFFFFF MUL NOT AND SWAP1 DUP4 PUSH20 0xFFFFFFFFFFFFFFFFFFFFFFFFFFFFFFFFFFFFFFFF AND MUL OR SWAP1 SSTORE POP JUMPDEST DUP1 PUSH1 0x3 PUSH1 0x0 PUSH1 0x4 DUP7 DUP7 PUSH1 0x40 MLOAD PUSH2 0x857 SWAP3 SWAP2 SWAP1 PUSH2 0x28F8 JUMP JUMPDEST SWAP1 DUP2 MSTORE PUSH1 0x20 ADD PUSH1 0x40 MLOAD DUP1 SWAP2 SUB SWAP1 KECCAK256 PUSH1 0x0 SWAP1 SLOAD SWAP1 PUSH2 0x100 EXP SWAP1 DIV PUSH20 0xFFFFFFFFFFFFFFFFFFFFFFFFFFFFFFFFFFFFFFFF AND PUSH20 0xFFFFFFFFFFFFFFFFFFFFFFFFFFFFFFFFFFFFFFFF AND PUSH20 0xFFFFFFFFFFFFFFFFFFFFFFFFFFFFFFFFFFFFFFFF AND DUP2 MSTORE PUSH1 0x20 ADD SWAP1 DUP2 MSTORE PUSH1 0x20 ADD PUSH1 0x0 KECCAK256 DUP5 DUP5 PUSH1 0x40 MLOAD PUSH2 0x8D0 SWAP3 SWAP2 SWAP1 PUSH2 0x28F8 JUMP JUMPDEST SWAP1 DUP2 MSTORE PUSH1 0x20 ADD PUSH1 0x40 MLOAD DUP1 SWAP2 SUB SWAP1 KECCAK256 PUSH1 0x0 DUP3 DUP3 SLOAD PUSH2 0x8ED SWAP2 SWAP1 PUSH2 0x2940 JUMP JUMPDEST SWAP3 POP POP DUP2 SWAP1 SSTORE POP DUP1 PUSH1 0x2 PUSH1 0x0 DUP3 DUP3 SLOAD PUSH2 0x906 SWAP2 SWAP1 PUSH2 0x2974 JUMP JUMPDEST SWAP3 POP POP DUP2 SWAP1 SSTORE POP PUSH1 0x4 DUP4 DUP4 PUSH1 0x40 MLOAD PUSH2 0x91F SWAP3 SWAP2 SWAP1 PUSH2 0x28F8 JUMP JUMPDEST SWAP1 DUP2 MSTORE PUSH1 0x20 ADD PUSH1 0x40 MLOAD DUP1 SWAP2 SUB SWAP1 KECCAK256 PUSH1 0x0 SWAP1 SLOAD SWAP1 PUSH2 0x100 EXP SWAP1 DIV PUSH20 0xFFFFFFFFFFFFFFFFFFFFFFFFFFFFFFFFFFFFFFFF AND PUSH20 0xFFFFFFFFFFFFFFFFFFFFFFFFFFFFFFFFFFFFFFFF AND PUSH32 0xB1B87C085F38F5C59007E65F6928950029CEA43F05DB762297F7EAB488D5418C DUP5 DUP5 DUP5 PUSH1 0x40 MLOAD PUSH2 0x997 SWAP4 SWAP3 SWAP2 SWAP1 PUSH2 0x29D5 JUMP JUMPDEST PUSH1 0x40 MLOAD DUP1 SWAP2 SUB SWAP1 LOG2 POP POP POP JUMP JUMPDEST PUSH1 0x3 PUSH1 0x20 MSTORE DUP2 PUSH1 0x0 MSTORE PUSH1 0x40 PUSH1 0x0 KECCAK256 DUP2 DUP1 MLOAD PUSH1 0x20 DUP2 ADD DUP3 ADD DUP1 MLOAD DUP5 DUP3 MSTORE PUSH1 0x20 DUP4 ADD PUSH1 0x20 DUP6 ADD KECCAK256 DUP2 DUP4 MSTORE DUP1 SWAP6 POP POP POP POP POP POP PUSH1 0x0 SWAP2 POP SWAP2 POP POP SLOAD DUP2 JUMP JUMPDEST PUSH1 0x6 DUP3 DUP1 MLOAD PUSH1 0x20 DUP2 ADD DUP3 ADD DUP1 MLOAD DUP5 DUP3 MSTORE PUSH1 0x20 DUP4 ADD PUSH1 0x20 DUP6 ADD KECCAK256 DUP2 DUP4 MSTORE DUP1 SWAP6 POP POP POP POP POP POP DUP2 DUP1 MLOAD PUSH1 0x20 DUP2 ADD DUP3 ADD DUP1 MLOAD DUP5 DUP3 MSTORE PUSH1 0x20 DUP4 ADD PUSH1 0x20 DUP6 ADD KECCAK256 DUP2 DUP4 MSTORE DUP1 SWAP6 POP POP POP POP POP POP PUSH1 0x0 SWAP2 POP SWAP2 POP POP DUP1 SLOAD PUSH2 0xA37 SWAP1 PUSH2 0x2A36 JUMP JUMPDEST DUP1 PUSH1 0x1F ADD PUSH1 0x20 DUP1 SWAP2 DIV MUL PUSH1 0x20 ADD PUSH1 0x40 MLOAD SWAP1 DUP2 ADD PUSH1 0x40 MSTORE DUP1 SWAP3 SWAP2 SWAP1 DUP2 DUP2 MSTORE PUSH1 0x20 ADD DUP3 DUP1 SLOAD PUSH2 0xA63 SWAP1 PUSH2 0x2A36 JUMP JUMPDEST DUP1 ISZERO PUSH2 0xAB0 JUMPI DUP1 PUSH1 0x1F LT PUSH2 0xA85 JUMPI PUSH2 0x100 DUP1 DUP4 SLOAD DIV MUL DUP4 MSTORE SWAP2 PUSH1 0x20 ADD SWAP2 PUSH2 0xAB0 JUMP JUMPDEST DUP3 ADD SWAP2 SWAP1 PUSH1 0x0 MSTORE PUSH1 0x20 PUSH1 0x0 KECCAK256 SWAP1 JUMPDEST DUP2 SLOAD DUP2 MSTORE SWAP1 PUSH1 0x1 ADD SWAP1 PUSH1 0x20 ADD DUP1 DUP4 GT PUSH2 0xA93 JUMPI DUP3 SWAP1 SUB PUSH1 0x1F AND DUP3 ADD SWAP2 JUMPDEST POP POP POP POP POP DUP2 JUMP JUMPDEST PUSH1 0x0 DUP1 SLOAD SWAP1 PUSH2 0x100 EXP SWAP1 DIV PUSH20 0xFFFFFFFFFFFFFFFFFFFFFFFFFFFFFFFFFFFFFFFF AND PUSH20 0xFFFFFFFFFFFFFFFFFFFFFFFFFFFFFFFFFFFFFFFF AND CALLER PUSH20 0xFFFFFFFFFFFFFFFFFFFFFFFFFFFFFFFFFFFFFFFF AND EQ PUSH2 0xB46 JUMPI PUSH1 0x40 MLOAD PUSH32 0x8C379A000000000000000000000000000000000000000000000000000000000 DUP2 MSTORE PUSH1 0x4 ADD PUSH2 0xB3D SWAP1 PUSH2 0x2816 JUMP JUMPDEST PUSH1 0x40 MLOAD DUP1 SWAP2 SUB SWAP1 REVERT JUMPDEST PUSH1 0x0 DUP4 DUP4 PUSH1 0x40 MLOAD PUSH1 0x20 ADD PUSH2 0xB5B SWAP3 SWAP2 SWAP1 PUSH2 0x28F8 JUMP JUMPDEST PUSH1 0x40 MLOAD PUSH1 0x20 DUP2 DUP4 SUB SUB DUP2 MSTORE SWAP1 PUSH1 0x40 MSTORE DUP1 MLOAD SWAP1 PUSH1 0x20 ADD KECCAK256 SWAP1 POP PUSH1 0x0 DUP1 SLOAD SWAP1 PUSH2 0x100 EXP SWAP1 DIV PUSH20 0xFFFFFFFFFFFFFFFFFFFFFFFFFFFFFFFFFFFFFFFF AND PUSH20 0xFFFFFFFFFFFFFFFFFFFFFFFFFFFFFFFFFFFFFFFF AND CALLER PUSH20 0xFFFFFFFFFFFFFFFFFFFFFFFFFFFFFFFFFFFFFFFF AND EQ PUSH2 0xC01 JUMPI PUSH1 0x40 MLOAD PUSH32 0x8C379A000000000000000000000000000000000000000000000000000000000 DUP2 MSTORE PUSH1 0x4 ADD PUSH2 0xBF8 SWAP1 PUSH2 0x2AD9 JUMP JUMPDEST PUSH1 0x40 MLOAD DUP1 SWAP2 SUB SWAP1 REVERT JUMPDEST DUP2 PUSH1 0xC PUSH1 0x0 DUP4 DUP2 MSTORE PUSH1 0x20 ADD SWAP1 DUP2 MSTORE PUSH1 0x20 ADD PUSH1 0x0 KECCAK256 PUSH1 0x0 PUSH2 0x100 EXP DUP2 SLOAD DUP2 PUSH20 0xFFFFFFFFFFFFFFFFFFFFFFFFFFFFFFFFFFFFFFFF MUL NOT AND SWAP1 DUP4 PUSH20 0xFFFFFFFFFFFFFFFFFFFFFFFFFFFFFFFFFFFFFFFF AND MUL OR SWAP1 SSTORE POP POP POP POP POP JUMP JUMPDEST PUSH1 0x1 SLOAD DUP2 JUMP JUMPDEST PUSH1 0x4 DUP2 DUP1 MLOAD PUSH1 0x20 DUP2 ADD DUP3 ADD DUP1 MLOAD DUP5 DUP3 MSTORE PUSH1 0x20 DUP4 ADD PUSH1 0x20 DUP6 ADD KECCAK256 DUP2 DUP4 MSTORE DUP1 SWAP6 POP POP POP POP POP POP PUSH1 0x0 SWAP2 POP SLOAD SWAP1 PUSH2 0x100 EXP SWAP1 DIV PUSH20 0xFFFFFFFFFFFFFFFFFFFFFFFFFFFFFFFFFFFFFFFF AND DUP2 JUMP JUMPDEST PUSH1 0x9 DUP3 DUP1 MLOAD PUSH1 0x20 DUP2 ADD DUP3 ADD DUP1 MLOAD DUP5 DUP3 MSTORE PUSH1 0x20 DUP4 ADD PUSH1 0x20 DUP6 ADD KECCAK256 DUP2 DUP4 MSTORE DUP1 SWAP6 POP POP POP POP POP POP DUP2 DUP1 MLOAD PUSH1 0x20 DUP2 ADD DUP3 ADD DUP1 MLOAD DUP5 DUP3 MSTORE PUSH1 0x20 DUP4 ADD PUSH1 0x20 DUP6 ADD KECCAK256 DUP2 DUP4 MSTORE DUP1 SWAP6 POP POP POP POP POP POP PUSH1 0x0 SWAP2 POP SWAP2 POP POP SLOAD DUP2 JUMP JUMPDEST PUSH1 0x0 PUSH1 0x3 PUSH1 0x0 DUP6 PUSH20 0xFFFFFFFFFFFFFFFFFFFFFFFFFFFFFFFFFFFFFFFF AND PUSH20 0xFFFFFFFFFFFFFFFFFFFFFFFFFFFFFFFFFFFFFFFF AND DUP2 MSTORE PUSH1 0x20 ADD SWAP1 DUP2 MSTORE PUSH1 0x20 ADD PUSH1 0x0 KECCAK256 DUP4 DUP4 PUSH1 0x40 MLOAD PUSH2 0xD4A SWAP3 SWAP2 SWAP1 PUSH2 0x28F8 JUMP JUMPDEST SWAP1 DUP2 MSTORE PUSH1 0x20 ADD PUSH1 0x40 MLOAD DUP1 SWAP2 SUB SWAP1 KECCAK256 SLOAD SWAP1 POP SWAP4 SWAP3 POP POP POP JUMP JUMPDEST PUSH1 0x8 DUP3 DUP1 MLOAD PUSH1 0x20 DUP2 ADD DUP3 ADD DUP1 MLOAD DUP5 DUP3 MSTORE PUSH1 0x20 DUP4 ADD PUSH1 0x20 DUP6 ADD KECCAK256 DUP2 DUP4 MSTORE DUP1 SWAP6 POP POP POP POP POP POP DUP2 DUP1 MLOAD PUSH1 0x20 DUP2 ADD DUP3 ADD DUP1 MLOAD DUP5 DUP3 MSTORE PUSH1 0x20 DUP4 ADD PUSH1 0x20 DUP6 ADD KECCAK256 DUP2 DUP4 MSTORE DUP1 SWAP6 POP POP POP POP POP POP PUSH1 0x0 SWAP2 POP SWAP2 POP POP SLOAD DUP2 JUMP JUMPDEST PUSH1 0x0 PUSH1 0x60 DUP1 PUSH1 0x0 DUP1 PUSH1 0x60 PUSH1 0x0 DUP1 DUP10 DUP10 PUSH1 0x40 MLOAD PUSH1 0x20 ADD PUSH2 0xDD3 SWAP3 SWAP2 SWAP1 PUSH2 0x28F8 JUMP JUMPDEST PUSH1 0x40 MLOAD PUSH1 0x20 DUP2 DUP4 SUB SUB DUP2 MSTORE SWAP1 PUSH1 0x40 MSTORE DUP1 MLOAD SWAP1 PUSH1 0x20 ADD KECCAK256 SWAP1 POP PUSH1 0x3 PUSH1 0x0 CALLER PUSH20 0xFFFFFFFFFFFFFFFFFFFFFFFFFFFFFFFFFFFFFFFF AND PUSH20 0xFFFFFFFFFFFFFFFFFFFFFFFFFFFFFFFFFFFFFFFF AND DUP2 MSTORE PUSH1 0x20 ADD SWAP1 DUP2 MSTORE PUSH1 0x20 ADD PUSH1 0x0 KECCAK256 DUP13 DUP13 PUSH1 0x40 MLOAD PUSH2 0xE3A SWAP3 SWAP2 SWAP1 PUSH2 0x28F8 JUMP JUMPDEST SWAP1 DUP2 MSTORE PUSH1 0x20 ADD PUSH1 0x40 MLOAD DUP1 SWAP2 SUB SWAP1 KECCAK256 SLOAD SWAP8 POP PUSH1 0x6 DUP13 DUP13 PUSH1 0x40 MLOAD PUSH2 0xE5D SWAP3 SWAP2 SWAP1 PUSH2 0x28F8 JUMP JUMPDEST SWAP1 DUP2 MSTORE PUSH1 0x20 ADD PUSH1 0x40 MLOAD DUP1 SWAP2 SUB SWAP1 KECCAK256 DUP11 DUP11 PUSH1 0x40 MLOAD PUSH2 0xE7B SWAP3 SWAP2 SWAP1 PUSH2 0x28F8 JUMP JUMPDEST SWAP1 DUP2 MSTORE PUSH1 0x20 ADD PUSH1 0x40 MLOAD DUP1 SWAP2 SUB SWAP1 KECCAK256 DUP1 SLOAD PUSH2 0xE94 SWAP1 PUSH2 0x2A36 JUMP JUMPDEST DUP1 PUSH1 0x1F ADD PUSH1 0x20 DUP1 SWAP2 DIV MUL PUSH1 0x20 ADD PUSH1 0x40 MLOAD SWAP1 DUP2 ADD PUSH1 0x40 MSTORE DUP1 SWAP3 SWAP2 SWAP1 DUP2 DUP2 MSTORE PUSH1 0x20 ADD DUP3 DUP1 SLOAD PUSH2 0xEC0 SWAP1 PUSH2 0x2A36 JUMP JUMPDEST DUP1 ISZERO PUSH2 0xF0D JUMPI DUP1 PUSH1 0x1F LT PUSH2 0xEE2 JUMPI PUSH2 0x100 DUP1 DUP4 SLOAD DIV MUL DUP4 MSTORE SWAP2 PUSH1 0x20 ADD SWAP2 PUSH2 0xF0D JUMP JUMPDEST DUP3 ADD SWAP2 SWAP1 PUSH1 0x0 MSTORE PUSH1 0x20 PUSH1 0x0 KECCAK256 SWAP1 JUMPDEST DUP2 SLOAD DUP2 MSTORE SWAP1 PUSH1 0x1 ADD SWAP1 PUSH1 0x20 ADD DUP1 DUP4 GT PUSH2 0xEF0 JUMPI DUP3 SWAP1 SUB PUSH1 0x1F AND DUP3 ADD SWAP2 JUMPDEST POP POP POP POP POP SWAP7 POP PUSH1 0x7 DUP13 DUP13 PUSH1 0x40 MLOAD PUSH2 0xF26 SWAP3 SWAP2 SWAP1 PUSH2 0x28F8 JUMP JUMPDEST SWAP1 DUP2 MSTORE PUSH1 0x20 ADD PUSH1 0x40 MLOAD DUP1 SWAP2 SUB SWAP1 KECCAK256 DUP11 DUP11 PUSH1 0x40 MLOAD PUSH2 0xF44 SWAP3 SWAP2 SWAP1 PUSH2 0x28F8 JUMP JUMPDEST SWAP1 DUP2 MSTORE PUSH1 0x20 ADD PUSH1 0x40 MLOAD DUP1 SWAP2 SUB SWAP1 KECCAK256 DUP1 SLOAD PUSH2 0xF5D SWAP1 PUSH2 0x2A36 JUMP JUMPDEST DUP1 PUSH1 0x1F ADD PUSH1 0x20 DUP1 SWAP2 DIV MUL PUSH1 0x20 ADD PUSH1 0x40 MLOAD SWAP1 DUP2 ADD PUSH1 0x40 MSTORE DUP1 SWAP3 SWAP2 SWAP1 DUP2 DUP2 MSTORE PUSH1 0x20 ADD DUP3 DUP1 SLOAD PUSH2 0xF89 SWAP1 PUSH2 0x2A36 JUMP JUMPDEST DUP1 ISZERO PUSH2 0xFD6 JUMPI DUP1 PUSH1 0x1F LT PUSH2 0xFAB JUMPI PUSH2 0x100 DUP1 DUP4 SLOAD DIV MUL DUP4 MSTORE SWAP2 PUSH1 0x20 ADD SWAP2 PUSH2 0xFD6 JUMP JUMPDEST DUP3 ADD SWAP2 SWAP1 PUSH1 0x0 MSTORE PUSH1 0x20 PUSH1 0x0 KECCAK256 SWAP1 JUMPDEST DUP2 SLOAD DUP2 MSTORE SWAP1 PUSH1 0x1 ADD SWAP1 PUSH1 0x20 ADD DUP1 DUP4 GT PUSH2 0xFB9 JUMPI DUP3 SWAP1 SUB PUSH1 0x1F AND DUP3 ADD SWAP2 JUMPDEST POP POP POP POP POP SWAP6 POP PUSH1 0x8 DUP13 DUP13 PUSH1 0x40 MLOAD PUSH2 0xFEF SWAP3 SWAP2 SWAP1 PUSH2 0x28F8 JUMP JUMPDEST SWAP1 DUP2 MSTORE PUSH1 0x20 ADD PUSH1 0x40 MLOAD DUP1 SWAP2 SUB SWAP1 KECCAK256 DUP11 DUP11 PUSH1 0x40 MLOAD PUSH2 0x100D SWAP3 SWAP2 SWAP1 PUSH2 0x28F8 JUMP JUMPDEST SWAP1 DUP2 MSTORE PUSH1 0x20 ADD PUSH1 0x40 MLOAD DUP1 SWAP2 SUB SWAP1 KECCAK256 SLOAD SWAP5 POP PUSH1 0x9 DUP13 DUP13 PUSH1 0x40 MLOAD PUSH2 0x1030 SWAP3 SWAP2 SWAP1 PUSH2 0x28F8 JUMP JUMPDEST SWAP1 DUP2 MSTORE PUSH1 0x20 ADD PUSH1 0x40 MLOAD DUP1 SWAP2 SUB SWAP1 KECCAK256 DUP11 DUP11 PUSH1 0x40 MLOAD PUSH2 0x104E SWAP3 SWAP2 SWAP1 PUSH2 0x28F8 JUMP JUMPDEST SWAP1 DUP2 MSTORE PUSH1 0x20 ADD PUSH1 0x40 MLOAD DUP1 SWAP2 SUB SWAP1 KECCAK256 SLOAD SWAP4 POP PUSH1 0xA DUP13 DUP13 PUSH1 0x40 MLOAD PUSH2 0x1071 SWAP3 SWAP2 SWAP1 PUSH2 0x28F8 JUMP JUMPDEST SWAP1 DUP2 MSTORE PUSH1 0x20 ADD PUSH1 0x40 MLOAD DUP1 SWAP2 SUB SWAP1 KECCAK256 DUP11 DUP11 PUSH1 0x40 MLOAD PUSH2 0x108F SWAP3 SWAP2 SWAP1 PUSH2 0x28F8 JUMP JUMPDEST SWAP1 DUP2 MSTORE PUSH1 0x20 ADD PUSH1 0x40 MLOAD DUP1 SWAP2 SUB SWAP1 KECCAK256 DUP1 SLOAD PUSH2 0x10A8 SWAP1 PUSH2 0x2A36 JUMP JUMPDEST DUP1 PUSH1 0x1F ADD PUSH1 0x20 DUP1 SWAP2 DIV MUL PUSH1 0x20 ADD PUSH1 0x40 MLOAD SWAP1 DUP2 ADD PUSH1 0x40 MSTORE DUP1 SWAP3 SWAP2 SWAP1 DUP2 DUP2 MSTORE PUSH1 0x20 ADD DUP3 DUP1 SLOAD PUSH2 0x10D4 SWAP1 PUSH2 0x2A36 JUMP JUMPDEST DUP1 ISZERO PUSH2 0x1121 JUMPI DUP1 PUSH1 0x1F LT PUSH2 0x10F6 JUMPI PUSH2 0x100 DUP1 DUP4 SLOAD DIV MUL DUP4 MSTORE SWAP2 PUSH1 0x20 ADD SWAP2 PUSH2 0x1121 JUMP JUMPDEST DUP3 ADD SWAP2 SWAP1 PUSH1 0x0 MSTORE PUSH1 0x20 PUSH1 0x0 KECCAK256 SWAP1 JUMPDEST DUP2 SLOAD DUP2 MSTORE SWAP1 PUSH1 0x1 ADD SWAP1 PUSH1 0x20 ADD DUP1 DUP4 GT PUSH2 0x1104 JUMPI DUP3 SWAP1 SUB PUSH1 0x1F AND DUP3 ADD SWAP2 JUMPDEST POP POP POP POP POP SWAP3 POP PUSH1 0xB PUSH1 0x0 DUP3 DUP2 MSTORE PUSH1 0x20 ADD SWAP1 DUP2 MSTORE PUSH1 0x20 ADD PUSH1 0x0 KECCAK256 DUP13 DUP13 PUSH1 0x40 MLOAD PUSH2 0x114B SWAP3 SWAP2 SWAP1 PUSH2 0x28F8 JUMP JUMPDEST SWAP1 DUP2 MSTORE PUSH1 0x20 ADD PUSH1 0x40 MLOAD DUP1 SWAP2 SUB SWAP1 KECCAK256 SLOAD SWAP2 POP POP SWAP5 SWAP10 POP SWAP5 SWAP10 SWAP3 SWAP8 POP SWAP5 POP SWAP5 POP JUMP JUMPDEST PUSH1 0x2 SLOAD DUP2 JUMP JUMPDEST PUSH1 0xB PUSH1 0x20 MSTORE DUP2 PUSH1 0x0 MSTORE PUSH1 0x40 PUSH1 0x0 KECCAK256 DUP2 DUP1 MLOAD PUSH1 0x20 DUP2 ADD DUP3 ADD DUP1 MLOAD DUP5 DUP3 MSTORE PUSH1 0x20 DUP4 ADD PUSH1 0x20 DUP6 ADD KECCAK256 DUP2 DUP4 MSTORE DUP1 SWAP6 POP POP POP POP POP POP PUSH1 0x0 SWAP2 POP SWAP2 POP POP SLOAD DUP2 JUMP JUMPDEST PUSH1 0xC PUSH1 0x20 MSTORE DUP1 PUSH1 0x0 MSTORE PUSH1 0x40 PUSH1 0x0 KECCAK256 PUSH1 0x0 SWAP2 POP SLOAD SWAP1 PUSH2 0x100 EXP SWAP1 DIV PUSH20 0xFFFFFFFFFFFFFFFFFFFFFFFFFFFFFFFFFFFFFFFF AND DUP2 JUMP JUMPDEST PUSH1 0x0 PUSH1 0x4 DUP4 DUP4 PUSH1 0x40 MLOAD PUSH2 0x11F3 SWAP3 SWAP2 SWAP1 PUSH2 0x28F8 JUMP JUMPDEST SWAP1 DUP2 MSTORE PUSH1 0x20 ADD PUSH1 0x40 MLOAD DUP1 SWAP2 SUB SWAP1 KECCAK256 PUSH1 0x0 SWAP1 SLOAD SWAP1 PUSH2 0x100 EXP SWAP1 DIV PUSH20 0xFFFFFFFFFFFFFFFFFFFFFFFFFFFFFFFFFFFFFFFF AND SWAP1 POP SWAP3 SWAP2 POP POP JUMP JUMPDEST PUSH1 0x0 DUP1 SLOAD SWAP1 PUSH2 0x100 EXP SWAP1 DIV PUSH20 0xFFFFFFFFFFFFFFFFFFFFFFFFFFFFFFFFFFFFFFFF AND DUP2 JUMP JUMPDEST PUSH1 0x7 DUP3 DUP1 MLOAD PUSH1 0x20 DUP2 ADD DUP3 ADD DUP1 MLOAD DUP5 DUP3 MSTORE PUSH1 0x20 DUP4 ADD PUSH1 0x20 DUP6 ADD KECCAK256 DUP2 DUP4 MSTORE DUP1 SWAP6 POP POP POP POP POP POP DUP2 DUP1 MLOAD PUSH1 0x20 DUP2 ADD DUP3 ADD DUP1 MLOAD DUP5 DUP3 MSTORE PUSH1 0x20 DUP4 ADD PUSH1 0x20 DUP6 ADD KECCAK256 DUP2 DUP4 MSTORE DUP1 SWAP6 POP POP POP POP POP POP PUSH1 0x0 SWAP2 POP SWAP2 POP POP DUP1 SLOAD PUSH2 0x12A6 SWAP1 PUSH2 0x2A36 JUMP JUMPDEST DUP1 PUSH1 0x1F ADD PUSH1 0x20 DUP1 SWAP2 DIV MUL PUSH1 0x20 ADD PUSH1 0x40 MLOAD SWAP1 DUP2 ADD PUSH1 0x40 MSTORE DUP1 SWAP3 SWAP2 SWAP1 DUP2 DUP2 MSTORE PUSH1 0x20 ADD DUP3 DUP1 SLOAD PUSH2 0x12D2 SWAP1 PUSH2 0x2A36 JUMP JUMPDEST DUP1 ISZERO PUSH2 0x131F JUMPI DUP1 PUSH1 0x1F LT PUSH2 0x12F4 JUMPI PUSH2 0x100 DUP1 DUP4 SLOAD DIV MUL DUP4 MSTORE SWAP2 PUSH1 0x20 ADD SWAP2 PUSH2 0x131F JUMP JUMPDEST DUP3 ADD SWAP2 SWAP1 PUSH1 0x0 MSTORE PUSH1 0x20 PUSH1 0x0 KECCAK256 SWAP1 JUMPDEST DUP2 SLOAD DUP2 MSTORE SWAP1 PUSH1 0x1 ADD SWAP1 PUSH1 0x20 ADD DUP1 DUP4 GT PUSH2 0x1302 JUMPI DUP3 SWAP1 SUB PUSH1 0x1F AND DUP3 ADD SWAP2 JUMPDEST POP POP POP POP POP DUP2 JUMP JUMPDEST PUSH1 0x0 DUP4 DUP4 PUSH1 0x40 MLOAD PUSH1 0x20 ADD PUSH2 0x133C SWAP3 SWAP2 SWAP1 PUSH2 0x28F8 JUMP JUMPDEST PUSH1 0x40 MLOAD PUSH1 0x20 DUP2 DUP4 SUB SUB DUP2 MSTORE SWAP1 PUSH1 0x40 MSTORE DUP1 MLOAD SWAP1 PUSH1 0x20 ADD KECCAK256 SWAP1 POP PUSH1 0x4 DUP7 DUP7 PUSH1 0x40 MLOAD PUSH2 0x1366 SWAP3 SWAP2 SWAP1 PUSH2 0x28F8 JUMP JUMPDEST SWAP1 DUP2 MSTORE PUSH1 0x20 ADD PUSH1 0x40 MLOAD DUP1 SWAP2 SUB SWAP1 KECCAK256 PUSH1 0x0 SWAP1 SLOAD SWAP1 PUSH2 0x100 EXP SWAP1 DIV PUSH20 0xFFFFFFFFFFFFFFFFFFFFFFFFFFFFFFFFFFFFFFFF AND PUSH20 0xFFFFFFFFFFFFFFFFFFFFFFFFFFFFFFFFFFFFFFFF AND CALLER PUSH20 0xFFFFFFFFFFFFFFFFFFFFFFFFFFFFFFFFFFFFFFFF AND EQ DUP1 PUSH2 0x142C JUMPI POP PUSH1 0xC PUSH1 0x0 DUP3 DUP2 MSTORE PUSH1 0x20 ADD SWAP1 DUP2 MSTORE PUSH1 0x20 ADD PUSH1 0x0 KECCAK256 PUSH1 0x0 SWAP1 SLOAD SWAP1 PUSH2 0x100 EXP SWAP1 DIV PUSH20 0xFFFFFFFFFFFFFFFFFFFFFFFFFFFFFFFFFFFFFFFF AND PUSH20 0xFFFFFFFFFFFFFFFFFFFFFFFFFFFFFFFFFFFFFFFF AND CALLER PUSH20 0xFFFFFFFFFFFFFFFFFFFFFFFFFFFFFFFFFFFFFFFF AND EQ JUMPDEST PUSH2 0x146B JUMPI PUSH1 0x40 MLOAD PUSH32 0x8C379A000000000000000000000000000000000000000000000000000000000 DUP2 MSTORE PUSH1 0x4 ADD PUSH2 0x1462 SWAP1 PUSH2 0x2B91 JUMP JUMPDEST PUSH1 0x40 MLOAD DUP1 SWAP2 SUB SWAP1 REVERT JUMPDEST DUP2 PUSH1 0xB PUSH1 0x0 DUP4 DUP2 MSTORE PUSH1 0x20 ADD SWAP1 DUP2 MSTORE PUSH1 0x20 ADD PUSH1 0x0 KECCAK256 DUP8 DUP8 PUSH1 0x40 MLOAD PUSH2 0x148F SWAP3 SWAP2 SWAP1 PUSH2 0x28F8 JUMP JUMPDEST SWAP1 DUP2 MSTORE PUSH1 0x20 ADD PUSH1 0x40 MLOAD DUP1 SWAP2 SUB SWAP1 KECCAK256 DUP2 SWAP1 SSTORE POP CALLER PUSH20 0xFFFFFFFFFFFFFFFFFFFFFFFFFFFFFFFFFFFFFFFF AND PUSH32 0xC51CF810CE57759A3DFBE6983FC21737B77700B9D1CD768773EB30A3C76A14F4 DUP8 DUP8 DUP6 DUP6 PUSH1 0x40 MLOAD PUSH2 0x14ED SWAP5 SWAP4 SWAP3 SWAP2 SWAP1 PUSH2 0x2BB1 JUMP JUMPDEST PUSH1 0x40 MLOAD DUP1 SWAP2 SUB SWAP1 LOG2 POP POP POP POP POP POP JUMP JUMPDEST PUSH1 0x5 DUP2 DUP1 MLOAD PUSH1 0x20 DUP2 ADD DUP3 ADD DUP1 MLOAD DUP5 DUP3 MSTORE PUSH1 0x20 DUP4 ADD PUSH1 0x20 DUP6 ADD KECCAK256 DUP2 DUP4 MSTORE DUP1 SWAP6 POP POP POP POP POP POP PUSH1 0x0 SWAP2 POP SWAP1 POP SLOAD DUP2 JUMP JUMPDEST PUSH1 0x0 DUP2 GT PUSH2 0x156E JUMPI PUSH1 0x40 MLOAD PUSH32 0x8C379A000000000000000000000000000000000000000000000000000000000 DUP2 MSTORE PUSH1 0x4 ADD PUSH2 0x1565 SWAP1 PUSH2 0x2C63 JUMP JUMPDEST PUSH1 0x40 MLOAD DUP1 SWAP2 SUB SWAP1 REVERT JUMPDEST DUP1 PUSH1 0x3 PUSH1 0x0 PUSH1 0x4 DUP7 DUP7 PUSH1 0x40 MLOAD PUSH2 0x1585 SWAP3 SWAP2 SWAP1 PUSH2 0x28F8 JUMP JUMPDEST SWAP1 DUP2 MSTORE PUSH1 0x20 ADD PUSH1 0x40 MLOAD DUP1 SWAP2 SUB SWAP1 KECCAK256 PUSH1 0x0 SWAP1 SLOAD SWAP1 PUSH2 0x100 EXP SWAP1 DIV PUSH20 0xFFFFFFFFFFFFFFFFFFFFFFFFFFFFFFFFFFFFFFFF AND PUSH20 0xFFFFFFFFFFFFFFFFFFFFFFFFFFFFFFFFFFFFFFFF AND PUSH20 0xFFFFFFFFFFFFFFFFFFFFFFFFFFFFFFFFFFFFFFFF AND DUP2 MSTORE PUSH1 0x20 ADD SWAP1 DUP2 MSTORE PUSH1 0x20 ADD PUSH1 0x0 KECCAK256 DUP5 DUP5 PUSH1 0x40 MLOAD PUSH2 0x15FE SWAP3 SWAP2 SWAP1 PUSH2 0x28F8 JUMP JUMPDEST SWAP1 DUP2 MSTORE PUSH1 0x20 ADD PUSH1 0x40 MLOAD DUP1 SWAP2 SUB SWAP1 KECCAK256 SLOAD LT ISZERO PUSH2 0x164E JUMPI PUSH1 0x40 MLOAD PUSH32 0x8C379A000000000000000000000000000000000000000000000000000000000 DUP2 MSTORE PUSH1 0x4 ADD PUSH2 0x1645 SWAP1 PUSH2 0x2CF5 JUMP JUMPDEST PUSH1 0x40 MLOAD DUP1 SWAP2 SUB SWAP1 REVERT JUMPDEST PUSH8 0xDE0B6B3A7640000 DUP2 PUSH2 0x1662 SWAP2 SWAP1 PUSH2 0x2D15 JUMP JUMPDEST CALLVALUE EQ PUSH2 0x16A3 JUMPI PUSH1 0x40 MLOAD PUSH32 0x8C379A000000000000000000000000000000000000000000000000000000000 DUP2 MSTORE PUSH1 0x4 ADD PUSH2 0x169A SWAP1 PUSH2 0x2DA3 JUMP JUMPDEST PUSH1 0x40 MLOAD DUP1 SWAP2 SUB SWAP1 REVERT JUMPDEST DUP1 PUSH1 0x2 SLOAD LT ISZERO PUSH2 0x16E8 JUMPI PUSH1 0x40 MLOAD PUSH32 0x8C379A000000000000000000000000000000000000000000000000000000000 DUP2 MSTORE PUSH1 0x4 ADD PUSH2 0x16DF SWAP1 PUSH2 0x2CF5 JUMP JUMPDEST PUSH1 0x40 MLOAD DUP1 SWAP2 SUB SWAP1 REVERT JUMPDEST DUP1 PUSH1 0x3 PUSH1 0x0 PUSH1 0x4 DUP7 DUP7 PUSH1 0x40 MLOAD PUSH2 0x16FF SWAP3 SWAP2 SWAP1 PUSH2 0x28F8 JUMP JUMPDEST SWAP1 DUP2 MSTORE PUSH1 0x20 ADD PUSH1 0x40 MLOAD DUP1 SWAP2 SUB SWAP1 KECCAK256 PUSH1 0x0 SWAP1 SLOAD SWAP1 PUSH2 0x100 EXP SWAP1 DIV PUSH20 0xFFFFFFFFFFFFFFFFFFFFFFFFFFFFFFFFFFFFFFFF AND PUSH20 0xFFFFFFFFFFFFFFFFFFFFFFFFFFFFFFFFFFFFFFFF AND PUSH20 0xFFFFFFFFFFFFFFFFFFFFFFFFFFFFFFFFFFFFFFFF AND DUP2 MSTORE PUSH1 0x20 ADD SWAP1 DUP2 MSTORE PUSH1 0x20 ADD PUSH1 0x0 KECCAK256 DUP5 DUP5 PUSH1 0x40 MLOAD PUSH2 0x1778 SWAP3 SWAP2 SWAP1 PUSH2 0x28F8 JUMP JUMPDEST SWAP1 DUP2 MSTORE PUSH1 0x20 ADD PUSH1 0x40 MLOAD DUP1 SWAP2 SUB SWAP1 KECCAK256 PUSH1 0x0 DUP3 DUP3 SLOAD PUSH2 0x1795 SWAP2 SWAP1 PUSH2 0x2974 JUMP JUMPDEST SWAP3 POP POP DUP2 SWAP1 SSTORE POP DUP1 PUSH1 0x3 PUSH1 0x0 CALLER PUSH20 0xFFFFFFFFFFFFFFFFFFFFFFFFFFFFFFFFFFFFFFFF AND PUSH20 0xFFFFFFFFFFFFFFFFFFFFFFFFFFFFFFFFFFFFFFFF AND DUP2 MSTORE PUSH1 0x20 ADD SWAP1 DUP2 MSTORE PUSH1 0x20 ADD PUSH1 0x0 KECCAK256 DUP5 DUP5 PUSH1 0x40 MLOAD PUSH2 0x17EC SWAP3 SWAP2 SWAP1 PUSH2 0x28F8 JUMP JUMPDEST SWAP1 DUP2 MSTORE PUSH1 0x20 ADD PUSH1 0x40 MLOAD DUP1 SWAP2 SUB SWAP1 KECCAK256 PUSH1 0x0 DUP3 DUP3 SLOAD PUSH2 0x1809 SWAP2 SWAP1 PUSH2 0x2940 JUMP JUMPDEST SWAP3 POP POP DUP2 SWAP1 SSTORE POP PUSH1 0x4 DUP4 DUP4 PUSH1 0x40 MLOAD PUSH2 0x1822 SWAP3 SWAP2 SWAP1 PUSH2 0x28F8 JUMP JUMPDEST SWAP1 DUP2 MSTORE PUSH1 0x20 ADD PUSH1 0x40 MLOAD DUP1 SWAP2 SUB SWAP1 KECCAK256 PUSH1 0x0 SWAP1 SLOAD SWAP1 PUSH2 0x100 EXP SWAP1 DIV PUSH20 0xFFFFFFFFFFFFFFFFFFFFFFFFFFFFFFFFFFFFFFFF AND PUSH20 0xFFFFFFFFFFFFFFFFFFFFFFFFFFFFFFFFFFFFFFFF AND PUSH2 0x8FC CALLVALUE SWAP1 DUP2 ISZERO MUL SWAP1 PUSH1 0x40 MLOAD PUSH1 0x0 PUSH1 0x40 MLOAD DUP1 DUP4 SUB DUP2 DUP6 DUP9 DUP9 CALL SWAP4 POP POP POP POP ISZERO DUP1 ISZERO PUSH2 0x1896 JUMPI RETURNDATASIZE PUSH1 0x0 DUP1 RETURNDATACOPY RETURNDATASIZE PUSH1 0x0 REVERT JUMPDEST POP CALLER PUSH20 0xFFFFFFFFFFFFFFFFFFFFFFFFFFFFFFFFFFFFFFFF AND PUSH32 0x25748CFD0E365BE64DDC23A17740B66C3C84E41A3F32027F9EDBDDDE67CC6720 DUP5 DUP5 DUP5 PUSH1 0x40 MLOAD PUSH2 0x18E1 SWAP4 SWAP3 SWAP2 SWAP1 PUSH2 0x29D5 JUMP JUMPDEST PUSH1 0x40 MLOAD DUP1 SWAP2 SUB SWAP1 LOG2 POP POP POP JUMP JUMPDEST PUSH1 0x60 PUSH1 0x0 DUP1 PUSH1 0x0 PUSH2 0x18FD PUSH2 0x19E6 JUMP JUMPDEST SWAP2 POP SWAP2 POP DUP1 DUP3 SWAP4 POP SWAP4 POP POP POP SWAP1 SWAP2 JUMP JUMPDEST PUSH1 0xA DUP3 DUP1 MLOAD PUSH1 0x20 DUP2 ADD DUP3 ADD DUP1 MLOAD DUP5 DUP3 MSTORE PUSH1 0x20 DUP4 ADD PUSH1 0x20 DUP6 ADD KECCAK256 DUP2 DUP4 MSTORE DUP1 SWAP6 POP POP POP POP POP POP DUP2 DUP1 MLOAD PUSH1 0x20 DUP2 ADD DUP3 ADD DUP1 MLOAD DUP5 DUP3 MSTORE PUSH1 0x20 DUP4 ADD PUSH1 0x20 DUP6 ADD KECCAK256 DUP2 DUP4 MSTORE DUP1 SWAP6 POP POP POP POP POP POP PUSH1 0x0 SWAP2 POP SWAP2 POP POP DUP1 SLOAD PUSH2 0x1965 SWAP1 PUSH2 0x2A36 JUMP JUMPDEST DUP1 PUSH1 0x1F ADD PUSH1 0x20 DUP1 SWAP2 DIV MUL PUSH1 0x20 ADD PUSH1 0x40 MLOAD SWAP1 DUP2 ADD PUSH1 0x40 MSTORE DUP1 SWAP3 SWAP2 SWAP1 DUP2 DUP2 MSTORE PUSH1 0x20 ADD DUP3 DUP1 SLOAD PUSH2 0x1991 SWAP1 PUSH2 0x2A36 JUMP JUMPDEST DUP1 ISZERO PUSH2 0x19DE JUMPI DUP1 PUSH1 0x1F LT PUSH2 0x19B3 JUMPI PUSH2 0x100 DUP1 DUP4 SLOAD DIV MUL DUP4 MSTORE SWAP2 PUSH1 0x20 ADD SWAP2 PUSH2 0x19DE JUMP JUMPDEST DUP3 ADD SWAP2 SWAP1 PUSH1 0x0 MSTORE PUSH1 0x20 PUSH1 0x0 KECCAK256 SWAP1 JUMPDEST DUP2 SLOAD DUP2 MSTORE SWAP1 PUSH1 0x1 ADD SWAP1 PUSH1 0x20 ADD DUP1 DUP4 GT PUSH2 0x19C1 JUMPI DUP3 SWAP1 SUB PUSH1 0x1F AND DUP3 ADD SWAP2 JUMPDEST POP POP POP POP POP DUP2 JUMP JUMPDEST PUSH1 0x0 PUSH1 0x60 PUSH1 0x1 SLOAD PUSH1 0x40 MLOAD DUP1 PUSH1 0x40 ADD PUSH1 0x40 MSTORE DUP1 PUSH1 0x3 DUP2 MSTORE PUSH1 0x20 ADD PUSH32 0x4B44580000000000000000000000000000000000000000000000000000000000 DUP2 MSTORE POP SWAP2 POP SWAP2 POP SWAP1 SWAP2 JUMP JUMPDEST PUSH1 0x0 PUSH1 0x1 SLOAD SWAP1 POP SWAP1 JUMP JUMPDEST PUSH1 0x0 PUSH1 0x1 SWAP1 POP SWAP1 JUMP JUMPDEST PUSH1 0x0 DUP8 PUSH1 0x40 MLOAD PUSH1 0x20 ADD PUSH2 0x1A51 SWAP2 SWAP1 PUSH2 0x2DF4 JUMP JUMPDEST PUSH1 0x40 MLOAD PUSH1 0x20 DUP2 DUP4 SUB SUB DUP2 MSTORE SWAP1 PUSH1 0x40 MSTORE DUP1 MLOAD SWAP1 PUSH1 0x20 ADD KECCAK256 SWAP1 POP DUP7 PUSH1 0x6 DUP13 DUP13 PUSH1 0x40 MLOAD PUSH2 0x1A7C SWAP3 SWAP2 SWAP1 PUSH2 0x28F8 JUMP JUMPDEST SWAP1 DUP2 MSTORE PUSH1 0x20 ADD PUSH1 0x40 MLOAD DUP1 SWAP2 SUB SWAP1 KECCAK256 DUP10 PUSH1 0x40 MLOAD PUSH2 0x1A98 SWAP2 SWAP1 PUSH2 0x2DF4 JUMP JUMPDEST SWAP1 DUP2 MSTORE PUSH1 0x20 ADD PUSH1 0x40 MLOAD DUP1 SWAP2 SUB SWAP1 KECCAK256 SWAP1 DUP2 PUSH2 0x1AB2 SWAP2 SWAP1 PUSH2 0x2FB7 JUMP JUMPDEST POP DUP6 PUSH1 0x7 DUP13 DUP13 PUSH1 0x40 MLOAD PUSH2 0x1AC6 SWAP3 SWAP2 SWAP1 PUSH2 0x28F8 JUMP JUMPDEST SWAP1 DUP2 MSTORE PUSH1 0x20 ADD PUSH1 0x40 MLOAD DUP1 SWAP2 SUB SWAP1 KECCAK256 DUP10 PUSH1 0x40 MLOAD PUSH2 0x1AE2 SWAP2 SWAP1 PUSH2 0x2DF4 JUMP JUMPDEST SWAP1 DUP2 MSTORE PUSH1 0x20 ADD PUSH1 0x40 MLOAD DUP1 SWAP2 SUB SWAP1 KECCAK256 SWAP1 DUP2 PUSH2 0x1AFC SWAP2 SWAP1 PUSH2 0x2FB7 JUMP JUMPDEST POP DUP5 PUSH1 0x8 DUP13 DUP13 PUSH1 0x40 MLOAD PUSH2 0x1B10 SWAP3 SWAP2 SWAP1 PUSH2 0x28F8 JUMP JUMPDEST SWAP1 DUP2 MSTORE PUSH1 0x20 ADD PUSH1 0x40 MLOAD DUP1 SWAP2 SUB SWAP1 KECCAK256 DUP10 PUSH1 0x40 MLOAD PUSH2 0x1B2C SWAP2 SWAP1 PUSH2 0x2DF4 JUMP JUMPDEST SWAP1 DUP2 MSTORE PUSH1 0x20 ADD PUSH1 0x40 MLOAD DUP1 SWAP2 SUB SWAP1 KECCAK256 DUP2 SWAP1 SSTORE POP DUP4 PUSH1 0x9 DUP13 DUP13 PUSH1 0x40 MLOAD PUSH2 0x1B51 SWAP3 SWAP2 SWAP1 PUSH2 0x28F8 JUMP JUMPDEST SWAP1 DUP2 MSTORE PUSH1 0x20 ADD PUSH1 0x40 MLOAD DUP1 SWAP2 SUB SWAP1 KECCAK256 DUP10 PUSH1 0x40 MLOAD PUSH2 0x1B6D SWAP2 SWAP1 PUSH2 0x2DF4 JUMP JUMPDEST SWAP1 DUP2 MSTORE PUSH1 0x20 ADD PUSH1 0x40 MLOAD DUP1 SWAP2 SUB SWAP1 KECCAK256 DUP2 SWAP1 SSTORE POP DUP3 PUSH1 0xA DUP13 DUP13 PUSH1 0x40 MLOAD PUSH2 0x1B92 SWAP3 SWAP2 SWAP1 PUSH2 0x28F8 JUMP JUMPDEST SWAP1 DUP2 MSTORE PUSH1 0x20 ADD PUSH1 0x40 MLOAD DUP1 SWAP2 SUB SWAP1 KECCAK256 DUP10 PUSH1 0x40 MLOAD PUSH2 0x1BAE SWAP2 SWAP1 PUSH2 0x2DF4 JUMP JUMPDEST SWAP1 DUP2 MSTORE PUSH1 0x20 ADD PUSH1 0x40 MLOAD DUP1 SWAP2 SUB SWAP1 KECCAK256 SWAP1 DUP2 PUSH2 0x1BC8 SWAP2 SWAP1 PUSH2 0x2FB7 JUMP JUMPDEST POP DUP2 PUSH1 0xB PUSH1 0x0 DUP4 DUP2 MSTORE PUSH1 0x20 ADD SWAP1 DUP2 MSTORE PUSH1 0x20 ADD PUSH1 0x0 KECCAK256 DUP13 DUP13 PUSH1 0x40 MLOAD PUSH2 0x1BED SWAP3 SWAP2 SWAP1 PUSH2 0x28F8 JUMP JUMPDEST SWAP1 DUP2 MSTORE PUSH1 0x20 ADD PUSH1 0x40 MLOAD DUP1 SWAP2 SUB SWAP1 KECCAK256 DUP2 SWAP1 SSTORE POP DUP9 PUSH1 0x3 PUSH1 0x0 CALLER PUSH20 0xFFFFFFFFFFFFFFFFFFFFFFFFFFFFFFFFFFFFFFFF AND PUSH20 0xFFFFFFFFFFFFFFFFFFFFFFFFFFFFFFFFFFFFFFFF AND DUP2 MSTORE PUSH1 0x20 ADD SWAP1 DUP2 MSTORE PUSH1 0x20 ADD PUSH1 0x0 KECCAK256 DUP13 DUP13 PUSH1 0x40 MLOAD PUSH2 0x1C4F SWAP3 SWAP2 SWAP1 PUSH2 0x28F8 JUMP JUMPDEST SWAP1 DUP2 MSTORE PUSH1 0x20 ADD PUSH1 0x40 MLOAD DUP1 SWAP2 SUB SWAP1 KECCAK256 SLOAD LT ISZERO PUSH2 0x1C9F JUMPI PUSH1 0x40 MLOAD PUSH32 0x8C379A000000000000000000000000000000000000000000000000000000000 DUP2 MSTORE PUSH1 0x4 ADD PUSH2 0x1C96 SWAP1 PUSH2 0x30D5 JUMP JUMPDEST PUSH1 0x40 MLOAD DUP1 SWAP2 SUB SWAP1 REVERT JUMPDEST DUP9 PUSH1 0x3 PUSH1 0x0 CALLER PUSH20 0xFFFFFFFFFFFFFFFFFFFFFFFFFFFFFFFFFFFFFFFF AND PUSH20 0xFFFFFFFFFFFFFFFFFFFFFFFFFFFFFFFFFFFFFFFF AND DUP2 MSTORE PUSH1 0x20 ADD SWAP1 DUP2 MSTORE PUSH1 0x20 ADD PUSH1 0x0 KECCAK256 DUP13 DUP13 PUSH1 0x40 MLOAD PUSH2 0x1CEF SWAP3 SWAP2 SWAP1 PUSH2 0x28F8 JUMP JUMPDEST SWAP1 DUP2 MSTORE PUSH1 0x20 ADD PUSH1 0x40 MLOAD DUP1 SWAP2 SUB SWAP1 KECCAK256 PUSH1 0x0 DUP3 DUP3 SLOAD PUSH2 0x1D0C SWAP2 SWAP1 PUSH2 0x2974 JUMP JUMPDEST SWAP3 POP POP DUP2 SWAP1 SSTORE POP DUP9 PUSH1 0x2 PUSH1 0x0 DUP3 DUP3 SLOAD PUSH2 0x1D25 SWAP2 SWAP1 PUSH2 0x2940 JUMP JUMPDEST SWAP3 POP POP DUP2 SWAP1 SSTORE POP CALLER PUSH20 0xFFFFFFFFFFFFFFFFFFFFFFFFFFFFFFFFFFFFFFFF AND PUSH32 0xCB6AC3DA5DD3DB4506CF83B614E24AF21203C0A6F64B0AC343DF18EC0967B61D DUP13 DUP13 DUP13 DUP13 DUP13 DUP13 DUP13 DUP13 DUP13 DUP13 PUSH1 0x40 MLOAD PUSH2 0x1D84 SWAP11 SWAP10 SWAP9 SWAP8 SWAP7 SWAP6 SWAP5 SWAP4 SWAP3 SWAP2 SWAP1 PUSH2 0x30F5 JUMP JUMPDEST PUSH1 0x40 MLOAD DUP1 SWAP2 SUB SWAP1 LOG2 POP POP POP POP POP POP POP POP POP POP POP JUMP JUMPDEST PUSH1 0x0 PUSH1 0x40 MLOAD SWAP1 POP SWAP1 JUMP JUMPDEST PUSH1 0x0 DUP1 REVERT JUMPDEST PUSH1 0x0 DUP1 REVERT JUMPDEST PUSH1 0x0 DUP1 REVERT JUMPDEST PUSH1 0x0 DUP1 REVERT JUMPDEST PUSH1 0x0 DUP1 REVERT JUMPDEST PUSH1 0x0 DUP1 DUP4 PUSH1 0x1F DUP5 ADD SLT PUSH2 0x1DD2 JUMPI PUSH2 0x1DD1 PUSH2 0x1DAD JUMP JUMPDEST JUMPDEST DUP3 CALLDATALOAD SWAP1 POP PUSH8 0xFFFFFFFFFFFFFFFF DUP2 GT ISZERO PUSH2 0x1DEF JUMPI PUSH2 0x1DEE PUSH2 0x1DB2 JUMP JUMPDEST JUMPDEST PUSH1 0x20 DUP4 ADD SWAP2 POP DUP4 PUSH1 0x1 DUP3 MUL DUP4 ADD GT ISZERO PUSH2 0x1E0B JUMPI PUSH2 0x1E0A PUSH2 0x1DB7 JUMP JUMPDEST JUMPDEST SWAP3 POP SWAP3 SWAP1 POP JUMP JUMPDEST PUSH1 0x0 DUP2 SWAP1 POP SWAP2 SWAP1 POP JUMP JUMPDEST PUSH2 0x1E25 DUP2 PUSH2 0x1E12 JUMP JUMPDEST DUP2 EQ PUSH2 0x1E30 JUMPI PUSH1 0x0 DUP1 REVERT JUMPDEST POP JUMP JUMPDEST PUSH1 0x0 DUP2 CALLDATALOAD SWAP1 POP PUSH2 0x1E42 DUP2 PUSH2 0x1E1C JUMP JUMPDEST SWAP3 SWAP2 POP POP JUMP JUMPDEST PUSH1 0x0 DUP1 PUSH1 0x0 PUSH1 0x40 DUP5 DUP7 SUB SLT ISZERO PUSH2 0x1E61 JUMPI PUSH2 0x1E60 PUSH2 0x1DA3 JUMP JUMPDEST JUMPDEST PUSH1 0x0 DUP5 ADD CALLDATALOAD PUSH8 0xFFFFFFFFFFFFFFFF DUP2 GT ISZERO PUSH2 0x1E7F JUMPI PUSH2 0x1E7E PUSH2 0x1DA8 JUMP JUMPDEST JUMPDEST PUSH2 0x1E8B DUP7 DUP3 DUP8 ADD PUSH2 0x1DBC JUMP JUMPDEST SWAP4 POP SWAP4 POP POP PUSH1 0x20 PUSH2 0x1E9E DUP7 DUP3 DUP8 ADD PUSH2 0x1E33 JUMP JUMPDEST SWAP2 POP POP SWAP3 POP SWAP3 POP SWAP3 JUMP JUMPDEST PUSH1 0x0 PUSH20 0xFFFFFFFFFFFFFFFFFFFFFFFFFFFFFFFFFFFFFFFF DUP3 AND SWAP1 POP SWAP2 SWAP1 POP JUMP JUMPDEST PUSH1 0x0 PUSH2 0x1ED3 DUP3 PUSH2 0x1EA8 JUMP JUMPDEST SWAP1 POP SWAP2 SWAP1 POP JUMP JUMPDEST PUSH2 0x1EE3 DUP2 PUSH2 0x1EC8 JUMP JUMPDEST DUP2 EQ PUSH2 0x1EEE JUMPI PUSH1 0x0 DUP1 REVERT JUMPDEST POP JUMP JUMPDEST PUSH1 0x0 DUP2 CALLDATALOAD SWAP1 POP PUSH2 0x1F00 DUP2 PUSH2 0x1EDA JUMP JUMPDEST SWAP3 SWAP2 POP POP JUMP JUMPDEST PUSH1 0x0 DUP1 REVERT JUMPDEST PUSH1 0x0 PUSH1 0x1F NOT PUSH1 0x1F DUP4 ADD AND SWAP1 POP SWAP2 SWAP1 POP JUMP JUMPDEST PUSH32 0x4E487B7100000000000000000000000000000000000000000000000000000000 PUSH1 0x0 MSTORE PUSH1 0x41 PUSH1 0x4 MSTORE PUSH1 0x24 PUSH1 0x0 REVERT JUMPDEST PUSH2 0x1F54 DUP3 PUSH2 0x1F0B JUMP JUMPDEST DUP2 ADD DUP2 DUP2 LT PUSH8 0xFFFFFFFFFFFFFFFF DUP3 GT OR ISZERO PUSH2 0x1F73 JUMPI PUSH2 0x1F72 PUSH2 0x1F1C JUMP JUMPDEST JUMPDEST DUP1 PUSH1 0x40 MSTORE POP POP POP JUMP JUMPDEST PUSH1 0x0 PUSH2 0x1F86 PUSH2 0x1D99 JUMP JUMPDEST SWAP1 POP PUSH2 0x1F92 DUP3 DUP3 PUSH2 0x1F4B JUMP JUMPDEST SWAP2 SWAP1 POP JUMP JUMPDEST PUSH1 0x0 PUSH8 0xFFFFFFFFFFFFFFFF DUP3 GT ISZERO PUSH2 0x1FB2 JUMPI PUSH2 0x1FB1 PUSH2 0x1F1C JUMP JUMPDEST JUMPDEST PUSH2 0x1FBB DUP3 PUSH2 0x1F0B JUMP JUMPDEST SWAP1 POP PUSH1 0x20 DUP2 ADD SWAP1 POP SWAP2 SWAP1 POP JUMP JUMPDEST DUP3 DUP2 DUP4 CALLDATACOPY PUSH1 0x0 DUP4 DUP4 ADD MSTORE POP POP POP JUMP JUMPDEST PUSH1 0x0 PUSH2 0x1FEA PUSH2 0x1FE5 DUP5 PUSH2 0x1F97 JUMP JUMPDEST PUSH2 0x1F7C JUMP JUMPDEST SWAP1 POP DUP3 DUP2 MSTORE PUSH1 0x20 DUP2 ADD DUP5 DUP5 DUP5 ADD GT ISZERO PUSH2 0x2006 JUMPI PUSH2 0x2005 PUSH2 0x1F06 JUMP JUMPDEST JUMPDEST PUSH2 0x2011 DUP5 DUP3 DUP6 PUSH2 0x1FC8 JUMP JUMPDEST POP SWAP4 SWAP3 POP POP POP JUMP JUMPDEST PUSH1 0x0 DUP3 PUSH1 0x1F DUP4 ADD SLT PUSH2 0x202E JUMPI PUSH2 0x202D PUSH2 0x1DAD JUMP JUMPDEST JUMPDEST DUP2 CALLDATALOAD PUSH2 0x203E DUP5 DUP3 PUSH1 0x20 DUP7 ADD PUSH2 0x1FD7 JUMP JUMPDEST SWAP2 POP POP SWAP3 SWAP2 POP POP JUMP JUMPDEST PUSH1 0x0 DUP1 PUSH1 0x40 DUP4 DUP6 SUB SLT ISZERO PUSH2 0x205E JUMPI PUSH2 0x205D PUSH2 0x1DA3 JUMP JUMPDEST JUMPDEST PUSH1 0x0 PUSH2 0x206C DUP6 DUP3 DUP7 ADD PUSH2 0x1EF1 JUMP JUMPDEST SWAP3 POP POP PUSH1 0x20 DUP4 ADD CALLDATALOAD PUSH8 0xFFFFFFFFFFFFFFFF DUP2 GT ISZERO PUSH2 0x208D JUMPI PUSH2 0x208C PUSH2 0x1DA8 JUMP JUMPDEST JUMPDEST PUSH2 0x2099 DUP6 DUP3 DUP7 ADD PUSH2 0x2019 JUMP JUMPDEST SWAP2 POP POP SWAP3 POP SWAP3 SWAP1 POP JUMP JUMPDEST PUSH2 0x20AC DUP2 PUSH2 0x1E12 JUMP JUMPDEST DUP3 MSTORE POP POP JUMP JUMPDEST PUSH1 0x0 PUSH1 0x20 DUP3 ADD SWAP1 POP PUSH2 0x20C7 PUSH1 0x0 DUP4 ADD DUP5 PUSH2 0x20A3 JUMP JUMPDEST SWAP3 SWAP2 POP POP JUMP JUMPDEST PUSH1 0x0 DUP1 PUSH1 0x40 DUP4 DUP6 SUB SLT ISZERO PUSH2 0x20E4 JUMPI PUSH2 0x20E3 PUSH2 0x1DA3 JUMP JUMPDEST JUMPDEST PUSH1 0x0 DUP4 ADD CALLDATALOAD PUSH8 0xFFFFFFFFFFFFFFFF DUP2 GT ISZERO PUSH2 0x2102 JUMPI PUSH2 0x2101 PUSH2 0x1DA8 JUMP JUMPDEST JUMPDEST PUSH2 0x210E DUP6 DUP3 DUP7 ADD PUSH2 0x2019 JUMP JUMPDEST SWAP3 POP POP PUSH1 0x20 DUP4 ADD CALLDATALOAD PUSH8 0xFFFFFFFFFFFFFFFF DUP2 GT ISZERO PUSH2 0x212F JUMPI PUSH2 0x212E PUSH2 0x1DA8 JUMP JUMPDEST JUMPDEST PUSH2 0x213B DUP6 DUP3 DUP7 ADD PUSH2 0x2019 JUMP JUMPDEST SWAP2 POP POP SWAP3 POP SWAP3 SWAP1 POP JUMP JUMPDEST PUSH1 0x0 DUP2 MLOAD SWAP1 POP SWAP2 SWAP1 POP JUMP JUMPDEST PUSH1 0x0 DUP3 DUP3 MSTORE PUSH1 0x20 DUP3 ADD SWAP1 POP SWAP3 SWAP2 POP POP JUMP JUMPDEST PUSH1 0x0 JUMPDEST DUP4 DUP2 LT ISZERO PUSH2 0x217F JUMPI DUP1 DUP3 ADD MLOAD DUP2 DUP5 ADD MSTORE PUSH1 0x20 DUP2 ADD SWAP1 POP PUSH2 0x2164 JUMP JUMPDEST PUSH1 0x0 DUP5 DUP5 ADD MSTORE POP POP POP POP JUMP JUMPDEST PUSH1 0x0 PUSH2 0x2196 DUP3 PUSH2 0x2145 JUMP JUMPDEST PUSH2 0x21A0 DUP2 DUP6 PUSH2 0x2150 JUMP JUMPDEST SWAP4 POP PUSH2 0x21B0 DUP2 DUP6 PUSH1 0x20 DUP7 ADD PUSH2 0x2161 JUMP JUMPDEST PUSH2 0x21B9 DUP2 PUSH2 0x1F0B JUMP JUMPDEST DUP5 ADD SWAP2 POP POP SWAP3 SWAP2 POP POP JUMP JUMPDEST PUSH1 0x0 PUSH1 0x20 DUP3 ADD SWAP1 POP DUP2 DUP2 SUB PUSH1 0x0 DUP4 ADD MSTORE PUSH2 0x21DE DUP2 DUP5 PUSH2 0x218B JUMP JUMPDEST SWAP1 POP SWAP3 SWAP2 POP POP JUMP JUMPDEST PUSH1 0x0 DUP1 PUSH1 0x0 PUSH1 0x40 DUP5 DUP7 SUB SLT ISZERO PUSH2 0x21FF JUMPI PUSH2 0x21FE PUSH2 0x1DA3 JUMP JUMPDEST JUMPDEST PUSH1 0x0 DUP5 ADD CALLDATALOAD PUSH8 0xFFFFFFFFFFFFFFFF DUP2 GT ISZERO PUSH2 0x221D JUMPI PUSH2 0x221C PUSH2 0x1DA8 JUMP JUMPDEST JUMPDEST PUSH2 0x2229 DUP7 DUP3 DUP8 ADD PUSH2 0x1DBC JUMP JUMPDEST SWAP4 POP SWAP4 POP POP PUSH1 0x20 PUSH2 0x223C DUP7 DUP3 DUP8 ADD PUSH2 0x1EF1 JUMP JUMPDEST SWAP2 POP POP SWAP3 POP SWAP3 POP SWAP3 JUMP JUMPDEST PUSH1 0x0 PUSH1 0x20 DUP3 DUP5 SUB SLT ISZERO PUSH2 0x225C JUMPI PUSH2 0x225B PUSH2 0x1DA3 JUMP JUMPDEST JUMPDEST PUSH1 0x0 DUP3 ADD CALLDATALOAD PUSH8 0xFFFFFFFFFFFFFFFF DUP2 GT ISZERO PUSH2 0x227A JUMPI PUSH2 0x2279 PUSH2 0x1DA8 JUMP JUMPDEST JUMPDEST PUSH2 0x2286 DUP5 DUP3 DUP6 ADD PUSH2 0x2019 JUMP JUMPDEST SWAP2 POP POP SWAP3 SWAP2 POP POP JUMP JUMPDEST PUSH2 0x2298 DUP2 PUSH2 0x1EC8 JUMP JUMPDEST DUP3 MSTORE POP POP JUMP JUMPDEST PUSH1 0x0 PUSH1 0x20 DUP3 ADD SWAP1 POP PUSH2 0x22B3 PUSH1 0x0 DUP4 ADD DUP5 PUSH2 0x228F JUMP JUMPDEST SWAP3 SWAP2 POP POP JUMP JUMPDEST PUSH1 0x0 DUP1 PUSH1 0x0 PUSH1 0x40 DUP5 DUP7 SUB SLT ISZERO PUSH2 0x22D2 JUMPI PUSH2 0x22D1 PUSH2 0x1DA3 JUMP JUMPDEST JUMPDEST PUSH1 0x0 PUSH2 0x22E0 DUP7 DUP3 DUP8 ADD PUSH2 0x1EF1 JUMP JUMPDEST SWAP4 POP POP PUSH1 0x20 DUP5 ADD CALLDATALOAD PUSH8 0xFFFFFFFFFFFFFFFF DUP2 GT ISZERO PUSH2 0x2301 JUMPI PUSH2 0x2300 PUSH2 0x1DA8 JUMP JUMPDEST JUMPDEST PUSH2 0x230D DUP7 DUP3 DUP8 ADD PUSH2 0x1DBC JUMP JUMPDEST SWAP3 POP SWAP3 POP POP SWAP3 POP SWAP3 POP SWAP3 JUMP JUMPDEST PUSH1 0x0 DUP1 PUSH1 0x0 DUP1 PUSH1 0x40 DUP6 DUP8 SUB SLT ISZERO PUSH2 0x2333 JUMPI PUSH2 0x2332 PUSH2 0x1DA3 JUMP JUMPDEST JUMPDEST PUSH1 0x0 DUP6 ADD CALLDATALOAD PUSH8 0xFFFFFFFFFFFFFFFF DUP2 GT ISZERO PUSH2 0x2351 JUMPI PUSH2 0x2350 PUSH2 0x1DA8 JUMP JUMPDEST JUMPDEST PUSH2 0x235D DUP8 DUP3 DUP9 ADD PUSH2 0x1DBC JUMP JUMPDEST SWAP5 POP SWAP5 POP POP PUSH1 0x20 DUP6 ADD CALLDATALOAD PUSH8 0xFFFFFFFFFFFFFFFF DUP2 GT ISZERO PUSH2 0x2380 JUMPI PUSH2 0x237F PUSH2 0x1DA8 JUMP JUMPDEST JUMPDEST PUSH2 0x238C DUP8 DUP3 DUP9 ADD PUSH2 0x1DBC JUMP JUMPDEST SWAP3 POP SWAP3 POP POP SWAP3 SWAP6 SWAP2 SWAP5 POP SWAP3 POP JUMP JUMPDEST PUSH1 0x0 PUSH1 0xE0 DUP3 ADD SWAP1 POP PUSH2 0x23AF PUSH1 0x0 DUP4 ADD DUP11 PUSH2 0x20A3 JUMP JUMPDEST DUP2 DUP2 SUB PUSH1 0x20 DUP4 ADD MSTORE PUSH2 0x23C1 DUP2 DUP10 PUSH2 0x218B JUMP JUMPDEST SWAP1 POP DUP2 DUP2 SUB PUSH1 0x40 DUP4 ADD MSTORE PUSH2 0x23D5 DUP2 DUP9 PUSH2 0x218B JUMP JUMPDEST SWAP1 POP PUSH2 0x23E4 PUSH1 0x60 DUP4 ADD DUP8 PUSH2 0x20A3 JUMP JUMPDEST PUSH2 0x23F1 PUSH1 0x80 DUP4 ADD DUP7 PUSH2 0x20A3 JUMP JUMPDEST DUP2 DUP2 SUB PUSH1 0xA0 DUP4 ADD MSTORE PUSH2 0x2403 DUP2 DUP6 PUSH2 0x218B JUMP JUMPDEST SWAP1 POP PUSH2 0x2412 PUSH1 0xC0 DUP4 ADD DUP5 PUSH2 0x20A3 JUMP JUMPDEST SWAP9 SWAP8 POP POP POP POP POP POP POP POP JUMP JUMPDEST PUSH1 0x0 DUP2 SWAP1 POP SWAP2 SWAP1 POP JUMP JUMPDEST PUSH2 0x2431 DUP2 PUSH2 0x241E JUMP JUMPDEST DUP2 EQ PUSH2 0x243C JUMPI PUSH1 0x0 DUP1 REVERT JUMPDEST POP JUMP JUMPDEST PUSH1 0x0 DUP2 CALLDATALOAD SWAP1 POP PUSH2 0x244E DUP2 PUSH2 0x2428 JUMP JUMPDEST SWAP3 SWAP2 POP POP JUMP JUMPDEST PUSH1 0x0 DUP1 PUSH1 0x40 DUP4 DUP6 SUB SLT ISZERO PUSH2 0x246B JUMPI PUSH2 0x246A PUSH2 0x1DA3 JUMP JUMPDEST JUMPDEST PUSH1 0x0 PUSH2 0x2479 DUP6 DUP3 DUP7 ADD PUSH2 0x243F JUMP JUMPDEST SWAP3 POP POP PUSH1 0x20 DUP4 ADD CALLDATALOAD PUSH8 0xFFFFFFFFFFFFFFFF DUP2 GT ISZERO PUSH2 0x249A JUMPI PUSH2 0x2499 PUSH2 0x1DA8 JUMP JUMPDEST JUMPDEST PUSH2 0x24A6 DUP6 DUP3 DUP7 ADD PUSH2 0x2019 JUMP JUMPDEST SWAP2 POP POP SWAP3 POP SWAP3 SWAP1 POP JUMP JUMPDEST PUSH1 0x0 PUSH1 0x20 DUP3 DUP5 SUB SLT ISZERO PUSH2 0x24C6 JUMPI PUSH2 0x24C5 PUSH2 0x1DA3 JUMP JUMPDEST JUMPDEST PUSH1 0x0 PUSH2 0x24D4 DUP5 DUP3 DUP6 ADD PUSH2 0x243F JUMP JUMPDEST SWAP2 POP POP SWAP3 SWAP2 POP POP JUMP JUMPDEST PUSH1 0x0 DUP1 PUSH1 0x20 DUP4 DUP6 SUB SLT ISZERO PUSH2 0x24F4 JUMPI PUSH2 0x24F3 PUSH2 0x1DA3 JUMP JUMPDEST JUMPDEST PUSH1 0x0 DUP4 ADD CALLDATALOAD PUSH8 0xFFFFFFFFFFFFFFFF DUP2 GT ISZERO PUSH2 0x2512 JUMPI PUSH2 0x2511 PUSH2 0x1DA8 JUMP JUMPDEST JUMPDEST PUSH2 0x251E DUP6 DUP3 DUP7 ADD PUSH2 0x1DBC JUMP JUMPDEST SWAP3 POP SWAP3 POP POP SWAP3 POP SWAP3 SWAP1 POP JUMP JUMPDEST PUSH1 0x0 DUP1 PUSH1 0x0 DUP1 PUSH1 0x0 PUSH1 0x60 DUP7 DUP9 SUB SLT ISZERO PUSH2 0x2546 JUMPI PUSH2 0x2545 PUSH2 0x1DA3 JUMP JUMPDEST JUMPDEST PUSH1 0x0 DUP7 ADD CALLDATALOAD PUSH8 0xFFFFFFFFFFFFFFFF DUP2 GT ISZERO PUSH2 0x2564 JUMPI PUSH2 0x2563 PUSH2 0x1DA8 JUMP JUMPDEST JUMPDEST PUSH2 0x2570 DUP9 DUP3 DUP10 ADD PUSH2 0x1DBC JUMP JUMPDEST SWAP6 POP SWAP6 POP POP PUSH1 0x20 DUP7 ADD CALLDATALOAD PUSH8 0xFFFFFFFFFFFFFFFF DUP2 GT ISZERO PUSH2 0x2593 JUMPI PUSH2 0x2592 PUSH2 0x1DA8 JUMP JUMPDEST JUMPDEST PUSH2 0x259F DUP9 DUP3 DUP10 ADD PUSH2 0x1DBC JUMP JUMPDEST SWAP4 POP SWAP4 POP POP PUSH1 0x40 PUSH2 0x25B2 DUP9 DUP3 DUP10 ADD PUSH2 0x1E33 JUMP JUMPDEST SWAP2 POP POP SWAP3 SWAP6 POP SWAP3 SWAP6 SWAP1 SWAP4 POP JUMP JUMPDEST PUSH2 0x25C8 DUP2 PUSH2 0x241E JUMP JUMPDEST DUP3 MSTORE POP POP JUMP JUMPDEST PUSH1 0x0 PUSH1 0x20 DUP3 ADD SWAP1 POP PUSH2 0x25E3 PUSH1 0x0 DUP4 ADD DUP5 PUSH2 0x25BF JUMP JUMPDEST SWAP3 SWAP2 POP POP JUMP JUMPDEST PUSH1 0x0 PUSH1 0x40 DUP3 ADD SWAP1 POP DUP2 DUP2 SUB PUSH1 0x0 DUP4 ADD MSTORE PUSH2 0x2603 DUP2 DUP6 PUSH2 0x218B JUMP JUMPDEST SWAP1 POP PUSH2 0x2612 PUSH1 0x20 DUP4 ADD DUP5 PUSH2 0x20A3 JUMP JUMPDEST SWAP4 SWAP3 POP POP POP JUMP JUMPDEST PUSH1 0x0 PUSH1 0x40 DUP3 ADD SWAP1 POP PUSH2 0x262E PUSH1 0x0 DUP4 ADD DUP6 PUSH2 0x20A3 JUMP JUMPDEST DUP2 DUP2 SUB PUSH1 0x20 DUP4 ADD MSTORE PUSH2 0x2640 DUP2 DUP5 PUSH2 0x218B JUMP JUMPDEST SWAP1 POP SWAP4 SWAP3 POP POP POP JUMP JUMPDEST PUSH1 0x0 DUP1 PUSH1 0x0 DUP1 PUSH1 0x0 DUP1 PUSH1 0x0 DUP1 PUSH1 0x0 DUP1 PUSH2 0x120 DUP12 DUP14 SUB SLT ISZERO PUSH2 0x266D JUMPI PUSH2 0x266C PUSH2 0x1DA3 JUMP JUMPDEST JUMPDEST PUSH1 0x0 DUP12 ADD CALLDATALOAD PUSH8 0xFFFFFFFFFFFFFFFF DUP2 GT ISZERO PUSH2 0x268B JUMPI PUSH2 0x268A PUSH2 0x1DA8 JUMP JUMPDEST JUMPDEST PUSH2 0x2697 DUP14 DUP3 DUP15 ADD PUSH2 0x1DBC JUMP JUMPDEST SWAP11 POP SWAP11 POP POP PUSH1 0x20 PUSH2 0x26AA DUP14 DUP3 DUP15 ADD PUSH2 0x1E33 JUMP JUMPDEST SWAP9 POP POP PUSH1 0x40 DUP12 ADD CALLDATALOAD PUSH8 0xFFFFFFFFFFFFFFFF DUP2 GT ISZERO PUSH2 0x26CB JUMPI PUSH2 0x26CA PUSH2 0x1DA8 JUMP JUMPDEST JUMPDEST PUSH2 0x26D7 DUP14 DUP3 DUP15 ADD PUSH2 0x2019 JUMP JUMPDEST SWAP8 POP POP PUSH1 0x60 DUP12 ADD CALLDATALOAD PUSH8 0xFFFFFFFFFFFFFFFF DUP2 GT ISZERO PUSH2 0x26F8 JUMPI PUSH2 0x26F7 PUSH2 0x1DA8 JUMP JUMPDEST JUMPDEST PUSH2 0x2704 DUP14 DUP3 DUP15 ADD PUSH2 0x2019 JUMP JUMPDEST SWAP7 POP POP PUSH1 0x80 DUP12 ADD CALLDATALOAD PUSH8 0xFFFFFFFFFFFFFFFF DUP2 GT ISZERO PUSH2 0x2725 JUMPI PUSH2 0x2724 PUSH2 0x1DA8 JUMP JUMPDEST JUMPDEST PUSH2 0x2731 DUP14 DUP3 DUP15 ADD PUSH2 0x2019 JUMP JUMPDEST SWAP6 POP POP PUSH1 0xA0 PUSH2 0x2742 DUP14 DUP3 DUP15 ADD PUSH2 0x1E33 JUMP JUMPDEST SWAP5 POP POP PUSH1 0xC0 PUSH2 0x2753 DUP14 DUP3 DUP15 ADD PUSH2 0x1E33 JUMP JUMPDEST SWAP4 POP POP PUSH1 0xE0 DUP12 ADD CALLDATALOAD PUSH8 0xFFFFFFFFFFFFFFFF DUP2 GT ISZERO PUSH2 0x2774 JUMPI PUSH2 0x2773 PUSH2 0x1DA8 JUMP JUMPDEST JUMPDEST PUSH2 0x2780 DUP14 DUP3 DUP15 ADD PUSH2 0x2019 JUMP JUMPDEST SWAP3 POP POP PUSH2 0x100 PUSH2 0x2792 DUP14 DUP3 DUP15 ADD PUSH2 0x1E33 JUMP JUMPDEST SWAP2 POP POP SWAP3 SWAP6 SWAP9 SWAP12 SWAP2 SWAP5 SWAP8 SWAP11 POP SWAP3 SWAP6 SWAP9 POP JUMP JUMPDEST PUSH32 0x4F6E6C7920746865206F776E65722063616E2063616C6C20746869732066756E PUSH1 0x0 DUP3 ADD MSTORE PUSH32 0x6374696F6E000000000000000000000000000000000000000000000000000000 PUSH1 0x20 DUP3 ADD MSTORE POP JUMP JUMPDEST PUSH1 0x0 PUSH2 0x2800 PUSH1 0x25 DUP4 PUSH2 0x2150 JUMP JUMPDEST SWAP2 POP PUSH2 0x280B DUP3 PUSH2 0x27A4 JUMP JUMPDEST PUSH1 0x40 DUP3 ADD SWAP1 POP SWAP2 SWAP1 POP JUMP JUMPDEST PUSH1 0x0 PUSH1 0x20 DUP3 ADD SWAP1 POP DUP2 DUP2 SUB PUSH1 0x0 DUP4 ADD MSTORE PUSH2 0x282F DUP2 PUSH2 0x27F3 JUMP JUMPDEST SWAP1 POP SWAP2 SWAP1 POP JUMP JUMPDEST PUSH32 0x4E6F7420656E6F75676820746F6B656E7320617661696C61626C6520666F7220 PUSH1 0x0 DUP3 ADD MSTORE PUSH32 0x6D696E74696E6700000000000000000000000000000000000000000000000000 PUSH1 0x20 DUP3 ADD MSTORE POP JUMP JUMPDEST PUSH1 0x0 PUSH2 0x2892 PUSH1 0x27 DUP4 PUSH2 0x2150 JUMP JUMPDEST SWAP2 POP PUSH2 0x289D DUP3 PUSH2 0x2836 JUMP JUMPDEST PUSH1 0x40 DUP3 ADD SWAP1 POP SWAP2 SWAP1 POP JUMP JUMPDEST PUSH1 0x0 PUSH1 0x20 DUP3 ADD SWAP1 POP DUP2 DUP2 SUB PUSH1 0x0 DUP4 ADD MSTORE PUSH2 0x28C1 DUP2 PUSH2 0x2885 JUMP JUMPDEST SWAP1 POP SWAP2 SWAP1 POP JUMP JUMPDEST PUSH1 0x0 DUP2 SWAP1 POP SWAP3 SWAP2 POP POP JUMP JUMPDEST PUSH1 0x0 PUSH2 0x28DF DUP4 DUP6 PUSH2 0x28C8 JUMP JUMPDEST SWAP4 POP PUSH2 0x28EC DUP4 DUP6 DUP5 PUSH2 0x1FC8 JUMP JUMPDEST DUP3 DUP5 ADD SWAP1 POP SWAP4 SWAP3 POP POP POP JUMP JUMPDEST PUSH1 0x0 PUSH2 0x2905 DUP3 DUP5 DUP7 PUSH2 0x28D3 JUMP JUMPDEST SWAP2 POP DUP2 SWAP1 POP SWAP4 SWAP3 POP POP POP JUMP JUMPDEST PUSH32 0x4E487B7100000000000000000000000000000000000000000000000000000000 PUSH1 0x0 MSTORE PUSH1 0x11 PUSH1 0x4 MSTORE PUSH1 0x24 PUSH1 0x0 REVERT JUMPDEST PUSH1 0x0 PUSH2 0x294B DUP3 PUSH2 0x1E12 JUMP JUMPDEST SWAP2 POP PUSH2 0x2956 DUP4 PUSH2 0x1E12 JUMP JUMPDEST SWAP3 POP DUP3 DUP3 ADD SWAP1 POP DUP1 DUP3 GT ISZERO PUSH2 0x296E JUMPI PUSH2 0x296D PUSH2 0x2911 JUMP JUMPDEST JUMPDEST SWAP3 SWAP2 POP POP JUMP JUMPDEST PUSH1 0x0 PUSH2 0x297F DUP3 PUSH2 0x1E12 JUMP JUMPDEST SWAP2 POP PUSH2 0x298A DUP4 PUSH2 0x1E12 JUMP JUMPDEST SWAP3 POP DUP3 DUP3 SUB SWAP1 POP DUP2 DUP2 GT ISZERO PUSH2 0x29A2 JUMPI PUSH2 0x29A1 PUSH2 0x2911 JUMP JUMPDEST JUMPDEST SWAP3 SWAP2 POP POP JUMP JUMPDEST PUSH1 0x0 PUSH2 0x29B4 DUP4 DUP6 PUSH2 0x2150 JUMP JUMPDEST SWAP4 POP PUSH2 0x29C1 DUP4 DUP6 DUP5 PUSH2 0x1FC8 JUMP JUMPDEST PUSH2 0x29CA DUP4 PUSH2 0x1F0B JUMP JUMPDEST DUP5 ADD SWAP1 POP SWAP4 SWAP3 POP POP POP JUMP JUMPDEST PUSH1 0x0 PUSH1 0x40 DUP3 ADD SWAP1 POP DUP2 DUP2 SUB PUSH1 0x0 DUP4 ADD MSTORE PUSH2 0x29F0 DUP2 DUP6 DUP8 PUSH2 0x29A8 JUMP JUMPDEST SWAP1 POP PUSH2 0x29FF PUSH1 0x20 DUP4 ADD DUP5 PUSH2 0x20A3 JUMP JUMPDEST SWAP5 SWAP4 POP POP POP POP JUMP JUMPDEST PUSH32 0x4E487B7100000000000000000000000000000000000000000000000000000000 PUSH1 0x0 MSTORE PUSH1 0x22 PUSH1 0x4 MSTORE PUSH1 0x24 PUSH1 0x0 REVERT JUMPDEST PUSH1 0x0 PUSH1 0x2 DUP3 DIV SWAP1 POP PUSH1 0x1 DUP3 AND DUP1 PUSH2 0x2A4E JUMPI PUSH1 0x7F DUP3 AND SWAP2 POP JUMPDEST PUSH1 0x20 DUP3 LT DUP2 SUB PUSH2 0x2A61 JUMPI PUSH2 0x2A60 PUSH2 0x2A07 JUMP JUMPDEST JUMPDEST POP SWAP2 SWAP1 POP JUMP JUMPDEST PUSH32 0x4F6E6C792074686520636F6E7472616374206F776E65722063616E2064657369 PUSH1 0x0 DUP3 ADD MSTORE PUSH32 0x676E617465206120746869726420706572736F6E000000000000000000000000 PUSH1 0x20 DUP3 ADD MSTORE POP JUMP JUMPDEST PUSH1 0x0 PUSH2 0x2AC3 PUSH1 0x34 DUP4 PUSH2 0x2150 JUMP JUMPDEST SWAP2 POP PUSH2 0x2ACE DUP3 PUSH2 0x2A67 JUMP JUMPDEST PUSH1 0x40 DUP3 ADD SWAP1 POP SWAP2 SWAP1 POP JUMP JUMPDEST PUSH1 0x0 PUSH1 0x20 DUP3 ADD SWAP1 POP DUP2 DUP2 SUB PUSH1 0x0 DUP4 ADD MSTORE PUSH2 0x2AF2 DUP2 PUSH2 0x2AB6 JUMP JUMPDEST SWAP1 POP SWAP2 SWAP1 POP JUMP JUMPDEST PUSH32 0x4F6E6C792074686520746F6B656E206F776E6572206F722064657369676E6174 PUSH1 0x0 DUP3 ADD MSTORE PUSH32 0x656420746869726420706572736F6E2063616E207570646174652066756E6465 PUSH1 0x20 DUP3 ADD MSTORE PUSH32 0x645F696E74000000000000000000000000000000000000000000000000000000 PUSH1 0x40 DUP3 ADD MSTORE POP JUMP JUMPDEST PUSH1 0x0 PUSH2 0x2B7B PUSH1 0x45 DUP4 PUSH2 0x2150 JUMP JUMPDEST SWAP2 POP PUSH2 0x2B86 DUP3 PUSH2 0x2AF9 JUMP JUMPDEST PUSH1 0x60 DUP3 ADD SWAP1 POP SWAP2 SWAP1 POP JUMP JUMPDEST PUSH1 0x0 PUSH1 0x20 DUP3 ADD SWAP1 POP DUP2 DUP2 SUB PUSH1 0x0 DUP4 ADD MSTORE PUSH2 0x2BAA DUP2 PUSH2 0x2B6E JUMP JUMPDEST SWAP1 POP SWAP2 SWAP1 POP JUMP JUMPDEST PUSH1 0x0 PUSH1 0x60 DUP3 ADD SWAP1 POP DUP2 DUP2 SUB PUSH1 0x0 DUP4 ADD MSTORE PUSH2 0x2BCC DUP2 DUP7 DUP9 PUSH2 0x29A8 JUMP JUMPDEST SWAP1 POP PUSH2 0x2BDB PUSH1 0x20 DUP4 ADD DUP6 PUSH2 0x20A3 JUMP JUMPDEST PUSH2 0x2BE8 PUSH1 0x40 DUP4 ADD DUP5 PUSH2 0x25BF JUMP JUMPDEST SWAP6 SWAP5 POP POP POP POP POP JUMP JUMPDEST PUSH32 0x507572636861736520616D6F756E74206D757374206265206772656174657220 PUSH1 0x0 DUP3 ADD MSTORE PUSH32 0x7468616E20300000000000000000000000000000000000000000000000000000 PUSH1 0x20 DUP3 ADD MSTORE POP JUMP JUMPDEST PUSH1 0x0 PUSH2 0x2C4D PUSH1 0x26 DUP4 PUSH2 0x2150 JUMP JUMPDEST SWAP2 POP PUSH2 0x2C58 DUP3 PUSH2 0x2BF1 JUMP JUMPDEST PUSH1 0x40 DUP3 ADD SWAP1 POP SWAP2 SWAP1 POP JUMP JUMPDEST PUSH1 0x0 PUSH1 0x20 DUP3 ADD SWAP1 POP DUP2 DUP2 SUB PUSH1 0x0 DUP4 ADD MSTORE PUSH2 0x2C7C DUP2 PUSH2 0x2C40 JUMP JUMPDEST SWAP1 POP SWAP2 SWAP1 POP JUMP JUMPDEST PUSH32 0x4E6F7420656E6F75676820746F6B656E7320617661696C61626C6520666F7220 PUSH1 0x0 DUP3 ADD MSTORE PUSH32 0x7075726368617365000000000000000000000000000000000000000000000000 PUSH1 0x20 DUP3 ADD MSTORE POP JUMP JUMPDEST PUSH1 0x0 PUSH2 0x2CDF PUSH1 0x28 DUP4 PUSH2 0x2150 JUMP JUMPDEST SWAP2 POP PUSH2 0x2CEA DUP3 PUSH2 0x2C83 JUMP JUMPDEST PUSH1 0x40 DUP3 ADD SWAP1 POP SWAP2 SWAP1 POP JUMP JUMPDEST PUSH1 0x0 PUSH1 0x20 DUP3 ADD SWAP1 POP DUP2 DUP2 SUB PUSH1 0x0 DUP4 ADD MSTORE PUSH2 0x2D0E DUP2 PUSH2 0x2CD2 JUMP JUMPDEST SWAP1 POP SWAP2 SWAP1 POP JUMP JUMPDEST PUSH1 0x0 PUSH2 0x2D20 DUP3 PUSH2 0x1E12 JUMP JUMPDEST SWAP2 POP PUSH2 0x2D2B DUP4 PUSH2 0x1E12 JUMP JUMPDEST SWAP3 POP DUP3 DUP3 MUL PUSH2 0x2D39 DUP2 PUSH2 0x1E12 JUMP JUMPDEST SWAP2 POP DUP3 DUP3 DIV DUP5 EQ DUP4 ISZERO OR PUSH2 0x2D50 JUMPI PUSH2 0x2D4F PUSH2 0x2911 JUMP JUMPDEST JUMPDEST POP SWAP3 SWAP2 POP POP JUMP JUMPDEST PUSH32 0x496E636F727265637420457468657220616D6F756E742073656E740000000000 PUSH1 0x0 DUP3 ADD MSTORE POP JUMP JUMPDEST PUSH1 0x0 PUSH2 0x2D8D PUSH1 0x1B DUP4 PUSH2 0x2150 JUMP JUMPDEST SWAP2 POP PUSH2 0x2D98 DUP3 PUSH2 0x2D57 JUMP JUMPDEST PUSH1 0x20 DUP3 ADD SWAP1 POP SWAP2 SWAP1 POP JUMP JUMPDEST PUSH1 0x0 PUSH1 0x20 DUP3 ADD SWAP1 POP DUP2 DUP2 SUB PUSH1 0x0 DUP4 ADD MSTORE PUSH2 0x2DBC DUP2 PUSH2 0x2D80 JUMP JUMPDEST SWAP1 POP SWAP2 SWAP1 POP JUMP JUMPDEST PUSH1 0x0 PUSH2 0x2DCE DUP3 PUSH2 0x2145 JUMP JUMPDEST PUSH2 0x2DD8 DUP2 DUP6 PUSH2 0x28C8 JUMP JUMPDEST SWAP4 POP PUSH2 0x2DE8 DUP2 DUP6 PUSH1 0x20 DUP7 ADD PUSH2 0x2161 JUMP JUMPDEST DUP1 DUP5 ADD SWAP2 POP POP SWAP3 SWAP2 POP POP JUMP JUMPDEST PUSH1 0x0 PUSH2 0x2E00 DUP3 DUP5 PUSH2 0x2DC3 JUMP JUMPDEST SWAP2 POP DUP2 SWAP1 POP SWAP3 SWAP2 POP POP JUMP JUMPDEST PUSH1 0x0 DUP2 SWAP1 POP DUP2 PUSH1 0x0 MSTORE PUSH1 0x20 PUSH1 0x0 KECCAK256 SWAP1 POP SWAP2 SWAP1 POP JUMP JUMPDEST PUSH1 0x0 PUSH1 0x20 PUSH1 0x1F DUP4 ADD DIV SWAP1 POP SWAP2 SWAP1 POP JUMP JUMPDEST PUSH1 0x0 DUP3 DUP3 SHL SWAP1 POP SWAP3 SWAP2 POP POP JUMP JUMPDEST PUSH1 0x0 PUSH1 0x8 DUP4 MUL PUSH2 0x2E6D PUSH32 0xFFFFFFFFFFFFFFFFFFFFFFFFFFFFFFFFFFFFFFFFFFFFFFFFFFFFFFFFFFFFFFFF DUP3 PUSH2 0x2E30 JUMP JUMPDEST PUSH2 0x2E77 DUP7 DUP4 PUSH2 0x2E30 JUMP JUMPDEST SWAP6 POP DUP1 NOT DUP5 AND SWAP4 POP DUP1 DUP7 AND DUP5 OR SWAP3 POP POP POP SWAP4 SWAP3 POP POP POP JUMP JUMPDEST PUSH1 0x0 DUP2 SWAP1 POP SWAP2 SWAP1 POP JUMP JUMPDEST PUSH1 0x0 PUSH2 0x2EB4 PUSH2 0x2EAF PUSH2 0x2EAA DUP5 PUSH2 0x1E12 JUMP JUMPDEST PUSH2 0x2E8F JUMP JUMPDEST PUSH2 0x1E12 JUMP JUMPDEST SWAP1 POP SWAP2 SWAP1 POP JUMP JUMPDEST PUSH1 0x0 DUP2 SWAP1 POP SWAP2 SWAP1 POP JUMP JUMPDEST PUSH2 0x2ECE DUP4 PUSH2 0x2E99 JUMP JUMPDEST PUSH2 0x2EE2 PUSH2 0x2EDA DUP3 PUSH2 0x2EBB JUMP JUMPDEST DUP5 DUP5 SLOAD PUSH2 0x2E3D JUMP JUMPDEST DUP3 SSTORE POP POP POP POP JUMP JUMPDEST PUSH1 0x0 SWAP1 JUMP JUMPDEST PUSH2 0x2EF7 PUSH2 0x2EEA JUMP JUMPDEST PUSH2 0x2F02 DUP2 DUP5 DUP5 PUSH2 0x2EC5 JUMP JUMPDEST POP POP POP JUMP JUMPDEST JUMPDEST DUP2 DUP2 LT ISZERO PUSH2 0x2F26 JUMPI PUSH2 0x2F1B PUSH1 0x0 DUP3 PUSH2 0x2EEF JUMP JUMPDEST PUSH1 0x1 DUP2 ADD SWAP1 POP PUSH2 0x2F08 JUMP JUMPDEST POP POP JUMP JUMPDEST PUSH1 0x1F DUP3 GT ISZERO PUSH2 0x2F6B JUMPI PUSH2 0x2F3C DUP2 PUSH2 0x2E0B JUMP JUMPDEST PUSH2 0x2F45 DUP5 PUSH2 0x2E20 JUMP JUMPDEST DUP2 ADD PUSH1 0x20 DUP6 LT ISZERO PUSH2 0x2F54 JUMPI DUP2 SWAP1 POP JUMPDEST PUSH2 0x2F68 PUSH2 0x2F60 DUP6 PUSH2 0x2E20 JUMP JUMPDEST DUP4 ADD DUP3 PUSH2 0x2F07 JUMP JUMPDEST POP POP JUMPDEST POP POP POP JUMP JUMPDEST PUSH1 0x0 DUP3 DUP3 SHR SWAP1 POP SWAP3 SWAP2 POP POP JUMP JUMPDEST PUSH1 0x0 PUSH2 0x2F8E PUSH1 0x0 NOT DUP5 PUSH1 0x8 MUL PUSH2 0x2F70 JUMP JUMPDEST NOT DUP1 DUP4 AND SWAP2 POP POP SWAP3 SWAP2 POP POP JUMP JUMPDEST PUSH1 0x0 PUSH2 0x2FA7 DUP4 DUP4 PUSH2 0x2F7D JUMP JUMPDEST SWAP2 POP DUP3 PUSH1 0x2 MUL DUP3 OR SWAP1 POP SWAP3 SWAP2 POP POP JUMP JUMPDEST PUSH2 0x2FC0 DUP3 PUSH2 0x2145 JUMP JUMPDEST PUSH8 0xFFFFFFFFFFFFFFFF DUP2 GT ISZERO PUSH2 0x2FD9 JUMPI PUSH2 0x2FD8 PUSH2 0x1F1C JUMP JUMPDEST JUMPDEST PUSH2 0x2FE3 DUP3 SLOAD PUSH2 0x2A36 JUMP JUMPDEST PUSH2 0x2FEE DUP3 DUP3 DUP6 PUSH2 0x2F2A JUMP JUMPDEST PUSH1 0x0 PUSH1 0x20 SWAP1 POP PUSH1 0x1F DUP4 GT PUSH1 0x1 DUP2 EQ PUSH2 0x3021 JUMPI PUSH1 0x0 DUP5 ISZERO PUSH2 0x300F JUMPI DUP3 DUP8 ADD MLOAD SWAP1 POP JUMPDEST PUSH2 0x3019 DUP6 DUP3 PUSH2 0x2F9B JUMP JUMPDEST DUP7 SSTORE POP PUSH2 0x3081 JUMP JUMPDEST PUSH1 0x1F NOT DUP5 AND PUSH2 0x302F DUP7 PUSH2 0x2E0B JUMP JUMPDEST PUSH1 0x0 JUMPDEST DUP3 DUP2 LT ISZERO PUSH2 0x3057 JUMPI DUP5 DUP10 ADD MLOAD DUP3 SSTORE PUSH1 0x1 DUP3 ADD SWAP2 POP PUSH1 0x20 DUP6 ADD SWAP5 POP PUSH1 0x20 DUP2 ADD SWAP1 POP PUSH2 0x3032 JUMP JUMPDEST DUP7 DUP4 LT ISZERO PUSH2 0x3074 JUMPI DUP5 DUP10 ADD MLOAD PUSH2 0x3070 PUSH1 0x1F DUP10 AND DUP3 PUSH2 0x2F7D JUMP JUMPDEST DUP4 SSTORE POP JUMPDEST PUSH1 0x1 PUSH1 0x2 DUP9 MUL ADD DUP9 SSTORE POP POP POP JUMPDEST POP POP POP POP POP POP JUMP JUMPDEST PUSH32 0x4E6F7420656E6F75676820746F6B656E7320746F206275726E00000000000000 PUSH1 0x0 DUP3 ADD MSTORE POP JUMP JUMPDEST PUSH1 0x0 PUSH2 0x30BF PUSH1 0x19 DUP4 PUSH2 0x2150 JUMP JUMPDEST SWAP2 POP PUSH2 0x30CA DUP3 PUSH2 0x3089 JUMP JUMPDEST PUSH1 0x20 DUP3 ADD SWAP1 POP SWAP2 SWAP1 POP JUMP JUMPDEST PUSH1 0x0 PUSH1 0x20 DUP3 ADD SWAP1 POP DUP2 DUP2 SUB PUSH1 0x0 DUP4 ADD MSTORE PUSH2 0x30EE DUP2 PUSH2 0x30B2 JUMP JUMPDEST SWAP1 POP SWAP2 SWAP1 POP JUMP JUMPDEST PUSH1 0x0 PUSH2 0x120 DUP3 ADD SWAP1 POP DUP2 DUP2 SUB PUSH1 0x0 DUP4 ADD MSTORE PUSH2 0x3111 DUP2 DUP13 DUP15 PUSH2 0x29A8 JUMP JUMPDEST SWAP1 POP PUSH2 0x3120 PUSH1 0x20 DUP4 ADD DUP12 PUSH2 0x20A3 JUMP JUMPDEST DUP2 DUP2 SUB PUSH1 0x40 DUP4 ADD MSTORE PUSH2 0x3132 DUP2 DUP11 PUSH2 0x218B JUMP JUMPDEST SWAP1 POP DUP2 DUP2 SUB PUSH1 0x60 DUP4 ADD MSTORE PUSH2 0x3146 DUP2 DUP10 PUSH2 0x218B JUMP JUMPDEST SWAP1 POP DUP2 DUP2 SUB PUSH1 0x80 DUP4 ADD MSTORE PUSH2 0x315A DUP2 DUP9 PUSH2 0x218B JUMP JUMPDEST SWAP1 POP PUSH2 0x3169 PUSH1 0xA0 DUP4 ADD DUP8 PUSH2 0x20A3 JUMP JUMPDEST PUSH2 0x3176 PUSH1 0xC0 DUP4 ADD DUP7 PUSH2 0x20A3 JUMP JUMPDEST DUP2 DUP2 SUB PUSH1 0xE0 DUP4 ADD MSTORE PUSH2 0x3188 DUP2 DUP6 PUSH2 0x218B JUMP JUMPDEST SWAP1 POP PUSH2 0x3198 PUSH2 0x100 DUP4 ADD DUP5 PUSH2 0x20A3 JUMP JUMPDEST SWAP12 SWAP11 POP POP POP POP POP POP POP POP POP POP POP JUMP INVALID LOG2 PUSH5 0x6970667358 0x22 SLT KECCAK256 PUSH32 0x97DCF6F13D4D1EF2CD2D5E5D34AB3140F86D50550688F4AB83D71C4026E2AC64 PUSH20 0x6F6C634300081800330000000000000000000000 "},"methodIdentifiers":{"WriteData(string,uint256,string,string,string,uint256,uint256,string,uint256)":"f6706a5c","awardAmounts(string,string)":"4286d01e","awardDocHashes(string,string)":"195b8743","awardIDByTokenName(string)":"9ef00bd3","balances(address,string)":"05d01f50","buyerIDs(string,string)":"0f3f74d7","callFunction()":"bedfc5a1","designateThirdPerson(string,address)":"1335afbf","financerIDs(string,string)":"bef26920","fundedInt(bytes32,string)":"66f857f4","getBalance(address,string)":"1dd7cecf","getData(string,string)":"596ba5bb","getNumber()":"f2c9ecd8","getOwnerByTokenName(string)":"71647469","getTotalSupply()":"c4e41b22","mint(string,uint256)":"056b01ce","myFunction()":"c3780a3a","owner()":"8da5cb5b","ownersByTokenName(string)":"190271df","purchase(string,uint256)":"aa38e38c","supplierIDs(string,string)":"91402e28","thirdPersonByAwardID(bytes32)":"6f86ad39","tokensAvailable()":"60659a92","totalSupply()":"18160ddd","updateFundedInt(string,string,uint256)":"9e1e0b6e"}}}}}