{
    "contractName": "TokenSaleContract",
    "abi": [
        {
            "inputs": [],
            "stateMutability": "nonpayable",
            "type": "constructor"
        },
        {
            "anonymous": false,
            "inputs": [
                {
                    "indexed": true,
                    "internalType": "address",
                    "name": "updater",
                    "type": "address"
                },
                {
                    "indexed": false,
                    "internalType": "string",
                    "name": "tokenName",
                    "type": "string"
                },
                {
                    "indexed": false,
                    "internalType": "string",
                    "name": "newFundedInt",
                    "type": "string"
                },
                {
                    "indexed": false,
                    "internalType": "bytes32",
                    "name": "hashedAwardID",
                    "type": "bytes32"
                }
            ],
            "name": "FundedIntUpdated",
            "type": "event"
        },
        {
            "anonymous": false,
            "inputs": [
                {
                    "indexed": true,
                    "internalType": "address",
                    "name": "owner",
                    "type": "address"
                },
                {
                    "indexed": false,
                    "internalType": "string",
                    "name": "tokenName",
                    "type": "string"
                },
                {
                    "indexed": false,
                    "internalType": "uint256",
                    "name": "amount",
                    "type": "uint256"
                },
                {
                    "indexed": false,
                    "internalType": "string",
                    "name": "awardID",
                    "type": "string"
                },
                {
                    "indexed": false,
                    "internalType": "string",
                    "name": "buyerID",
                    "type": "string"
                },
                {
                    "indexed": false,
                    "internalType": "string",
                    "name": "supplierID",
                    "type": "string"
                },
                {
                    "indexed": false,
                    "internalType": "uint256",
                    "name": "awardAmount",
                    "type": "uint256"
                },
                {
                    "indexed": false,
                    "internalType": "string",
                    "name": "award_Doc_Hash",
                    "type": "string"
                },
                {
                    "indexed": false,
                    "internalType": "string",
                    "name": "financerID",
                    "type": "string"
                },
                {
                    "indexed": false,
                    "internalType": "string",
                    "name": "funded_int",
                    "type": "string"
                }
            ],
            "name": "TokensBurned",
            "type": "event"
        },
        {
            "anonymous": false,
            "inputs": [
                {
                    "indexed": true,
                    "internalType": "address",
                    "name": "owner",
                    "type": "address"
                },
                {
                    "indexed": false,
                    "internalType": "string",
                    "name": "tokenName",
                    "type": "string"
                },
                {
                    "indexed": false,
                    "internalType": "uint256",
                    "name": "amount",
                    "type": "uint256"
                }
            ],
            "name": "TokensMinted",
            "type": "event"
        },
        {
            "anonymous": false,
            "inputs": [
                {
                    "indexed": true,
                    "internalType": "address",
                    "name": "buyer",
                    "type": "address"
                },
                {
                    "indexed": false,
                    "internalType": "string",
                    "name": "tokenName",
                    "type": "string"
                },
                {
                    "indexed": false,
                    "internalType": "uint256",
                    "name": "amount",
                    "type": "uint256"
                }
            ],
            "name": "TokensPurchased",
            "type": "event"
        },
        {
            "inputs": [
                {
                    "internalType": "string",
                    "name": "",
                    "type": "string"
                },
                {
                    "internalType": "string",
                    "name": "",
                    "type": "string"
                }
            ],
            "name": "awardAmounts",
            "outputs": [
                {
                    "internalType": "uint256",
                    "name": "",
                    "type": "uint256"
                }
            ],
            "stateMutability": "view",
            "type": "function"
        },
        {
            "inputs": [
                {
                    "internalType": "string",
                    "name": "",
                    "type": "string"
                },
                {
                    "internalType": "string",
                    "name": "",
                    "type": "string"
                }
            ],
            "name": "awardDocHashes",
            "outputs": [
                {
                    "internalType": "string",
                    "name": "",
                    "type": "string"
                }
            ],
            "stateMutability": "view",
            "type": "function"
        },
        {
            "inputs": [
                {
                    "internalType": "string",
                    "name": "",
                    "type": "string"
                }
            ],
            "name": "awardIDByTokenName",
            "outputs": [
                {
                    "internalType": "bytes32",
                    "name": "",
                    "type": "bytes32"
                }
            ],
            "stateMutability": "view",
            "type": "function"
        },
        {
            "inputs": [
                {
                    "internalType": "address",
                    "name": "",
                    "type": "address"
                },
                {
                    "internalType": "string",
                    "name": "",
                    "type": "string"
                }
            ],
            "name": "balances",
            "outputs": [
                {
                    "internalType": "uint256",
                    "name": "",
                    "type": "uint256"
                }
            ],
            "stateMutability": "view",
            "type": "function"
        },
        {
            "inputs": [
                {
                    "internalType": "string",
                    "name": "",
                    "type": "string"
                },
                {
                    "internalType": "string",
                    "name": "",
                    "type": "string"
                }
            ],
            "name": "buyerIDs",
            "outputs": [
                {
                    "internalType": "string",
                    "name": "",
                    "type": "string"
                }
            ],
            "stateMutability": "view",
            "type": "function"
        },
        {
            "inputs": [
                {
                    "internalType": "string",
                    "name": "",
                    "type": "string"
                },
                {
                    "internalType": "string",
                    "name": "",
                    "type": "string"
                }
            ],
            "name": "financerIDs",
            "outputs": [
                {
                    "internalType": "string",
                    "name": "",
                    "type": "string"
                }
            ],
            "stateMutability": "view",
            "type": "function"
        },
        {
            "inputs": [
                {
                    "internalType": "bytes32",
                    "name": "",
                    "type": "bytes32"
                },
                {
                    "internalType": "string",
                    "name": "",
                    "type": "string"
                }
            ],
            "name": "fundedInt",
            "outputs": [
                {
                    "internalType": "string",
                    "name": "",
                    "type": "string"
                }
            ],
            "stateMutability": "view",
            "type": "function"
        },
        {
            "inputs": [],
            "name": "owner",
            "outputs": [
                {
                    "internalType": "address",
                    "name": "",
                    "type": "address"
                }
            ],
            "stateMutability": "view",
            "type": "function"
        },
        {
            "inputs": [
                {
                    "internalType": "string",
                    "name": "",
                    "type": "string"
                }
            ],
            "name": "ownersByTokenName",
            "outputs": [
                {
                    "internalType": "address",
                    "name": "",
                    "type": "address"
                }
            ],
            "stateMutability": "view",
            "type": "function"
        },
        {
            "inputs": [
                {
                    "internalType": "string",
                    "name": "",
                    "type": "string"
                },
                {
                    "internalType": "string",
                    "name": "",
                    "type": "string"
                }
            ],
            "name": "supplierIDs",
            "outputs": [
                {
                    "internalType": "string",
                    "name": "",
                    "type": "string"
                }
            ],
            "stateMutability": "view",
            "type": "function"
        },
        {
            "inputs": [
                {
                    "internalType": "bytes32",
                    "name": "",
                    "type": "bytes32"
                }
            ],
            "name": "thirdPersonByAwardID",
            "outputs": [
                {
                    "internalType": "address",
                    "name": "",
                    "type": "address"
                }
            ],
            "stateMutability": "view",
            "type": "function"
        },
        {
            "inputs": [],
            "name": "tokensAvailable",
            "outputs": [
                {
                    "internalType": "uint256",
                    "name": "",
                    "type": "uint256"
                }
            ],
            "stateMutability": "view",
            "type": "function"
        },
        {
            "inputs": [],
            "name": "totalSupply",
            "outputs": [
                {
                    "internalType": "uint256",
                    "name": "",
                    "type": "uint256"
                }
            ],
            "stateMutability": "view",
            "type": "function"
        },
        {
            "inputs": [
                {
                    "internalType": "string",
                    "name": "tokenName",
                    "type": "string"
                },
                {
                    "internalType": "uint256",
                    "name": "amount",
                    "type": "uint256"
                }
            ],
            "name": "mint",
            "outputs": [],
            "stateMutability": "nonpayable",
            "type": "function"
        },
        {
            "inputs": [
                {
                    "internalType": "string",
                    "name": "tokenName",
                    "type": "string"
                },
                {
                    "internalType": "uint256",
                    "name": "amount",
                    "type": "uint256"
                }
            ],
            "name": "purchase",
            "outputs": [],
            "stateMutability": "payable",
            "type": "function"
        },
        {
            "inputs": [
                {
                    "internalType": "string",
                    "name": "tokenName",
                    "type": "string"
                },
                {
                    "internalType": "uint256",
                    "name": "amount",
                    "type": "uint256"
                },
                {
                    "internalType": "string",
                    "name": "awardID",
                    "type": "string"
                },
                {
                    "internalType": "string",
                    "name": "buyerID",
                    "type": "string"
                },
                {
                    "internalType": "string",
                    "name": "supplierID",
                    "type": "string"
                },
                {
                    "internalType": "uint256",
                    "name": "awardAmount",
                    "type": "uint256"
                },
                {
                    "internalType": "string",
                    "name": "award_Doc_Hash",
                    "type": "string"
                },
                {
                    "internalType": "string",
                    "name": "financerID",
                    "type": "string"
                },
                {
                    "internalType": "string",
                    "name": "funded_int",
                    "type": "string"
                }
            ],
            "name": "WriteData",
            "outputs": [],
            "stateMutability": "nonpayable",
            "type": "function"
        },
        {
            "inputs": [
                {
                    "internalType": "string",
                    "name": "tokenName",
                    "type": "string"
                },
                {
                    "internalType": "string",
                    "name": "awardID",
                    "type": "string"
                }
            ],
            "name": "getData",
            "outputs": [
                {
                    "internalType": "uint256",
                    "name": "amount",
                    "type": "uint256"
                },
                {
                    "internalType": "string",
                    "name": "supplierID",
                    "type": "string"
                },
                {
                    "internalType": "uint256",
                    "name": "awardAmount",
                    "type": "uint256"
                },
                {
                    "internalType": "string",
                    "name": "award_Doc_Hash",
                    "type": "string"
                },
                {
                    "internalType": "string",
                    "name": "financerID",
                    "type": "string"
                },
                {
                    "internalType": "string",
                    "name": "funded_int",
                    "type": "string"
                }
            ],
            "stateMutability": "view",
            "type": "function"
        },
        {
            "inputs": [
                {
                    "internalType": "address",
                    "name": "account",
                    "type": "address"
                },
                {
                    "internalType": "string",
                    "name": "tokenName",
                    "type": "string"
                }
            ],
            "name": "getBalance",
            "outputs": [
                {
                    "internalType": "uint256",
                    "name": "",
                    "type": "uint256"
                }
            ],
            "stateMutability": "view",
            "type": "function"
        },
        {
            "inputs": [
                {
                    "internalType": "string",
                    "name": "tokenName",
                    "type": "string"
                },
                {
                    "internalType": "string",
                    "name": "awardID",
                    "type": "string"
                },
                {
                    "internalType": "string",
                    "name": "newFundedInt",
                    "type": "string"
                },
                {
                    "internalType": "string",
                    "name": "newFinancerID",
                    "type": "string"
                }
            ],
            "name": "updateFundedInt",
            "outputs": [],
            "stateMutability": "nonpayable",
            "type": "function"
        },
        {
            "inputs": [
                {
                    "internalType": "string",
                    "name": "awardID",
                    "type": "string"
                },
                {
                    "internalType": "address",
                    "name": "thirdPerson",
                    "type": "address"
                }
            ],
            "name": "designateThirdPerson",
            "outputs": [],
            "stateMutability": "nonpayable",
            "type": "function"
        }
    ],
    "bytecode": "0x608060405234801561001057600080fd5b5060008054600160a060020a03191633908117909155620f424060018190556002556040516004906100419061009f565b90815260408051602092819003830181208054600160a060020a031916600160a060020a0395861617905560015460008054909516855260039093529220909161008a9061009f565b908152604051908190036020019020556100c8565b7f64656661756c7400000000000000000000000000000000000000000000000000815260070190565b611f43806100d76000396000f3fe6080604052600436106100f25760e060020a6000350463056b01ce81146100f757806305d01f50146101195780630f3f74d7146101755780631335afbf146101a25780631397732c146101c257806318160ddd146101e2578063190271df146101f8578063195b8743146102515780631dd7cecf146102715780634286d01e14610291578063596ba5bb146102e657806360659a921461031857806366f857f41461032e5780636f86ad391461034e5780638da5cb5b1461038457806391402e28146103a45780639976af69146103c45780639ef00bd3146103e4578063aa38e38c1461041c578063bef269201461042f575b600080fd5b34801561010357600080fd5b5061011761011236600461195d565b61044f565b005b34801561012557600080fd5b50610162610134366004611746565b6003602090815260009283526040909220815180830184018051928152908401929093019190912091525481565b6040519081526020015b60405180910390f35b34801561018157600080fd5b50610195610190366004611b18565b61065e565b60405161016c9190611cfb565b3480156101ae57600080fd5b506101176101bd3660046117dc565b610720565b3480156101ce57600080fd5b506101176101dd3660046119a8565b61082a565b3480156101ee57600080fd5b5061016260015481565b34801561020457600080fd5b50610239610213366004611adc565b8051602081830181018051600482529282019190930120915254600160a060020a031681565b604051600160a060020a03909116815260200161016c565b34801561025d57600080fd5b5061019561026c366004611b18565b610b59565b34801561027d57600080fd5b5061016261028c3660046116f4565b610b9a565b34801561029d57600080fd5b506101626102ac366004611b18565b8151602081840181018051600882529282019482019490942091909352815180830184018051928152908401929093019190912091525481565b3480156102f257600080fd5b5061030661030136600461182f565b610bda565b60405161016c96959493929190611d96565b34801561032457600080fd5b5061016260025481565b34801561033a57600080fd5b506101956103493660046117ac565b610fa8565b34801561035a57600080fd5b50610239610369366004611793565b600c60205260009081526040902054600160a060020a031681565b34801561039057600080fd5b5060005461023990600160a060020a031681565b3480156103b057600080fd5b506101956103bf366004611b18565b610fdd565b3480156103d057600080fd5b506101176103df36600461189a565b61101e565b3480156103f057600080fd5b506101626103ff366004611adc565b805160208183018101805160058252928201919093012091525481565b61011761042a36600461195d565b611202565b34801561043b57600080fd5b5061019561044a366004611b18565b6114b6565b600054600160a060020a031633146104855760405160e560020a62461bcd02815260040161047c90611d15565b60405180910390fd5b8060025410156104db5760405160e560020a62461bcd0281526020600482015260276024820152600080516020611eee833981519152604482015260c860020a666d696e74696e6702606482015260840161047c565b6000600160a060020a0316600484846040516104f8929190611bc6565b90815260405190819003602001902054600160a060020a0316141561056957600054604051600160a060020a03909116906004906105399086908690611bc6565b9081526040519081900360200190208054600160a060020a0392909216600160a060020a03199092169190911790555b806003600060048686604051610580929190611bc6565b908152604080516020928190038301902054600160a060020a0316835290820192909252810160002090516105b89086908690611bc6565b908152602001604051809103902060008282546105d59190611dfc565b9250508190555080600260008282546105ee9190611e33565b90915550506040516004906106069085908590611bc6565b90815260405190819003602001812054600160a060020a0316907fb1b87c085f38f5c59007e65f6928950029cea43f05db762297f7eab488d5418c9061065190869086908690611c2c565b60405180910390a2505050565b815160208184018101805160068252928201948201949094209190935281518083018401805192815290840192909301919091209152805461069f90611e7a565b80601f01602080910402602001604051908101604052809291908181526020018280546106cb90611e7a565b80156107185780601f106106ed57610100808354040283529160200191610718565b820191906000526020600020905b8154815290600101906020018083116106fb57829003601f168201915b505050505081565b600054600160a060020a0316331461074d5760405160e560020a62461bcd02815260040161047c90611d15565b60008383604051602001610762929190611bc6565b60408051808303601f190181529190528051602090910120600054909150600160a060020a031633146107fa5760405160e560020a62461bcd02815260206004820152603460248201527f4f6e6c792074686520636f6e7472616374206f776e65722063616e20646573696044820152606160020a7333b730ba329030903a3434b932103832b939b7b702606482015260840161047c565b6000908152600c602052604090208054600160a060020a031916600160a060020a03929092169190911790555050565b60008760405160200161083d9190611bd6565b6040516020818303038152906040528051906020012090508660068c8c604051610868929190611bc6565b9081526020016040518091039020896040516108849190611bd6565b908152602001604051809103902090805190602001906108a59291906114f7565b508560078c8c6040516108b9929190611bc6565b9081526020016040518091039020896040516108d59190611bd6565b908152602001604051809103902090805190602001906108f69291906114f7565b508460088c8c60405161090a929190611bc6565b9081526020016040518091039020896040516109269190611bd6565b9081526020016040518091039020819055508360098c8c60405161094b929190611bc6565b9081526020016040518091039020896040516109679190611bd6565b908152602001604051809103902090805190602001906109889291906114f7565b5082600a8c8c60405161099c929190611bc6565b9081526020016040518091039020896040516109b89190611bd6565b908152602001604051809103902090805190602001906109d99291906114f7565b5081600b60008381526020019081526020016000208c8c6040516109fe929190611bc6565b90815260200160405180910390209080519060200190610a1f9291906114f7565b50336000908152600360205260409081902090518a9190610a43908e908e90611bc6565b9081526020016040518091039020541015610aa25760405160e560020a62461bcd0281526020600482015260196024820152603960020a782737ba1032b737bab3b4103a37b5b2b739903a3790313ab93702604482015260640161047c565b336000908152600360205260409081902090518a9190610ac5908e908e90611bc6565b90815260200160405180910390206000828254610ae29190611e33565b925050819055508860026000828254610afb9190611dfc565b909155505060405133907f861dd676a488bb77281c20f00f0eca665263ad11a2ec446c83bd9abba14f896490610b44908e908e908e908e908e908e908e908e908e908e90611c50565b60405180910390a25050505050505050505050565b815160208184018101805160098252928201948201949094209190935281518083018401805192815290840192909301919091209152805461069f90611e7a565b600160a060020a0383166000908152600360205260408082209051610bc29085908590611bc6565b90815260200160405180910390205490509392505050565b600060606000606080606060008888604051602001610bfa929190611bc6565b60408051601f198184030181528282528051602091820120336000908152600390925291902090925090610c31908d908d90611bc6565b908152602001604051809103902054965060078b8b604051610c54929190611bc6565b90815260200160405180910390208989604051610c72929190611bc6565b90815260200160405180910390208054610c8b90611e7a565b80601f0160208091040260200160405190810160405280929190818152602001828054610cb790611e7a565b8015610d045780601f10610cd957610100808354040283529160200191610d04565b820191906000526020600020905b815481529060010190602001808311610ce757829003601f168201915b5050505050955060088b8b604051610d1d929190611bc6565b90815260200160405180910390208989604051610d3b929190611bc6565b908152602001604051809103902054945060098b8b604051610d5e929190611bc6565b90815260200160405180910390208989604051610d7c929190611bc6565b90815260200160405180910390208054610d9590611e7a565b80601f0160208091040260200160405190810160405280929190818152602001828054610dc190611e7a565b8015610e0e5780601f10610de357610100808354040283529160200191610e0e565b820191906000526020600020905b815481529060010190602001808311610df157829003601f168201915b50505050509350600a8b8b604051610e27929190611bc6565b90815260200160405180910390208989604051610e45929190611bc6565b90815260200160405180910390208054610e5e90611e7a565b80601f0160208091040260200160405190810160405280929190818152602001828054610e8a90611e7a565b8015610ed75780601f10610eac57610100808354040283529160200191610ed7565b820191906000526020600020905b815481529060010190602001808311610eba57829003601f168201915b50505050509250600b60008281526020019081526020016000208b8b604051610f01929190611bc6565b90815260200160405180910390208054610f1a90611e7a565b80601f0160208091040260200160405190810160405280929190818152602001828054610f4690611e7a565b8015610f935780601f10610f6857610100808354040283529160200191610f93565b820191906000526020600020905b815481529060010190602001808311610f7657829003601f168201915b50505050509150509499939850945094509450565b600b60209081526000928352604090922081518083018401805192815290840192909301919091209152805461069f90611e7a565b815160208184018101805160078252928201948201949094209190935281518083018401805192815290840192909301919091209152805461069f90611e7a565b60008686604051602001611033929190611bc6565b6040516020818303038152906040528051906020012090506004898960405161105d929190611bc6565b9081526040519081900360200190205433600160a060020a03909116148061109b57506000818152600c6020526040902054600160a060020a031633145b6111215760405160e560020a62461bcd02815260206004820152604560248201527f4f6e6c792074686520746f6b656e206f776e6572206f722064657369676e617460448201527f656420746869726420706572736f6e2063616e207570646174652066756e6465606482015260da60020a641917da5b9d02608482015260a40161047c565b8484600b60008481526020019081526020016000208b8b604051611146929190611bc6565b90815260405190819003602001902061116092909161157b565b508282600a8b8b604051611175929190611bc6565b90815260200160405180910390208989604051611193929190611bc6565b9081526040519081900360200190206111ad92909161157b565b5033600160a060020a03167fbc831ceec47dcb2f99f9c6b3e604ed4e347428bf57fa40bc3ebbc3bd9ff729108a8a8888866040516111ef959493929190611bf2565b60405180910390a2505050505050505050565b600081116112675760405160e560020a62461bcd02815260206004820152602660248201527f507572636861736520616d6f756e74206d757374206265206772656174657220604482015260d460020a6507468616e20302606482015260840161047c565b80600360006004868660405161127e929190611bc6565b908152604080516020928190038301902054600160a060020a0316835290820192909252810160002090516112b69086908690611bc6565b90815260200160405180910390205410156112e65760405160e560020a62461bcd02815260040161047c90611d5d565b6112f881670de0b6b3a7640000611e14565b34146113495760405160e560020a62461bcd02815260206004820152601b60248201527f496e636f727265637420457468657220616d6f756e742073656e740000000000604482015260640161047c565b80600254101561136e5760405160e560020a62461bcd02815260040161047c90611d5d565b806003600060048686604051611385929190611bc6565b908152604080516020928190038301902054600160a060020a0316835290820192909252810160002090516113bd9086908690611bc6565b908152602001604051809103902060008282546113da9190611e33565b9091555050336000908152600360205260409081902090518291906114029086908690611bc6565b9081526020016040518091039020600082825461141f9190611dfc565b90915550506040516004906114379085908590611bc6565b90815260405190819003602001812054600160a060020a0316903480156108fc02916000818181858888f19350505050158015611478573d6000803e3d6000fd5b5033600160a060020a03167f25748cfd0e365be64ddc23a17740b66c3c84e41a3f32027f9edbddde67cc672084848460405161065193929190611c2c565b8151602081840181018051600a8252928201948201949094209190935281518083018401805192815290840192909301919091209152805461069f90611e7a565b82805461150390611e7a565b90600052602060002090601f016020900481019282611525576000855561156b565b82601f1061153e57805160ff191683800117855561156b565b8280016001018555821561156b579182015b8281111561156b578251825591602001919060010190611550565b506115779291506115ef565b5090565b82805461158790611e7a565b90600052602060002090601f0160209004810192826115a9576000855561156b565b82601f106115c25782800160ff1982351617855561156b565b8280016001018555821561156b579182015b8281111561156b5782358255916020019190600101906115d4565b5b8082111561157757600081556001016115f0565b8035600160a060020a038116811461161b57600080fd5b919050565b60008083601f84011261163257600080fd5b5081356001604060020a0381111561164957600080fd5b60208301915083602082850101111561166157600080fd5b9250929050565b600082601f83011261167957600080fd5b81356001604060020a038082111561169357611693611ed3565b604051601f8301601f19908116603f011681019082821181831017156116bb576116bb611ed3565b816040528381528660208588010111156116d457600080fd5b836020870160208301376000602085830101528094505050505092915050565b60008060006040848603121561170957600080fd5b61171284611604565b925060208401356001604060020a0381111561172d57600080fd5b61173986828701611620565b9497909650939450505050565b6000806040838503121561175957600080fd5b61176283611604565b915060208301356001604060020a0381111561177d57600080fd5b61178985828601611668565b9150509250929050565b6000602082840312156117a557600080fd5b5035919050565b600080604083850312156117bf57600080fd5b8235915060208301356001604060020a0381111561177d57600080fd5b6000806000604084860312156117f157600080fd5b83356001604060020a0381111561180757600080fd5b61181386828701611620565b9094509250611826905060208501611604565b90509250925092565b6000806000806040858703121561184557600080fd5b84356001604060020a038082111561185c57600080fd5b61186888838901611620565b9096509450602087013591508082111561188157600080fd5b5061188e87828801611620565b95989497509550505050565b6000806000806000806000806080898b0312156118b657600080fd5b88356001604060020a03808211156118cd57600080fd5b6118d98c838d01611620565b909a50985060208b01359150808211156118f257600080fd5b6118fe8c838d01611620565b909850965060408b013591508082111561191757600080fd5b6119238c838d01611620565b909650945060608b013591508082111561193c57600080fd5b506119498b828c01611620565b999c989b5096995094979396929594505050565b60008060006040848603121561197257600080fd5b83356001604060020a0381111561198857600080fd5b61199486828701611620565b909790965060209590950135949350505050565b6000806000806000806000806000806101208b8d0312156119c857600080fd5b8a356001604060020a03808211156119df57600080fd5b6119eb8e838f01611620565b909c509a5060208d0135995060408d0135915080821115611a0b57600080fd5b611a178e838f01611668565b985060608d0135915080821115611a2d57600080fd5b611a398e838f01611668565b975060808d0135915080821115611a4f57600080fd5b611a5b8e838f01611668565b965060a08d0135955060c08d0135915080821115611a7857600080fd5b611a848e838f01611668565b945060e08d0135915080821115611a9a57600080fd5b611aa68e838f01611668565b93506101008d0135915080821115611abd57600080fd5b50611aca8d828e01611668565b9150509295989b9194979a5092959850565b600060208284031215611aee57600080fd5b81356001604060020a03811115611b0457600080fd5b611b1084828501611668565b949350505050565b60008060408385031215611b2b57600080fd5b82356001604060020a0380821115611b4257600080fd5b611b4e86838701611668565b93506020850135915080821115611b6457600080fd5b5061178985828601611668565b81835281816020850137506000828201602090810191909152601f909101601f19169091010190565b60008151808452611bb2816020860160208601611e4a565b601f01601f19169290920160200192915050565b8183823760009101908152919050565b60008251611be8818460208701611e4a565b9190910192915050565b606081526000611c06606083018789611b71565b8281036020840152611c19818688611b71565b9150508260408301529695505050505050565b604081526000611c40604083018587611b71565b9050826020830152949350505050565b6000610120808352611c658184018d8f611b71565b90508a60208401528281036040840152611c7f818b611b9a565b90508281036060840152611c93818a611b9a565b90508281036080840152611ca78189611b9a565b90508660a084015282810360c0840152611cc18187611b9a565b905082810360e0840152611cd58186611b9a565b9050828103610100840152611cea8185611b9a565b9d9c50505050505050505050505050565b602081526000611d0e6020830184611b9a565b9392505050565b60208082526025908201527f4f6e6c7920746865206f776e65722063616e2063616c6c20746869732066756e604082015260d960020a6431ba34b7b702606082015260800190565b6020808252602890820152600080516020611eee833981519152604082015260c060020a67707572636861736502606082015260800190565b86815260c060208201526000611daf60c0830188611b9a565b8660408401528281036060840152611dc78187611b9a565b90508281036080840152611ddb8186611b9a565b905082810360a0840152611def8185611b9a565b9998505050505050505050565b60008219821115611e0f57611e0f611eb9565b500190565b6000816000190483118215151615611e2e57611e2e611eb9565b500290565b600082821015611e4557611e45611eb9565b500390565b60005b83811015611e65578181015183820152602001611e4d565b83811115611e74576000848401525b50505050565b600281046001821680611e8e57607f821691505b60208210811415611eb35760e060020a634e487b710260009081526022600452602490fd5b50919050565b60e060020a634e487b710260009081526011600452602490fd5b60e060020a634e487b710260009081526041600452602490fdfe4e6f7420656e6f75676820746f6b656e7320617661696c61626c6520666f7220a26469706673582212209a9af85cfdc71643161cfec9a490f9e449680f2287abcc8635d3bd1bf651363064736f6c63430008050033",
    "immutableReferences": {},
    "source": "// SPDX-License-Identifier: MIT\r\npragma solidity ^0.8.0;\r\n\r\ncontract TokenSaleContract {\r\n    address public owner;\r\n    uint256 public totalSupply;\r\n    uint256 public tokensAvailable;\r\n\r\n    mapping(address => mapping(string => uint256)) public balances;\r\n    mapping(string => address) public ownersByTokenName;\r\n    mapping(string => bytes32) public awardIDByTokenName;\r\n    \r\n\r\n    event TokensMinted(address indexed owner, string tokenName, uint256 amount);\r\n    event TokensPurchased(address indexed buyer, string tokenName, uint256 amount);\r\n    event TokensBurned(address indexed owner, string tokenName, uint256 amount, string awardID, string buyerID,string supplierID,uint256 awardAmount,string award_Doc_Hash,string financerID,string funded_int);\r\n    \r\n    // Assume you have additional mappings to store buyerID, supplierID, awardAmount, awardDocHash, financerID, and fundedInt\r\n    mapping(string => mapping(string => string)) public buyerIDs;\r\n    mapping(string => mapping(string => string)) public supplierIDs;\r\n    mapping(string => mapping(string => uint256)) public awardAmounts;\r\n    mapping(string => mapping(string => string)) public awardDocHashes;\r\n    mapping(string => mapping(string => string)) public financerIDs;\r\n    mapping(bytes32 => mapping(string => string)) public fundedInt;\r\n\r\n    modifier onlyOwner() {\r\n        require(msg.sender == owner, \"Only the owner can call this function\");\r\n        _;\r\n    }\r\n\r\n    constructor() {\r\n        owner = msg.sender;\r\n        totalSupply = 1000000;\r\n        tokensAvailable = totalSupply;\r\n        ownersByTokenName[\"default\"] = owner;\r\n        balances[owner][\"default\"] = totalSupply;\r\n    }\r\n\r\n\r\n    function mint(string calldata tokenName, uint256 amount) external onlyOwner {\r\n        require(tokensAvailable >= amount, \"Not enough tokens available for minting\");\r\n        \r\n        // If the token name is not registered, associate it with the owner\r\n        if (ownersByTokenName[tokenName] == address(0)) {\r\n            ownersByTokenName[tokenName] = owner;\r\n        }\r\n\r\n        // Mint tokens to the specified owner and token name\r\n        balances[ownersByTokenName[tokenName]][tokenName] += amount;\r\n        tokensAvailable -= amount;\r\n\r\n        emit TokensMinted(ownersByTokenName[tokenName], tokenName, amount);\r\n    }\r\n\r\n\r\n    function purchase(string calldata tokenName, uint256 amount) external payable {\r\n        require(amount > 0, \"Purchase amount must be greater than 0\");\r\n        require(balances[ownersByTokenName[tokenName]][tokenName] >= amount, \"Not enough tokens available for purchase\");\r\n        require(msg.value == amount * 1 ether, \"Incorrect Ether amount sent\");\r\n        require(tokensAvailable >= amount, \"Not enough tokens available for purchase\");\r\n\r\n\r\n        // Transfer tokens from owner to buyer\r\n        balances[ownersByTokenName[tokenName]][tokenName] -= amount;\r\n        balances[msg.sender][tokenName] += amount;\r\n\r\n        // Transfer Ether to owner\r\n        payable(ownersByTokenName[tokenName]).transfer(msg.value);\r\n\r\n        emit TokensPurchased(msg.sender, tokenName, amount);\r\n    }\r\n\r\n    // New function to burn tokens and write data to the blockchain\r\n    function WriteData(string calldata tokenName, uint256 amount, string memory awardID, string memory buyerID,string memory supplierID,uint256 awardAmount,string memory award_Doc_Hash,string memory financerID,string memory funded_int) external {\r\n        // Hash awardID to bytes32\r\n        bytes32 hashedAwardID = keccak256(abi.encodePacked(awardID));\r\n\r\n        buyerIDs[tokenName][awardID] = buyerID;\r\n        supplierIDs[tokenName][awardID] = supplierID;\r\n        awardAmounts[tokenName][awardID] = awardAmount;\r\n        awardDocHashes[tokenName][awardID] = award_Doc_Hash;\r\n        financerIDs[tokenName][awardID] = financerID;\r\n        fundedInt[hashedAwardID][tokenName] = funded_int;\r\n        \r\n        require(balances[msg.sender][tokenName] >= amount, \"Not enough tokens to burn\");\r\n\r\n        // Burn tokens\r\n        balances[msg.sender][tokenName] -= amount;\r\n        tokensAvailable += amount;\r\n\r\n        // Emit event for the burned tokens\r\n        emit TokensBurned(msg.sender, tokenName, amount, awardID, buyerID,supplierID,awardAmount,award_Doc_Hash,financerID,funded_int);\r\n    }\r\n\r\n    function getData(string calldata tokenName, string calldata awardID) external view returns (\r\n    uint256 amount,\r\n    string memory supplierID,\r\n    uint256 awardAmount,\r\n    string memory award_Doc_Hash,\r\n    string memory financerID,\r\n    string memory funded_int\r\n    ) {\r\n    //hash awardID to bytes32\r\n    bytes32 hashedAwardID = keccak256(abi.encodePacked(awardID));\r\n\r\n    // Retrieve data based on tokenName and awardID\r\n    amount = balances[msg.sender][tokenName];\r\n    // buyerID = buyerIDs[tokenName][awardID];\r\n    supplierID = supplierIDs[tokenName][awardID];\r\n    awardAmount = awardAmounts[tokenName][awardID];\r\n    award_Doc_Hash = awardDocHashes[tokenName][awardID];\r\n    financerID = financerIDs[tokenName][awardID];\r\n    funded_int = fundedInt[hashedAwardID][tokenName];\r\n    }\r\n    \r\n    function getBalance(address account, string calldata tokenName) external view returns (uint256) {\r\n        return balances[account][tokenName];\r\n    }\r\n\r\n    \r\n\r\n\r\n    function updateFundedInt(string calldata tokenName, string calldata awardID, string calldata newFundedInt,string calldata newFinancerID) external {\r\n    bytes32 hashedAwardID = keccak256(abi.encodePacked(awardID));\r\n\r\n    require(\r\n        msg.sender == ownersByTokenName[tokenName] || \r\n        msg.sender == thirdPersonByAwardID[hashedAwardID], \r\n        \"Only the token owner or designated third person can update funded_int\" \r\n    );\r\n    \r\n    fundedInt[hashedAwardID][tokenName] = newFundedInt;\r\n    //update financerID with new value\r\n    financerIDs[tokenName][awardID] = newFinancerID;\r\n\r\n    emit FundedIntUpdated(msg.sender, tokenName, newFundedInt, hashedAwardID);\r\n    }\r\n\r\n    mapping(bytes32 => address) public thirdPersonByAwardID;\r\n\r\n    event FundedIntUpdated(address indexed updater, string tokenName, string newFundedInt, bytes32 hashedAwardID);\r\n    \r\n    function designateThirdPerson(string calldata awardID, address thirdPerson) external onlyOwner {\r\n    bytes32 hashedAwardID = keccak256(abi.encodePacked(awardID));\r\n\r\n    \r\n    require(msg.sender == owner, \"Only the contract owner can designate a third person\");\r\n    \r\n    thirdPersonByAwardID[hashedAwardID] = thirdPerson;\r\n    }\r\n    \r\n}\r\n",
    "sourcePath": "C:\\Users\\ACER\\Documents\\GitHub\\TokenExchange\\project\\Truffle\\contracts\\DBXContracts.sol",
    "compiler": {
        "name": "solc",
        "version": "0.8.5+commit.a4f2e591.Emscripten.clang"
    },
    "schemaVersion": "3.4.16",
    "updatedAt": "2024-03-12T14:39:20.727Z",
    "devdoc": {
        "kind": "dev",
        "methods": {},
        "version": 1
    },
    "userdoc": {
        "kind": "user",
        "methods": {},
        "version": 1
    }
}